{
	"data": {
		"bytecode": {
			"linkReferences": {},
			"object": "608060405234801561000f575f80fd5b506040516110a33803806110a38339818101604052810190610031919061028b565b845f908161003f919061055a565b50836001908161004f919061055a565b50826002908161005f919061055a565b50816003819055508060045f6101000a81548173ffffffffffffffffffffffffffffffffffffffff021916908373ffffffffffffffffffffffffffffffffffffffff1602179055505050505050610629565b5f604051905090565b5f80fd5b5f80fd5b5f80fd5b5f80fd5b5f601f19601f8301169050919050565b7f4e487b71000000000000000000000000000000000000000000000000000000005f52604160045260245ffd5b610110826100ca565b810181811067ffffffffffffffff8211171561012f5761012e6100da565b5b80604052505050565b5f6101416100b1565b905061014d8282610107565b919050565b5f67ffffffffffffffff82111561016c5761016b6100da565b5b610175826100ca565b9050602081019050919050565b8281835e5f83830152505050565b5f6101a261019d84610152565b610138565b9050828152602081018484840111156101be576101bd6100c6565b5b6101c9848285610182565b509392505050565b5f82601f8301126101e5576101e46100c2565b5b81516101f5848260208601610190565b91505092915050565b5f819050919050565b610210816101fe565b811461021a575f80fd5b50565b5f8151905061022b81610207565b92915050565b5f73ffffffffffffffffffffffffffffffffffffffff82169050919050565b5f61025a82610231565b9050919050565b61026a81610250565b8114610274575f80fd5b50565b5f8151905061028581610261565b92915050565b5f805f805f60a086880312156102a4576102a36100ba565b5b5f86015167ffffffffffffffff8111156102c1576102c06100be565b5b6102cd888289016101d1565b955050602086015167ffffffffffffffff8111156102ee576102ed6100be565b5b6102fa888289016101d1565b945050604086015167ffffffffffffffff81111561031b5761031a6100be565b5b610327888289016101d1565b93505060606103388882890161021d565b925050608061034988828901610277565b9150509295509295909350565b5f81519050919050565b7f4e487b71000000000000000000000000000000000000000000000000000000005f52602260045260245ffd5b5f60028204905060018216806103a457607f821691505b6020821081036103b7576103b6610360565b5b50919050565b5f819050815f5260205f209050919050565b5f6020601f8301049050919050565b5f82821b905092915050565b5f600883026104197fffffffffffffffffffffffffffffffffffffffffffffffffffffffffffffffff826103de565b61042386836103de565b95508019841693508086168417925050509392505050565b5f819050919050565b5f61045e610459610454846101fe565b61043b565b6101fe565b9050919050565b5f819050919050565b61047783610444565b61048b61048382610465565b8484546103ea565b825550505050565b5f90565b61049f610493565b6104aa81848461046e565b505050565b5b818110156104cd576104c25f82610497565b6001810190506104b0565b5050565b601f821115610512576104e3816103bd565b6104ec846103cf565b810160208510156104fb578190505b61050f610507856103cf565b8301826104af565b50505b505050565b5f82821c905092915050565b5f6105325f1984600802610517565b1980831691505092915050565b5f61054a8383610523565b9150826002028217905092915050565b61056382610356565b67ffffffffffffffff81111561057c5761057b6100da565b5b610586825461038d565b6105918282856104d1565b5f60209050601f8311600181146105c2575f84156105b0578287015190505b6105ba858261053f565b865550610621565b601f1984166105d0866103bd565b5f5b828110156105f7578489015182556001820191506020850194506020810190506105d2565b868310156106145784890151610610601f891682610523565b8355505b6001600288020188555050505b505050505050565b610a6d806106365f395ff3fe608060405234801561000f575f80fd5b506004361061009c575f3560e01c8063a7f93ebd11610064578063a7f93ebd14610132578063b84c3b2a14610150578063b84c82461461016e578063c47f00271461018a578063f4a0a528146101a65761009c565b806315070401146100a057806317d7de7c146100be5780632cda77a4146100dc5780634e16fc8b146100f85780639b642de114610116575b5f80fd5b6100a86101c2565b6040516100b59190610497565b60405180910390f35b6100c6610252565b6040516100d39190610497565b60405180910390f35b6100f660048036038101906100f19190610522565b6102e1565b005b610100610324565b60405161010d9190610497565b60405180910390f35b610130600480360381019061012b9190610679565b6103b4565b005b61013a6103c7565b60405161014791906106d8565b60405180910390f35b6101586103d0565b6040516101659190610700565b60405180910390f35b61018860048036038101906101839190610679565b6103f8565b005b6101a4600480360381019061019f9190610679565b61040b565b005b6101c060048036038101906101bb9190610743565b61041d565b005b6060600180546101d19061079b565b80601f01602080910402602001604051908101604052809291908181526020018280546101fd9061079b565b80156102485780601f1061021f57610100808354040283529160200191610248565b820191905f5260205f20905b81548152906001019060200180831161022b57829003601f168201915b5050505050905090565b60605f80546102609061079b565b80601f016020809104026020016040519081016040528092919081815260200182805461028c9061079b565b80156102d75780601f106102ae576101008083540402835291602001916102d7565b820191905f5260205f20905b8154815290600101906020018083116102ba57829003601f168201915b5050505050905090565b8060045f6101000a81548173ffffffffffffffffffffffffffffffffffffffff021916908373ffffffffffffffffffffffffffffffffffffffff16021790555050565b6060600280546103339061079b565b80601f016020809104026020016040519081016040528092919081815260200182805461035f9061079b565b80156103aa5780601f10610381576101008083540402835291602001916103aa565b820191905f5260205f20905b81548152906001019060200180831161038d57829003601f168201915b5050505050905090565b80600290816103c39190610968565b5050565b5f600354905090565b5f60045f9054906101000a900473ffffffffffffffffffffffffffffffffffffffff16905090565b80600190816104079190610968565b5050565b805f90816104199190610968565b5050565b8060038190555050565b5f81519050919050565b5f82825260208201905092915050565b8281835e5f83830152505050565b5f601f19601f8301169050919050565b5f61046982610427565b6104738185610431565b9350610483818560208601610441565b61048c8161044f565b840191505092915050565b5f6020820190508181035f8301526104af818461045f565b905092915050565b5f604051905090565b5f80fd5b5f80fd5b5f73ffffffffffffffffffffffffffffffffffffffff82169050919050565b5f6104f1826104c8565b9050919050565b610501816104e7565b811461050b575f80fd5b50565b5f8135905061051c816104f8565b92915050565b5f60208284031215610537576105366104c0565b5b5f6105448482850161050e565b91505092915050565b5f80fd5b5f80fd5b7f4e487b71000000000000000000000000000000000000000000000000000000005f52604160045260245ffd5b61058b8261044f565b810181811067ffffffffffffffff821117156105aa576105a9610555565b5b80604052505050565b5f6105bc6104b7565b90506105c88282610582565b919050565b5f67ffffffffffffffff8211156105e7576105e6610555565b5b6105f08261044f565b9050602081019050919050565b828183375f83830152505050565b5f61061d610618846105cd565b6105b3565b90508281526020810184848401111561063957610638610551565b5b6106448482856105fd565b509392505050565b5f82601f8301126106605761065f61054d565b5b813561067084826020860161060b565b91505092915050565b5f6020828403121561068e5761068d6104c0565b5b5f82013567ffffffffffffffff8111156106ab576106aa6104c4565b5b6106b78482850161064c565b91505092915050565b5f819050919050565b6106d2816106c0565b82525050565b5f6020820190506106eb5f8301846106c9565b92915050565b6106fa816104e7565b82525050565b5f6020820190506107135f8301846106f1565b92915050565b610722816106c0565b811461072c575f80fd5b50565b5f8135905061073d81610719565b92915050565b5f60208284031215610758576107576104c0565b5b5f6107658482850161072f565b91505092915050565b7f4e487b71000000000000000000000000000000000000000000000000000000005f52602260045260245ffd5b5f60028204905060018216806107b257607f821691505b6020821081036107c5576107c461076e565b5b50919050565b5f819050815f5260205f209050919050565b5f6020601f8301049050919050565b5f82821b905092915050565b5f600883026108277fffffffffffffffffffffffffffffffffffffffffffffffffffffffffffffffff826107ec565b61083186836107ec565b95508019841693508086168417925050509392505050565b5f819050919050565b5f61086c610867610862846106c0565b610849565b6106c0565b9050919050565b5f819050919050565b61088583610852565b61089961089182610873565b8484546107f8565b825550505050565b5f90565b6108ad6108a1565b6108b881848461087c565b505050565b5b818110156108db576108d05f826108a5565b6001810190506108be565b5050565b601f821115610920576108f1816107cb565b6108fa846107dd565b81016020851015610909578190505b61091d610915856107dd565b8301826108bd565b50505b505050565b5f82821c905092915050565b5f6109405f1984600802610925565b1980831691505092915050565b5f6109588383610931565b9150826002028217905092915050565b61097182610427565b67ffffffffffffffff81111561098a57610989610555565b5b610994825461079b565b61099f8282856108df565b5f60209050601f8311600181146109d0575f84156109be578287015190505b6109c8858261094d565b865550610a2f565b601f1984166109de866107cb565b5f5b82811015610a05578489015182556001820191506020850194506020810190506109e0565b86831015610a225784890151610a1e601f891682610931565b8355505b6001600288020188555050505b50505050505056fea264697066735822122004ec2699f2be554138d9a101fd4d641f15da4015651881d2ced484361a789a6a64736f6c634300081a0033",
			"opcodes": "PUSH1 0x80 PUSH1 0x40 MSTORE CALLVALUE DUP1 ISZERO PUSH2 0xF JUMPI PUSH0 DUP1 REVERT JUMPDEST POP PUSH1 0x40 MLOAD PUSH2 0x10A3 CODESIZE SUB DUP1 PUSH2 0x10A3 DUP4 CODECOPY DUP2 DUP2 ADD PUSH1 0x40 MSTORE DUP2 ADD SWAP1 PUSH2 0x31 SWAP2 SWAP1 PUSH2 0x28B JUMP JUMPDEST DUP5 PUSH0 SWAP1 DUP2 PUSH2 0x3F SWAP2 SWAP1 PUSH2 0x55A JUMP JUMPDEST POP DUP4 PUSH1 0x1 SWAP1 DUP2 PUSH2 0x4F SWAP2 SWAP1 PUSH2 0x55A JUMP JUMPDEST POP DUP3 PUSH1 0x2 SWAP1 DUP2 PUSH2 0x5F SWAP2 SWAP1 PUSH2 0x55A JUMP JUMPDEST POP DUP2 PUSH1 0x3 DUP2 SWAP1 SSTORE POP DUP1 PUSH1 0x4 PUSH0 PUSH2 0x100 EXP DUP2 SLOAD DUP2 PUSH20 0xFFFFFFFFFFFFFFFFFFFFFFFFFFFFFFFFFFFFFFFF MUL NOT AND SWAP1 DUP4 PUSH20 0xFFFFFFFFFFFFFFFFFFFFFFFFFFFFFFFFFFFFFFFF AND MUL OR SWAP1 SSTORE POP POP POP POP POP POP PUSH2 0x629 JUMP JUMPDEST PUSH0 PUSH1 0x40 MLOAD SWAP1 POP SWAP1 JUMP JUMPDEST PUSH0 DUP1 REVERT JUMPDEST PUSH0 DUP1 REVERT JUMPDEST PUSH0 DUP1 REVERT JUMPDEST PUSH0 DUP1 REVERT JUMPDEST PUSH0 PUSH1 0x1F NOT PUSH1 0x1F DUP4 ADD AND SWAP1 POP SWAP2 SWAP1 POP JUMP JUMPDEST PUSH32 0x4E487B7100000000000000000000000000000000000000000000000000000000 PUSH0 MSTORE PUSH1 0x41 PUSH1 0x4 MSTORE PUSH1 0x24 PUSH0 REVERT JUMPDEST PUSH2 0x110 DUP3 PUSH2 0xCA JUMP JUMPDEST DUP2 ADD DUP2 DUP2 LT PUSH8 0xFFFFFFFFFFFFFFFF DUP3 GT OR ISZERO PUSH2 0x12F JUMPI PUSH2 0x12E PUSH2 0xDA JUMP JUMPDEST JUMPDEST DUP1 PUSH1 0x40 MSTORE POP POP POP JUMP JUMPDEST PUSH0 PUSH2 0x141 PUSH2 0xB1 JUMP JUMPDEST SWAP1 POP PUSH2 0x14D DUP3 DUP3 PUSH2 0x107 JUMP JUMPDEST SWAP2 SWAP1 POP JUMP JUMPDEST PUSH0 PUSH8 0xFFFFFFFFFFFFFFFF DUP3 GT ISZERO PUSH2 0x16C JUMPI PUSH2 0x16B PUSH2 0xDA JUMP JUMPDEST JUMPDEST PUSH2 0x175 DUP3 PUSH2 0xCA JUMP JUMPDEST SWAP1 POP PUSH1 0x20 DUP2 ADD SWAP1 POP SWAP2 SWAP1 POP JUMP JUMPDEST DUP3 DUP2 DUP4 MCOPY PUSH0 DUP4 DUP4 ADD MSTORE POP POP POP JUMP JUMPDEST PUSH0 PUSH2 0x1A2 PUSH2 0x19D DUP5 PUSH2 0x152 JUMP JUMPDEST PUSH2 0x138 JUMP JUMPDEST SWAP1 POP DUP3 DUP2 MSTORE PUSH1 0x20 DUP2 ADD DUP5 DUP5 DUP5 ADD GT ISZERO PUSH2 0x1BE JUMPI PUSH2 0x1BD PUSH2 0xC6 JUMP JUMPDEST JUMPDEST PUSH2 0x1C9 DUP5 DUP3 DUP6 PUSH2 0x182 JUMP JUMPDEST POP SWAP4 SWAP3 POP POP POP JUMP JUMPDEST PUSH0 DUP3 PUSH1 0x1F DUP4 ADD SLT PUSH2 0x1E5 JUMPI PUSH2 0x1E4 PUSH2 0xC2 JUMP JUMPDEST JUMPDEST DUP2 MLOAD PUSH2 0x1F5 DUP5 DUP3 PUSH1 0x20 DUP7 ADD PUSH2 0x190 JUMP JUMPDEST SWAP2 POP POP SWAP3 SWAP2 POP POP JUMP JUMPDEST PUSH0 DUP2 SWAP1 POP SWAP2 SWAP1 POP JUMP JUMPDEST PUSH2 0x210 DUP2 PUSH2 0x1FE JUMP JUMPDEST DUP2 EQ PUSH2 0x21A JUMPI PUSH0 DUP1 REVERT JUMPDEST POP JUMP JUMPDEST PUSH0 DUP2 MLOAD SWAP1 POP PUSH2 0x22B DUP2 PUSH2 0x207 JUMP JUMPDEST SWAP3 SWAP2 POP POP JUMP JUMPDEST PUSH0 PUSH20 0xFFFFFFFFFFFFFFFFFFFFFFFFFFFFFFFFFFFFFFFF DUP3 AND SWAP1 POP SWAP2 SWAP1 POP JUMP JUMPDEST PUSH0 PUSH2 0x25A DUP3 PUSH2 0x231 JUMP JUMPDEST SWAP1 POP SWAP2 SWAP1 POP JUMP JUMPDEST PUSH2 0x26A DUP2 PUSH2 0x250 JUMP JUMPDEST DUP2 EQ PUSH2 0x274 JUMPI PUSH0 DUP1 REVERT JUMPDEST POP JUMP JUMPDEST PUSH0 DUP2 MLOAD SWAP1 POP PUSH2 0x285 DUP2 PUSH2 0x261 JUMP JUMPDEST SWAP3 SWAP2 POP POP JUMP JUMPDEST PUSH0 DUP1 PUSH0 DUP1 PUSH0 PUSH1 0xA0 DUP7 DUP9 SUB SLT ISZERO PUSH2 0x2A4 JUMPI PUSH2 0x2A3 PUSH2 0xBA JUMP JUMPDEST JUMPDEST PUSH0 DUP7 ADD MLOAD PUSH8 0xFFFFFFFFFFFFFFFF DUP2 GT ISZERO PUSH2 0x2C1 JUMPI PUSH2 0x2C0 PUSH2 0xBE JUMP JUMPDEST JUMPDEST PUSH2 0x2CD DUP9 DUP3 DUP10 ADD PUSH2 0x1D1 JUMP JUMPDEST SWAP6 POP POP PUSH1 0x20 DUP7 ADD MLOAD PUSH8 0xFFFFFFFFFFFFFFFF DUP2 GT ISZERO PUSH2 0x2EE JUMPI PUSH2 0x2ED PUSH2 0xBE JUMP JUMPDEST JUMPDEST PUSH2 0x2FA DUP9 DUP3 DUP10 ADD PUSH2 0x1D1 JUMP JUMPDEST SWAP5 POP POP PUSH1 0x40 DUP7 ADD MLOAD PUSH8 0xFFFFFFFFFFFFFFFF DUP2 GT ISZERO PUSH2 0x31B JUMPI PUSH2 0x31A PUSH2 0xBE JUMP JUMPDEST JUMPDEST PUSH2 0x327 DUP9 DUP3 DUP10 ADD PUSH2 0x1D1 JUMP JUMPDEST SWAP4 POP POP PUSH1 0x60 PUSH2 0x338 DUP9 DUP3 DUP10 ADD PUSH2 0x21D JUMP JUMPDEST SWAP3 POP POP PUSH1 0x80 PUSH2 0x349 DUP9 DUP3 DUP10 ADD PUSH2 0x277 JUMP JUMPDEST SWAP2 POP POP SWAP3 SWAP6 POP SWAP3 SWAP6 SWAP1 SWAP4 POP JUMP JUMPDEST PUSH0 DUP2 MLOAD SWAP1 POP SWAP2 SWAP1 POP JUMP JUMPDEST PUSH32 0x4E487B7100000000000000000000000000000000000000000000000000000000 PUSH0 MSTORE PUSH1 0x22 PUSH1 0x4 MSTORE PUSH1 0x24 PUSH0 REVERT JUMPDEST PUSH0 PUSH1 0x2 DUP3 DIV SWAP1 POP PUSH1 0x1 DUP3 AND DUP1 PUSH2 0x3A4 JUMPI PUSH1 0x7F DUP3 AND SWAP2 POP JUMPDEST PUSH1 0x20 DUP3 LT DUP2 SUB PUSH2 0x3B7 JUMPI PUSH2 0x3B6 PUSH2 0x360 JUMP JUMPDEST JUMPDEST POP SWAP2 SWAP1 POP JUMP JUMPDEST PUSH0 DUP2 SWAP1 POP DUP2 PUSH0 MSTORE PUSH1 0x20 PUSH0 KECCAK256 SWAP1 POP SWAP2 SWAP1 POP JUMP JUMPDEST PUSH0 PUSH1 0x20 PUSH1 0x1F DUP4 ADD DIV SWAP1 POP SWAP2 SWAP1 POP JUMP JUMPDEST PUSH0 DUP3 DUP3 SHL SWAP1 POP SWAP3 SWAP2 POP POP JUMP JUMPDEST PUSH0 PUSH1 0x8 DUP4 MUL PUSH2 0x419 PUSH32 0xFFFFFFFFFFFFFFFFFFFFFFFFFFFFFFFFFFFFFFFFFFFFFFFFFFFFFFFFFFFFFFFF DUP3 PUSH2 0x3DE JUMP JUMPDEST PUSH2 0x423 DUP7 DUP4 PUSH2 0x3DE JUMP JUMPDEST SWAP6 POP DUP1 NOT DUP5 AND SWAP4 POP DUP1 DUP7 AND DUP5 OR SWAP3 POP POP POP SWAP4 SWAP3 POP POP POP JUMP JUMPDEST PUSH0 DUP2 SWAP1 POP SWAP2 SWAP1 POP JUMP JUMPDEST PUSH0 PUSH2 0x45E PUSH2 0x459 PUSH2 0x454 DUP5 PUSH2 0x1FE JUMP JUMPDEST PUSH2 0x43B JUMP JUMPDEST PUSH2 0x1FE JUMP JUMPDEST SWAP1 POP SWAP2 SWAP1 POP JUMP JUMPDEST PUSH0 DUP2 SWAP1 POP SWAP2 SWAP1 POP JUMP JUMPDEST PUSH2 0x477 DUP4 PUSH2 0x444 JUMP JUMPDEST PUSH2 0x48B PUSH2 0x483 DUP3 PUSH2 0x465 JUMP JUMPDEST DUP5 DUP5 SLOAD PUSH2 0x3EA JUMP JUMPDEST DUP3 SSTORE POP POP POP POP JUMP JUMPDEST PUSH0 SWAP1 JUMP JUMPDEST PUSH2 0x49F PUSH2 0x493 JUMP JUMPDEST PUSH2 0x4AA DUP2 DUP5 DUP5 PUSH2 0x46E JUMP JUMPDEST POP POP POP JUMP JUMPDEST JUMPDEST DUP2 DUP2 LT ISZERO PUSH2 0x4CD JUMPI PUSH2 0x4C2 PUSH0 DUP3 PUSH2 0x497 JUMP JUMPDEST PUSH1 0x1 DUP2 ADD SWAP1 POP PUSH2 0x4B0 JUMP JUMPDEST POP POP JUMP JUMPDEST PUSH1 0x1F DUP3 GT ISZERO PUSH2 0x512 JUMPI PUSH2 0x4E3 DUP2 PUSH2 0x3BD JUMP JUMPDEST PUSH2 0x4EC DUP5 PUSH2 0x3CF JUMP JUMPDEST DUP2 ADD PUSH1 0x20 DUP6 LT ISZERO PUSH2 0x4FB JUMPI DUP2 SWAP1 POP JUMPDEST PUSH2 0x50F PUSH2 0x507 DUP6 PUSH2 0x3CF JUMP JUMPDEST DUP4 ADD DUP3 PUSH2 0x4AF JUMP JUMPDEST POP POP JUMPDEST POP POP POP JUMP JUMPDEST PUSH0 DUP3 DUP3 SHR SWAP1 POP SWAP3 SWAP2 POP POP JUMP JUMPDEST PUSH0 PUSH2 0x532 PUSH0 NOT DUP5 PUSH1 0x8 MUL PUSH2 0x517 JUMP JUMPDEST NOT DUP1 DUP4 AND SWAP2 POP POP SWAP3 SWAP2 POP POP JUMP JUMPDEST PUSH0 PUSH2 0x54A DUP4 DUP4 PUSH2 0x523 JUMP JUMPDEST SWAP2 POP DUP3 PUSH1 0x2 MUL DUP3 OR SWAP1 POP SWAP3 SWAP2 POP POP JUMP JUMPDEST PUSH2 0x563 DUP3 PUSH2 0x356 JUMP JUMPDEST PUSH8 0xFFFFFFFFFFFFFFFF DUP2 GT ISZERO PUSH2 0x57C JUMPI PUSH2 0x57B PUSH2 0xDA JUMP JUMPDEST JUMPDEST PUSH2 0x586 DUP3 SLOAD PUSH2 0x38D JUMP JUMPDEST PUSH2 0x591 DUP3 DUP3 DUP6 PUSH2 0x4D1 JUMP JUMPDEST PUSH0 PUSH1 0x20 SWAP1 POP PUSH1 0x1F DUP4 GT PUSH1 0x1 DUP2 EQ PUSH2 0x5C2 JUMPI PUSH0 DUP5 ISZERO PUSH2 0x5B0 JUMPI DUP3 DUP8 ADD MLOAD SWAP1 POP JUMPDEST PUSH2 0x5BA DUP6 DUP3 PUSH2 0x53F JUMP JUMPDEST DUP7 SSTORE POP PUSH2 0x621 JUMP JUMPDEST PUSH1 0x1F NOT DUP5 AND PUSH2 0x5D0 DUP7 PUSH2 0x3BD JUMP JUMPDEST PUSH0 JUMPDEST DUP3 DUP2 LT ISZERO PUSH2 0x5F7 JUMPI DUP5 DUP10 ADD MLOAD DUP3 SSTORE PUSH1 0x1 DUP3 ADD SWAP2 POP PUSH1 0x20 DUP6 ADD SWAP5 POP PUSH1 0x20 DUP2 ADD SWAP1 POP PUSH2 0x5D2 JUMP JUMPDEST DUP7 DUP4 LT ISZERO PUSH2 0x614 JUMPI DUP5 DUP10 ADD MLOAD PUSH2 0x610 PUSH1 0x1F DUP10 AND DUP3 PUSH2 0x523 JUMP JUMPDEST DUP4 SSTORE POP JUMPDEST PUSH1 0x1 PUSH1 0x2 DUP9 MUL ADD DUP9 SSTORE POP POP POP JUMPDEST POP POP POP POP POP POP JUMP JUMPDEST PUSH2 0xA6D DUP1 PUSH2 0x636 PUSH0 CODECOPY PUSH0 RETURN INVALID PUSH1 0x80 PUSH1 0x40 MSTORE CALLVALUE DUP1 ISZERO PUSH2 0xF JUMPI PUSH0 DUP1 REVERT JUMPDEST POP PUSH1 0x4 CALLDATASIZE LT PUSH2 0x9C JUMPI PUSH0 CALLDATALOAD PUSH1 0xE0 SHR DUP1 PUSH4 0xA7F93EBD GT PUSH2 0x64 JUMPI DUP1 PUSH4 0xA7F93EBD EQ PUSH2 0x132 JUMPI DUP1 PUSH4 0xB84C3B2A EQ PUSH2 0x150 JUMPI DUP1 PUSH4 0xB84C8246 EQ PUSH2 0x16E JUMPI DUP1 PUSH4 0xC47F0027 EQ PUSH2 0x18A JUMPI DUP1 PUSH4 0xF4A0A528 EQ PUSH2 0x1A6 JUMPI PUSH2 0x9C JUMP JUMPDEST DUP1 PUSH4 0x15070401 EQ PUSH2 0xA0 JUMPI DUP1 PUSH4 0x17D7DE7C EQ PUSH2 0xBE JUMPI DUP1 PUSH4 0x2CDA77A4 EQ PUSH2 0xDC JUMPI DUP1 PUSH4 0x4E16FC8B EQ PUSH2 0xF8 JUMPI DUP1 PUSH4 0x9B642DE1 EQ PUSH2 0x116 JUMPI JUMPDEST PUSH0 DUP1 REVERT JUMPDEST PUSH2 0xA8 PUSH2 0x1C2 JUMP JUMPDEST PUSH1 0x40 MLOAD PUSH2 0xB5 SWAP2 SWAP1 PUSH2 0x497 JUMP JUMPDEST PUSH1 0x40 MLOAD DUP1 SWAP2 SUB SWAP1 RETURN JUMPDEST PUSH2 0xC6 PUSH2 0x252 JUMP JUMPDEST PUSH1 0x40 MLOAD PUSH2 0xD3 SWAP2 SWAP1 PUSH2 0x497 JUMP JUMPDEST PUSH1 0x40 MLOAD DUP1 SWAP2 SUB SWAP1 RETURN JUMPDEST PUSH2 0xF6 PUSH1 0x4 DUP1 CALLDATASIZE SUB DUP2 ADD SWAP1 PUSH2 0xF1 SWAP2 SWAP1 PUSH2 0x522 JUMP JUMPDEST PUSH2 0x2E1 JUMP JUMPDEST STOP JUMPDEST PUSH2 0x100 PUSH2 0x324 JUMP JUMPDEST PUSH1 0x40 MLOAD PUSH2 0x10D SWAP2 SWAP1 PUSH2 0x497 JUMP JUMPDEST PUSH1 0x40 MLOAD DUP1 SWAP2 SUB SWAP1 RETURN JUMPDEST PUSH2 0x130 PUSH1 0x4 DUP1 CALLDATASIZE SUB DUP2 ADD SWAP1 PUSH2 0x12B SWAP2 SWAP1 PUSH2 0x679 JUMP JUMPDEST PUSH2 0x3B4 JUMP JUMPDEST STOP JUMPDEST PUSH2 0x13A PUSH2 0x3C7 JUMP JUMPDEST PUSH1 0x40 MLOAD PUSH2 0x147 SWAP2 SWAP1 PUSH2 0x6D8 JUMP JUMPDEST PUSH1 0x40 MLOAD DUP1 SWAP2 SUB SWAP1 RETURN JUMPDEST PUSH2 0x158 PUSH2 0x3D0 JUMP JUMPDEST PUSH1 0x40 MLOAD PUSH2 0x165 SWAP2 SWAP1 PUSH2 0x700 JUMP JUMPDEST PUSH1 0x40 MLOAD DUP1 SWAP2 SUB SWAP1 RETURN JUMPDEST PUSH2 0x188 PUSH1 0x4 DUP1 CALLDATASIZE SUB DUP2 ADD SWAP1 PUSH2 0x183 SWAP2 SWAP1 PUSH2 0x679 JUMP JUMPDEST PUSH2 0x3F8 JUMP JUMPDEST STOP JUMPDEST PUSH2 0x1A4 PUSH1 0x4 DUP1 CALLDATASIZE SUB DUP2 ADD SWAP1 PUSH2 0x19F SWAP2 SWAP1 PUSH2 0x679 JUMP JUMPDEST PUSH2 0x40B JUMP JUMPDEST STOP JUMPDEST PUSH2 0x1C0 PUSH1 0x4 DUP1 CALLDATASIZE SUB DUP2 ADD SWAP1 PUSH2 0x1BB SWAP2 SWAP1 PUSH2 0x743 JUMP JUMPDEST PUSH2 0x41D JUMP JUMPDEST STOP JUMPDEST PUSH1 0x60 PUSH1 0x1 DUP1 SLOAD PUSH2 0x1D1 SWAP1 PUSH2 0x79B JUMP JUMPDEST DUP1 PUSH1 0x1F ADD PUSH1 0x20 DUP1 SWAP2 DIV MUL PUSH1 0x20 ADD PUSH1 0x40 MLOAD SWAP1 DUP2 ADD PUSH1 0x40 MSTORE DUP1 SWAP3 SWAP2 SWAP1 DUP2 DUP2 MSTORE PUSH1 0x20 ADD DUP3 DUP1 SLOAD PUSH2 0x1FD SWAP1 PUSH2 0x79B JUMP JUMPDEST DUP1 ISZERO PUSH2 0x248 JUMPI DUP1 PUSH1 0x1F LT PUSH2 0x21F JUMPI PUSH2 0x100 DUP1 DUP4 SLOAD DIV MUL DUP4 MSTORE SWAP2 PUSH1 0x20 ADD SWAP2 PUSH2 0x248 JUMP JUMPDEST DUP3 ADD SWAP2 SWAP1 PUSH0 MSTORE PUSH1 0x20 PUSH0 KECCAK256 SWAP1 JUMPDEST DUP2 SLOAD DUP2 MSTORE SWAP1 PUSH1 0x1 ADD SWAP1 PUSH1 0x20 ADD DUP1 DUP4 GT PUSH2 0x22B JUMPI DUP3 SWAP1 SUB PUSH1 0x1F AND DUP3 ADD SWAP2 JUMPDEST POP POP POP POP POP SWAP1 POP SWAP1 JUMP JUMPDEST PUSH1 0x60 PUSH0 DUP1 SLOAD PUSH2 0x260 SWAP1 PUSH2 0x79B JUMP JUMPDEST DUP1 PUSH1 0x1F ADD PUSH1 0x20 DUP1 SWAP2 DIV MUL PUSH1 0x20 ADD PUSH1 0x40 MLOAD SWAP1 DUP2 ADD PUSH1 0x40 MSTORE DUP1 SWAP3 SWAP2 SWAP1 DUP2 DUP2 MSTORE PUSH1 0x20 ADD DUP3 DUP1 SLOAD PUSH2 0x28C SWAP1 PUSH2 0x79B JUMP JUMPDEST DUP1 ISZERO PUSH2 0x2D7 JUMPI DUP1 PUSH1 0x1F LT PUSH2 0x2AE JUMPI PUSH2 0x100 DUP1 DUP4 SLOAD DIV MUL DUP4 MSTORE SWAP2 PUSH1 0x20 ADD SWAP2 PUSH2 0x2D7 JUMP JUMPDEST DUP3 ADD SWAP2 SWAP1 PUSH0 MSTORE PUSH1 0x20 PUSH0 KECCAK256 SWAP1 JUMPDEST DUP2 SLOAD DUP2 MSTORE SWAP1 PUSH1 0x1 ADD SWAP1 PUSH1 0x20 ADD DUP1 DUP4 GT PUSH2 0x2BA JUMPI DUP3 SWAP1 SUB PUSH1 0x1F AND DUP3 ADD SWAP2 JUMPDEST POP POP POP POP POP SWAP1 POP SWAP1 JUMP JUMPDEST DUP1 PUSH1 0x4 PUSH0 PUSH2 0x100 EXP DUP2 SLOAD DUP2 PUSH20 0xFFFFFFFFFFFFFFFFFFFFFFFFFFFFFFFFFFFFFFFF MUL NOT AND SWAP1 DUP4 PUSH20 0xFFFFFFFFFFFFFFFFFFFFFFFFFFFFFFFFFFFFFFFF AND MUL OR SWAP1 SSTORE POP POP JUMP JUMPDEST PUSH1 0x60 PUSH1 0x2 DUP1 SLOAD PUSH2 0x333 SWAP1 PUSH2 0x79B JUMP JUMPDEST DUP1 PUSH1 0x1F ADD PUSH1 0x20 DUP1 SWAP2 DIV MUL PUSH1 0x20 ADD PUSH1 0x40 MLOAD SWAP1 DUP2 ADD PUSH1 0x40 MSTORE DUP1 SWAP3 SWAP2 SWAP1 DUP2 DUP2 MSTORE PUSH1 0x20 ADD DUP3 DUP1 SLOAD PUSH2 0x35F SWAP1 PUSH2 0x79B JUMP JUMPDEST DUP1 ISZERO PUSH2 0x3AA JUMPI DUP1 PUSH1 0x1F LT PUSH2 0x381 JUMPI PUSH2 0x100 DUP1 DUP4 SLOAD DIV MUL DUP4 MSTORE SWAP2 PUSH1 0x20 ADD SWAP2 PUSH2 0x3AA JUMP JUMPDEST DUP3 ADD SWAP2 SWAP1 PUSH0 MSTORE PUSH1 0x20 PUSH0 KECCAK256 SWAP1 JUMPDEST DUP2 SLOAD DUP2 MSTORE SWAP1 PUSH1 0x1 ADD SWAP1 PUSH1 0x20 ADD DUP1 DUP4 GT PUSH2 0x38D JUMPI DUP3 SWAP1 SUB PUSH1 0x1F AND DUP3 ADD SWAP2 JUMPDEST POP POP POP POP POP SWAP1 POP SWAP1 JUMP JUMPDEST DUP1 PUSH1 0x2 SWAP1 DUP2 PUSH2 0x3C3 SWAP2 SWAP1 PUSH2 0x968 JUMP JUMPDEST POP POP JUMP JUMPDEST PUSH0 PUSH1 0x3 SLOAD SWAP1 POP SWAP1 JUMP JUMPDEST PUSH0 PUSH1 0x4 PUSH0 SWAP1 SLOAD SWAP1 PUSH2 0x100 EXP SWAP1 DIV PUSH20 0xFFFFFFFFFFFFFFFFFFFFFFFFFFFFFFFFFFFFFFFF AND SWAP1 POP SWAP1 JUMP JUMPDEST DUP1 PUSH1 0x1 SWAP1 DUP2 PUSH2 0x407 SWAP2 SWAP1 PUSH2 0x968 JUMP JUMPDEST POP POP JUMP JUMPDEST DUP1 PUSH0 SWAP1 DUP2 PUSH2 0x419 SWAP2 SWAP1 PUSH2 0x968 JUMP JUMPDEST POP POP JUMP JUMPDEST DUP1 PUSH1 0x3 DUP2 SWAP1 SSTORE POP POP JUMP JUMPDEST PUSH0 DUP2 MLOAD SWAP1 POP SWAP2 SWAP1 POP JUMP JUMPDEST PUSH0 DUP3 DUP3 MSTORE PUSH1 0x20 DUP3 ADD SWAP1 POP SWAP3 SWAP2 POP POP JUMP JUMPDEST DUP3 DUP2 DUP4 MCOPY PUSH0 DUP4 DUP4 ADD MSTORE POP POP POP JUMP JUMPDEST PUSH0 PUSH1 0x1F NOT PUSH1 0x1F DUP4 ADD AND SWAP1 POP SWAP2 SWAP1 POP JUMP JUMPDEST PUSH0 PUSH2 0x469 DUP3 PUSH2 0x427 JUMP JUMPDEST PUSH2 0x473 DUP2 DUP6 PUSH2 0x431 JUMP JUMPDEST SWAP4 POP PUSH2 0x483 DUP2 DUP6 PUSH1 0x20 DUP7 ADD PUSH2 0x441 JUMP JUMPDEST PUSH2 0x48C DUP2 PUSH2 0x44F JUMP JUMPDEST DUP5 ADD SWAP2 POP POP SWAP3 SWAP2 POP POP JUMP JUMPDEST PUSH0 PUSH1 0x20 DUP3 ADD SWAP1 POP DUP2 DUP2 SUB PUSH0 DUP4 ADD MSTORE PUSH2 0x4AF DUP2 DUP5 PUSH2 0x45F JUMP JUMPDEST SWAP1 POP SWAP3 SWAP2 POP POP JUMP JUMPDEST PUSH0 PUSH1 0x40 MLOAD SWAP1 POP SWAP1 JUMP JUMPDEST PUSH0 DUP1 REVERT JUMPDEST PUSH0 DUP1 REVERT JUMPDEST PUSH0 PUSH20 0xFFFFFFFFFFFFFFFFFFFFFFFFFFFFFFFFFFFFFFFF DUP3 AND SWAP1 POP SWAP2 SWAP1 POP JUMP JUMPDEST PUSH0 PUSH2 0x4F1 DUP3 PUSH2 0x4C8 JUMP JUMPDEST SWAP1 POP SWAP2 SWAP1 POP JUMP JUMPDEST PUSH2 0x501 DUP2 PUSH2 0x4E7 JUMP JUMPDEST DUP2 EQ PUSH2 0x50B JUMPI PUSH0 DUP1 REVERT JUMPDEST POP JUMP JUMPDEST PUSH0 DUP2 CALLDATALOAD SWAP1 POP PUSH2 0x51C DUP2 PUSH2 0x4F8 JUMP JUMPDEST SWAP3 SWAP2 POP POP JUMP JUMPDEST PUSH0 PUSH1 0x20 DUP3 DUP5 SUB SLT ISZERO PUSH2 0x537 JUMPI PUSH2 0x536 PUSH2 0x4C0 JUMP JUMPDEST JUMPDEST PUSH0 PUSH2 0x544 DUP5 DUP3 DUP6 ADD PUSH2 0x50E JUMP JUMPDEST SWAP2 POP POP SWAP3 SWAP2 POP POP JUMP JUMPDEST PUSH0 DUP1 REVERT JUMPDEST PUSH0 DUP1 REVERT JUMPDEST PUSH32 0x4E487B7100000000000000000000000000000000000000000000000000000000 PUSH0 MSTORE PUSH1 0x41 PUSH1 0x4 MSTORE PUSH1 0x24 PUSH0 REVERT JUMPDEST PUSH2 0x58B DUP3 PUSH2 0x44F JUMP JUMPDEST DUP2 ADD DUP2 DUP2 LT PUSH8 0xFFFFFFFFFFFFFFFF DUP3 GT OR ISZERO PUSH2 0x5AA JUMPI PUSH2 0x5A9 PUSH2 0x555 JUMP JUMPDEST JUMPDEST DUP1 PUSH1 0x40 MSTORE POP POP POP JUMP JUMPDEST PUSH0 PUSH2 0x5BC PUSH2 0x4B7 JUMP JUMPDEST SWAP1 POP PUSH2 0x5C8 DUP3 DUP3 PUSH2 0x582 JUMP JUMPDEST SWAP2 SWAP1 POP JUMP JUMPDEST PUSH0 PUSH8 0xFFFFFFFFFFFFFFFF DUP3 GT ISZERO PUSH2 0x5E7 JUMPI PUSH2 0x5E6 PUSH2 0x555 JUMP JUMPDEST JUMPDEST PUSH2 0x5F0 DUP3 PUSH2 0x44F JUMP JUMPDEST SWAP1 POP PUSH1 0x20 DUP2 ADD SWAP1 POP SWAP2 SWAP1 POP JUMP JUMPDEST DUP3 DUP2 DUP4 CALLDATACOPY PUSH0 DUP4 DUP4 ADD MSTORE POP POP POP JUMP JUMPDEST PUSH0 PUSH2 0x61D PUSH2 0x618 DUP5 PUSH2 0x5CD JUMP JUMPDEST PUSH2 0x5B3 JUMP JUMPDEST SWAP1 POP DUP3 DUP2 MSTORE PUSH1 0x20 DUP2 ADD DUP5 DUP5 DUP5 ADD GT ISZERO PUSH2 0x639 JUMPI PUSH2 0x638 PUSH2 0x551 JUMP JUMPDEST JUMPDEST PUSH2 0x644 DUP5 DUP3 DUP6 PUSH2 0x5FD JUMP JUMPDEST POP SWAP4 SWAP3 POP POP POP JUMP JUMPDEST PUSH0 DUP3 PUSH1 0x1F DUP4 ADD SLT PUSH2 0x660 JUMPI PUSH2 0x65F PUSH2 0x54D JUMP JUMPDEST JUMPDEST DUP2 CALLDATALOAD PUSH2 0x670 DUP5 DUP3 PUSH1 0x20 DUP7 ADD PUSH2 0x60B JUMP JUMPDEST SWAP2 POP POP SWAP3 SWAP2 POP POP JUMP JUMPDEST PUSH0 PUSH1 0x20 DUP3 DUP5 SUB SLT ISZERO PUSH2 0x68E JUMPI PUSH2 0x68D PUSH2 0x4C0 JUMP JUMPDEST JUMPDEST PUSH0 DUP3 ADD CALLDATALOAD PUSH8 0xFFFFFFFFFFFFFFFF DUP2 GT ISZERO PUSH2 0x6AB JUMPI PUSH2 0x6AA PUSH2 0x4C4 JUMP JUMPDEST JUMPDEST PUSH2 0x6B7 DUP5 DUP3 DUP6 ADD PUSH2 0x64C JUMP JUMPDEST SWAP2 POP POP SWAP3 SWAP2 POP POP JUMP JUMPDEST PUSH0 DUP2 SWAP1 POP SWAP2 SWAP1 POP JUMP JUMPDEST PUSH2 0x6D2 DUP2 PUSH2 0x6C0 JUMP JUMPDEST DUP3 MSTORE POP POP JUMP JUMPDEST PUSH0 PUSH1 0x20 DUP3 ADD SWAP1 POP PUSH2 0x6EB PUSH0 DUP4 ADD DUP5 PUSH2 0x6C9 JUMP JUMPDEST SWAP3 SWAP2 POP POP JUMP JUMPDEST PUSH2 0x6FA DUP2 PUSH2 0x4E7 JUMP JUMPDEST DUP3 MSTORE POP POP JUMP JUMPDEST PUSH0 PUSH1 0x20 DUP3 ADD SWAP1 POP PUSH2 0x713 PUSH0 DUP4 ADD DUP5 PUSH2 0x6F1 JUMP JUMPDEST SWAP3 SWAP2 POP POP JUMP JUMPDEST PUSH2 0x722 DUP2 PUSH2 0x6C0 JUMP JUMPDEST DUP2 EQ PUSH2 0x72C JUMPI PUSH0 DUP1 REVERT JUMPDEST POP JUMP JUMPDEST PUSH0 DUP2 CALLDATALOAD SWAP1 POP PUSH2 0x73D DUP2 PUSH2 0x719 JUMP JUMPDEST SWAP3 SWAP2 POP POP JUMP JUMPDEST PUSH0 PUSH1 0x20 DUP3 DUP5 SUB SLT ISZERO PUSH2 0x758 JUMPI PUSH2 0x757 PUSH2 0x4C0 JUMP JUMPDEST JUMPDEST PUSH0 PUSH2 0x765 DUP5 DUP3 DUP6 ADD PUSH2 0x72F JUMP JUMPDEST SWAP2 POP POP SWAP3 SWAP2 POP POP JUMP JUMPDEST PUSH32 0x4E487B7100000000000000000000000000000000000000000000000000000000 PUSH0 MSTORE PUSH1 0x22 PUSH1 0x4 MSTORE PUSH1 0x24 PUSH0 REVERT JUMPDEST PUSH0 PUSH1 0x2 DUP3 DIV SWAP1 POP PUSH1 0x1 DUP3 AND DUP1 PUSH2 0x7B2 JUMPI PUSH1 0x7F DUP3 AND SWAP2 POP JUMPDEST PUSH1 0x20 DUP3 LT DUP2 SUB PUSH2 0x7C5 JUMPI PUSH2 0x7C4 PUSH2 0x76E JUMP JUMPDEST JUMPDEST POP SWAP2 SWAP1 POP JUMP JUMPDEST PUSH0 DUP2 SWAP1 POP DUP2 PUSH0 MSTORE PUSH1 0x20 PUSH0 KECCAK256 SWAP1 POP SWAP2 SWAP1 POP JUMP JUMPDEST PUSH0 PUSH1 0x20 PUSH1 0x1F DUP4 ADD DIV SWAP1 POP SWAP2 SWAP1 POP JUMP JUMPDEST PUSH0 DUP3 DUP3 SHL SWAP1 POP SWAP3 SWAP2 POP POP JUMP JUMPDEST PUSH0 PUSH1 0x8 DUP4 MUL PUSH2 0x827 PUSH32 0xFFFFFFFFFFFFFFFFFFFFFFFFFFFFFFFFFFFFFFFFFFFFFFFFFFFFFFFFFFFFFFFF DUP3 PUSH2 0x7EC JUMP JUMPDEST PUSH2 0x831 DUP7 DUP4 PUSH2 0x7EC JUMP JUMPDEST SWAP6 POP DUP1 NOT DUP5 AND SWAP4 POP DUP1 DUP7 AND DUP5 OR SWAP3 POP POP POP SWAP4 SWAP3 POP POP POP JUMP JUMPDEST PUSH0 DUP2 SWAP1 POP SWAP2 SWAP1 POP JUMP JUMPDEST PUSH0 PUSH2 0x86C PUSH2 0x867 PUSH2 0x862 DUP5 PUSH2 0x6C0 JUMP JUMPDEST PUSH2 0x849 JUMP JUMPDEST PUSH2 0x6C0 JUMP JUMPDEST SWAP1 POP SWAP2 SWAP1 POP JUMP JUMPDEST PUSH0 DUP2 SWAP1 POP SWAP2 SWAP1 POP JUMP JUMPDEST PUSH2 0x885 DUP4 PUSH2 0x852 JUMP JUMPDEST PUSH2 0x899 PUSH2 0x891 DUP3 PUSH2 0x873 JUMP JUMPDEST DUP5 DUP5 SLOAD PUSH2 0x7F8 JUMP JUMPDEST DUP3 SSTORE POP POP POP POP JUMP JUMPDEST PUSH0 SWAP1 JUMP JUMPDEST PUSH2 0x8AD PUSH2 0x8A1 JUMP JUMPDEST PUSH2 0x8B8 DUP2 DUP5 DUP5 PUSH2 0x87C JUMP JUMPDEST POP POP POP JUMP JUMPDEST JUMPDEST DUP2 DUP2 LT ISZERO PUSH2 0x8DB JUMPI PUSH2 0x8D0 PUSH0 DUP3 PUSH2 0x8A5 JUMP JUMPDEST PUSH1 0x1 DUP2 ADD SWAP1 POP PUSH2 0x8BE JUMP JUMPDEST POP POP JUMP JUMPDEST PUSH1 0x1F DUP3 GT ISZERO PUSH2 0x920 JUMPI PUSH2 0x8F1 DUP2 PUSH2 0x7CB JUMP JUMPDEST PUSH2 0x8FA DUP5 PUSH2 0x7DD JUMP JUMPDEST DUP2 ADD PUSH1 0x20 DUP6 LT ISZERO PUSH2 0x909 JUMPI DUP2 SWAP1 POP JUMPDEST PUSH2 0x91D PUSH2 0x915 DUP6 PUSH2 0x7DD JUMP JUMPDEST DUP4 ADD DUP3 PUSH2 0x8BD JUMP JUMPDEST POP POP JUMPDEST POP POP POP JUMP JUMPDEST PUSH0 DUP3 DUP3 SHR SWAP1 POP SWAP3 SWAP2 POP POP JUMP JUMPDEST PUSH0 PUSH2 0x940 PUSH0 NOT DUP5 PUSH1 0x8 MUL PUSH2 0x925 JUMP JUMPDEST NOT DUP1 DUP4 AND SWAP2 POP POP SWAP3 SWAP2 POP POP JUMP JUMPDEST PUSH0 PUSH2 0x958 DUP4 DUP4 PUSH2 0x931 JUMP JUMPDEST SWAP2 POP DUP3 PUSH1 0x2 MUL DUP3 OR SWAP1 POP SWAP3 SWAP2 POP POP JUMP JUMPDEST PUSH2 0x971 DUP3 PUSH2 0x427 JUMP JUMPDEST PUSH8 0xFFFFFFFFFFFFFFFF DUP2 GT ISZERO PUSH2 0x98A JUMPI PUSH2 0x989 PUSH2 0x555 JUMP JUMPDEST JUMPDEST PUSH2 0x994 DUP3 SLOAD PUSH2 0x79B JUMP JUMPDEST PUSH2 0x99F DUP3 DUP3 DUP6 PUSH2 0x8DF JUMP JUMPDEST PUSH0 PUSH1 0x20 SWAP1 POP PUSH1 0x1F DUP4 GT PUSH1 0x1 DUP2 EQ PUSH2 0x9D0 JUMPI PUSH0 DUP5 ISZERO PUSH2 0x9BE JUMPI DUP3 DUP8 ADD MLOAD SWAP1 POP JUMPDEST PUSH2 0x9C8 DUP6 DUP3 PUSH2 0x94D JUMP JUMPDEST DUP7 SSTORE POP PUSH2 0xA2F JUMP JUMPDEST PUSH1 0x1F NOT DUP5 AND PUSH2 0x9DE DUP7 PUSH2 0x7CB JUMP JUMPDEST PUSH0 JUMPDEST DUP3 DUP2 LT ISZERO PUSH2 0xA05 JUMPI DUP5 DUP10 ADD MLOAD DUP3 SSTORE PUSH1 0x1 DUP3 ADD SWAP2 POP PUSH1 0x20 DUP6 ADD SWAP5 POP PUSH1 0x20 DUP2 ADD SWAP1 POP PUSH2 0x9E0 JUMP JUMPDEST DUP7 DUP4 LT ISZERO PUSH2 0xA22 JUMPI DUP5 DUP10 ADD MLOAD PUSH2 0xA1E PUSH1 0x1F DUP10 AND DUP3 PUSH2 0x931 JUMP JUMPDEST DUP4 SSTORE POP JUMPDEST PUSH1 0x1 PUSH1 0x2 DUP9 MUL ADD DUP9 SSTORE POP POP POP JUMPDEST POP POP POP POP POP POP JUMP INVALID LOG2 PUSH5 0x6970667358 0x22 SLT KECCAK256 DIV 0xEC 0x26 SWAP10 CALLCODE 0xBE SSTORE COINBASE CODESIZE 0xD9 LOG1 ADD REVERT 0x4D PUSH5 0x1F15DA4015 PUSH6 0x1881D2CED484 CALLDATASIZE BYTE PUSH25 0x9A6A64736F6C634300081A0033000000000000000000000000 "
		},
		"gasEstimates": {
			"creation": {
				"codeDepositCost": "533800",
				"executionCost": "infinite",
				"totalCost": "infinite"
			},
			"external": {
				"getMintPrice()": "2432",
				"getName()": "infinite",
				"getPayAddress()": "2537",
				"getSymbol()": "infinite",
				"getUri()": "infinite",
				"setMintPrice(uint256)": "22603",
				"setName(string)": "infinite",
				"setPayAddress(address)": "24760",
				"setSymbol(string)": "infinite",
				"setUri(string)": "infinite"
			}
		},
		"methodIdentifiers": {
			"getMintPrice()": "a7f93ebd",
			"getName()": "17d7de7c",
			"getPayAddress()": "b84c3b2a",
			"getSymbol()": "15070401",
			"getUri()": "4e16fc8b",
			"setMintPrice(uint256)": "f4a0a528",
			"setName(string)": "c47f0027",
			"setPayAddress(address)": "2cda77a4",
			"setSymbol(string)": "b84c8246",
			"setUri(string)": "9b642de1"
		}
	},
	"abi": [
		{
			"inputs": [
				{
					"internalType": "string",
					"name": "_name",
					"type": "string"
				},
				{
					"internalType": "string",
					"name": "_symbol",
					"type": "string"
				},
				{
					"internalType": "string",
					"name": "_uri",
					"type": "string"
				},
				{
					"internalType": "uint256",
					"name": "_price",
					"type": "uint256"
				},
				{
					"internalType": "address",
					"name": "_payAddress",
					"type": "address"
				}
			],
			"stateMutability": "nonpayable",
			"type": "constructor"
		},
		{
			"inputs": [],
			"name": "getMintPrice",
			"outputs": [
				{
					"internalType": "uint256",
					"name": "",
					"type": "uint256"
				}
			],
			"stateMutability": "view",
			"type": "function"
		},
		{
			"inputs": [],
			"name": "getName",
			"outputs": [
				{
					"internalType": "string",
					"name": "",
					"type": "string"
				}
			],
			"stateMutability": "view",
			"type": "function"
		},
		{
			"inputs": [],
			"name": "getPayAddress",
			"outputs": [
				{
					"internalType": "address",
					"name": "",
					"type": "address"
				}
			],
			"stateMutability": "view",
			"type": "function"
		},
		{
			"inputs": [],
			"name": "getSymbol",
			"outputs": [
				{
					"internalType": "string",
					"name": "",
					"type": "string"
				}
			],
			"stateMutability": "view",
			"type": "function"
		},
		{
			"inputs": [],
			"name": "getUri",
			"outputs": [
				{
					"internalType": "string",
					"name": "",
					"type": "string"
				}
			],
			"stateMutability": "view",
			"type": "function"
		},
		{
			"inputs": [
				{
					"internalType": "uint256",
					"name": "_price",
					"type": "uint256"
				}
			],
			"name": "setMintPrice",
			"outputs": [],
			"stateMutability": "nonpayable",
			"type": "function"
		},
		{
			"inputs": [
				{
					"internalType": "string",
					"name": "_name",
					"type": "string"
				}
			],
			"name": "setName",
			"outputs": [],
			"stateMutability": "nonpayable",
			"type": "function"
		},
		{
			"inputs": [
				{
					"internalType": "address",
					"name": "_payAddress",
					"type": "address"
				}
			],
			"name": "setPayAddress",
			"outputs": [],
			"stateMutability": "nonpayable",
			"type": "function"
		},
		{
			"inputs": [
				{
					"internalType": "string",
					"name": "_symbol",
					"type": "string"
				}
			],
			"name": "setSymbol",
			"outputs": [],
			"stateMutability": "nonpayable",
			"type": "function"
		},
		{
			"inputs": [
				{
					"internalType": "string",
					"name": "_uri",
					"type": "string"
				}
			],
			"name": "setUri",
			"outputs": [],
			"stateMutability": "nonpayable",
			"type": "function"
		}
	]
}