{
	"contracts/coct/coctNftFactory.sol": {
		"CoctNftFactory": {
			"abi": [
				{
					"inputs": [],
					"stateMutability": "nonpayable",
					"type": "constructor"
				},
				{
					"inputs": [
						{
							"internalType": "string",
							"name": "_name",
							"type": "string"
						},
						{
							"internalType": "string",
							"name": "_symbol",
							"type": "string"
						},
						{
							"internalType": "string",
							"name": "_uri",
							"type": "string"
						},
						{
							"internalType": "uint256",
							"name": "_price",
							"type": "uint256"
						},
						{
							"internalType": "address",
							"name": "_payAddress",
							"type": "address"
						}
					],
					"name": "deployNft",
					"outputs": [],
					"stateMutability": "nonpayable",
					"type": "function"
				},
				{
					"inputs": [],
					"name": "getAddress",
					"outputs": [
						{
							"internalType": "address",
							"name": "",
							"type": "address"
						}
					],
					"stateMutability": "view",
					"type": "function"
				},
				{
					"inputs": [
						{
							"internalType": "address",
							"name": "_nftAddress",
							"type": "address"
						}
					],
					"name": "getMintPrice",
					"outputs": [
						{
							"internalType": "uint256",
							"name": "",
							"type": "uint256"
						}
					],
					"stateMutability": "view",
					"type": "function"
				},
				{
					"inputs": [],
					"name": "getNftAddressList",
					"outputs": [
						{
							"internalType": "address[]",
							"name": "",
							"type": "address[]"
						}
					],
					"stateMutability": "view",
					"type": "function"
				},
				{
					"inputs": [
						{
							"internalType": "address",
							"name": "_nftAddress",
							"type": "address"
						}
					],
					"name": "getNftName",
					"outputs": [
						{
							"internalType": "string",
							"name": "",
							"type": "string"
						}
					],
					"stateMutability": "view",
					"type": "function"
				},
				{
					"inputs": [],
					"name": "getOwnerBalance",
					"outputs": [
						{
							"internalType": "uint256",
							"name": "",
							"type": "uint256"
						}
					],
					"stateMutability": "view",
					"type": "function"
				},
				{
					"inputs": [
						{
							"internalType": "address",
							"name": "_nftAddress",
							"type": "address"
						},
						{
							"internalType": "uint256",
							"name": "_price",
							"type": "uint256"
						}
					],
					"name": "setMintPrice",
					"outputs": [],
					"stateMutability": "nonpayable",
					"type": "function"
				}
			],
			"devdoc": {
				"kind": "dev",
				"methods": {},
				"version": 1
			},
			"evm": {
				"assembly": "    /* \"contracts/coct/coctNftFactory.sol\":103:1699  contract CoctNftFactory{... */\n  mstore(0x40, 0x80)\n    /* \"contracts/coct/coctNftFactory.sol\":312:362  constructor(){... */\n  callvalue\n  dup1\n  iszero\n  tag_1\n  jumpi\n  0x00\n  dup1\n  revert\ntag_1:\n  pop\n    /* \"contracts/coct/coctNftFactory.sol\":344:354  msg.sender */\n  caller\n    /* \"contracts/coct/coctNftFactory.sol\":336:341  owner */\n  0x00\n  dup1\n    /* \"contracts/coct/coctNftFactory.sol\":336:354  owner = msg.sender */\n  0x0100\n  exp\n  dup2\n  sload\n  dup2\n  0xffffffffffffffffffffffffffffffffffffffff\n  mul\n  not\n  and\n  swap1\n  dup4\n  0xffffffffffffffffffffffffffffffffffffffff\n  and\n  mul\n  or\n  swap1\n  sstore\n  pop\n    /* \"contracts/coct/coctNftFactory.sol\":103:1699  contract CoctNftFactory{... */\n  dataSize(sub_0)\n  dup1\n  dataOffset(sub_0)\n  0x00\n  codecopy\n  0x00\n  return\nstop\n\nsub_0: assembly {\n        /* \"contracts/coct/coctNftFactory.sol\":103:1699  contract CoctNftFactory{... */\n      mstore(0x40, 0x80)\n      callvalue\n      dup1\n      iszero\n      tag_1\n      jumpi\n      0x00\n      dup1\n      revert\n    tag_1:\n      pop\n      jumpi(tag_2, lt(calldatasize, 0x04))\n      shr(0xe0, calldataload(0x00))\n      dup1\n      0x5d1430b7\n      gt\n      tag_10\n      jumpi\n      dup1\n      0x5d1430b7\n      eq\n      tag_6\n      jumpi\n      dup1\n      0x6a1f5339\n      eq\n      tag_7\n      jumpi\n      dup1\n      0x719d0f2b\n      eq\n      tag_8\n      jumpi\n      dup1\n      0xfd99734a\n      eq\n      tag_9\n      jumpi\n      jump(tag_2)\n    tag_10:\n      dup1\n      0x38cc4831\n      eq\n      tag_3\n      jumpi\n      dup1\n      0x540b42e9\n      eq\n      tag_4\n      jumpi\n      dup1\n      0x590791f2\n      eq\n      tag_5\n      jumpi\n    tag_2:\n      0x00\n      dup1\n      revert\n        /* \"contracts/coct/coctNftFactory.sol\":390:481  function getAddress() public view returns (address) {... */\n    tag_3:\n      tag_11\n      tag_12\n      jump\t// in\n    tag_11:\n      mload(0x40)\n      tag_13\n      swap2\n      swap1\n      tag_14\n      jump\t// in\n    tag_13:\n      mload(0x40)\n      dup1\n      swap2\n      sub\n      swap1\n      return\n        /* \"contracts/coct/coctNftFactory.sol\":1218:1350  function getNftName(address _nftAddress) public view returns (string memory){... */\n    tag_4:\n      tag_15\n      0x04\n      dup1\n      calldatasize\n      sub\n      dup2\n      add\n      swap1\n      tag_16\n      swap2\n      swap1\n      tag_17\n      jump\t// in\n    tag_16:\n      tag_18\n      jump\t// in\n    tag_15:\n      mload(0x40)\n      tag_19\n      swap2\n      swap1\n      tag_20\n      jump\t// in\n    tag_19:\n      mload(0x40)\n      dup1\n      swap2\n      sub\n      swap1\n      return\n        /* \"contracts/coct/coctNftFactory.sol\":523:659  function getOwnerBalance() public view returns (uint) {... */\n    tag_5:\n      tag_21\n      tag_22\n      jump\t// in\n    tag_21:\n      mload(0x40)\n      tag_23\n      swap2\n      swap1\n      tag_24\n      jump\t// in\n    tag_23:\n      mload(0x40)\n      dup1\n      swap2\n      sub\n      swap1\n      return\n        /* \"contracts/coct/coctNftFactory.sol\":684:1056  function deployNft(string memory _name, string memory _symbol, string memory _uri, uint _price, address _payAddress) public {... */\n    tag_6:\n      tag_25\n      0x04\n      dup1\n      calldatasize\n      sub\n      dup2\n      add\n      swap1\n      tag_26\n      swap2\n      swap1\n      tag_27\n      jump\t// in\n    tag_26:\n      tag_28\n      jump\t// in\n    tag_25:\n      stop\n        /* \"contracts/coct/coctNftFactory.sol\":1087:1192  function getNftAddressList() public view returns (address[] memory){... */\n    tag_7:\n      tag_29\n      tag_30\n      jump\t// in\n    tag_29:\n      mload(0x40)\n      tag_31\n      swap2\n      swap1\n      tag_32\n      jump\t// in\n    tag_31:\n      mload(0x40)\n      dup1\n      swap2\n      sub\n      swap1\n      return\n        /* \"contracts/coct/coctNftFactory.sol\":1535:1694  function getMintPrice(address _nftAddress) public view returns (uint){... */\n    tag_8:\n      tag_33\n      0x04\n      dup1\n      calldatasize\n      sub\n      dup2\n      add\n      swap1\n      tag_34\n      swap2\n      swap1\n      tag_17\n      jump\t// in\n    tag_34:\n      tag_35\n      jump\t// in\n    tag_33:\n      mload(0x40)\n      tag_36\n      swap2\n      swap1\n      tag_24\n      jump\t// in\n    tag_36:\n      mload(0x40)\n      dup1\n      swap2\n      sub\n      swap1\n      return\n        /* \"contracts/coct/coctNftFactory.sol\":1384:1507  function setMintPrice(address _nftAddress, uint _price) public {... */\n    tag_9:\n      tag_37\n      0x04\n      dup1\n      calldatasize\n      sub\n      dup2\n      add\n      swap1\n      tag_38\n      swap2\n      swap1\n      tag_39\n      jump\t// in\n    tag_38:\n      tag_40\n      jump\t// in\n    tag_37:\n      stop\n        /* \"contracts/coct/coctNftFactory.sol\":390:481  function getAddress() public view returns (address) {... */\n    tag_12:\n        /* \"contracts/coct/coctNftFactory.sol\":433:440  address */\n      0x00\n        /* \"contracts/coct/coctNftFactory.sol\":468:472  this */\n      address\n        /* \"contracts/coct/coctNftFactory.sol\":453:473  return address(this) */\n      swap1\n      pop\n        /* \"contracts/coct/coctNftFactory.sol\":390:481  function getAddress() public view returns (address) {... */\n      swap1\n      jump\t// out\n        /* \"contracts/coct/coctNftFactory.sol\":1218:1350  function getNftName(address _nftAddress) public view returns (string memory){... */\n    tag_18:\n        /* \"contracts/coct/coctNftFactory.sol\":1280:1293  string memory */\n      0x60\n        /* \"contracts/coct/coctNftFactory.sol\":1320:1331  _nftAddress */\n      dup2\n        /* \"contracts/coct/coctNftFactory.sol\":1312:1340  CoctNft(_nftAddress).getName */\n      0xffffffffffffffffffffffffffffffffffffffff\n      and\n      0x17d7de7c\n        /* \"contracts/coct/coctNftFactory.sol\":1312:1342  CoctNft(_nftAddress).getName() */\n      mload(0x40)\n      dup2\n      0xffffffff\n      and\n      0xe0\n      shl\n      dup2\n      mstore\n      0x04\n      add\n      0x00\n      mload(0x40)\n      dup1\n      dup4\n      sub\n      dup2\n      dup7\n      gas\n      staticcall\n      iszero\n      dup1\n      iszero\n      tag_44\n      jumpi\n      returndatasize\n      0x00\n      dup1\n      returndatacopy\n      revert(0x00, returndatasize)\n    tag_44:\n      pop\n      pop\n      pop\n      pop\n      mload(0x40)\n      returndatasize\n      0x00\n      dup3\n      returndatacopy\n      returndatasize\n      not(0x1f)\n      0x1f\n      dup3\n      add\n      and\n      dup3\n      add\n      dup1\n      0x40\n      mstore\n      pop\n      dup2\n      add\n      swap1\n      tag_45\n      swap2\n      swap1\n      tag_46\n      jump\t// in\n    tag_45:\n        /* \"contracts/coct/coctNftFactory.sol\":1305:1342  return CoctNft(_nftAddress).getName() */\n      swap1\n      pop\n        /* \"contracts/coct/coctNftFactory.sol\":1218:1350  function getNftName(address _nftAddress) public view returns (string memory){... */\n      swap2\n      swap1\n      pop\n      jump\t// out\n        /* \"contracts/coct/coctNftFactory.sol\":523:659  function getOwnerBalance() public view returns (uint) {... */\n    tag_22:\n        /* \"contracts/coct/coctNftFactory.sol\":571:575  uint */\n      0x00\n        /* \"contracts/coct/coctNftFactory.sol\":588:605  uint ownerBalance */\n      dup1\n        /* \"contracts/coct/coctNftFactory.sol\":608:613  owner */\n      0x00\n      dup1\n      sload\n      swap1\n      0x0100\n      exp\n      swap1\n      div\n      0xffffffffffffffffffffffffffffffffffffffff\n      and\n        /* \"contracts/coct/coctNftFactory.sol\":608:621  owner.balance */\n      0xffffffffffffffffffffffffffffffffffffffff\n      and\n      balance\n        /* \"contracts/coct/coctNftFactory.sol\":588:621  uint ownerBalance = owner.balance */\n      swap1\n      pop\n        /* \"contracts/coct/coctNftFactory.sol\":639:651  ownerBalance */\n      dup1\n        /* \"contracts/coct/coctNftFactory.sol\":632:651  return ownerBalance */\n      swap2\n      pop\n      pop\n        /* \"contracts/coct/coctNftFactory.sol\":523:659  function getOwnerBalance() public view returns (uint) {... */\n      swap1\n      jump\t// out\n        /* \"contracts/coct/coctNftFactory.sol\":684:1056  function deployNft(string memory _name, string memory _symbol, string memory _uri, uint _price, address _payAddress) public {... */\n    tag_28:\n        /* \"contracts/coct/coctNftFactory.sol\":841:846  owner */\n      0x00\n      dup1\n      sload\n      swap1\n      0x0100\n      exp\n      swap1\n      div\n      0xffffffffffffffffffffffffffffffffffffffff\n      and\n        /* \"contracts/coct/coctNftFactory.sol\":827:846  msg.sender == owner */\n      0xffffffffffffffffffffffffffffffffffffffff\n      and\n        /* \"contracts/coct/coctNftFactory.sol\":827:837  msg.sender */\n      caller\n        /* \"contracts/coct/coctNftFactory.sol\":827:846  msg.sender == owner */\n      0xffffffffffffffffffffffffffffffffffffffff\n      and\n      eq\n        /* \"contracts/coct/coctNftFactory.sol\":819:867  require(msg.sender == owner, \"must be on owner\") */\n      tag_49\n      jumpi\n      mload(0x40)\n      0x08c379a000000000000000000000000000000000000000000000000000000000\n      dup2\n      mstore\n      0x04\n      add\n      tag_50\n      swap1\n      tag_51\n      jump\t// in\n    tag_50:\n      mload(0x40)\n      dup1\n      swap2\n      sub\n      swap1\n      revert\n    tag_49:\n        /* \"contracts/coct/coctNftFactory.sol\":878:896  address nftAddress */\n      0x00\n        /* \"contracts/coct/coctNftFactory.sol\":919:924  _name */\n      dup6\n        /* \"contracts/coct/coctNftFactory.sol\":926:933  _symbol */\n      dup6\n        /* \"contracts/coct/coctNftFactory.sol\":935:939  _uri */\n      dup6\n        /* \"contracts/coct/coctNftFactory.sol\":941:947  _price */\n      dup6\n        /* \"contracts/coct/coctNftFactory.sol\":949:960  _payAddress */\n      dup6\n        /* \"contracts/coct/coctNftFactory.sol\":907:961  new CoctNft(_name, _symbol, _uri, _price, _payAddress) */\n      mload(0x40)\n      tag_52\n      swap1\n      tag_53\n      jump\t// in\n    tag_52:\n      tag_54\n      swap6\n      swap5\n      swap4\n      swap3\n      swap2\n      swap1\n      tag_55\n      jump\t// in\n    tag_54:\n      mload(0x40)\n      dup1\n      swap2\n      sub\n      swap1\n      0x00\n      create\n      dup1\n      iszero\n      dup1\n      iszero\n      tag_56\n      jumpi\n      returndatasize\n      0x00\n      dup1\n      returndatacopy\n      revert(0x00, returndatasize)\n    tag_56:\n      pop\n        /* \"contracts/coct/coctNftFactory.sol\":878:962  address nftAddress = address(new CoctNft(_name, _symbol, _uri, _price, _payAddress)) */\n      swap1\n      pop\n        /* \"contracts/coct/coctNftFactory.sol\":1003:1008  _name */\n      dup6\n        /* \"contracts/coct/coctNftFactory.sol\":973:988  nftContractsMap */\n      0x02\n        /* \"contracts/coct/coctNftFactory.sol\":973:1000  nftContractsMap[nftAddress] */\n      0x00\n        /* \"contracts/coct/coctNftFactory.sol\":989:999  nftAddress */\n      dup4\n        /* \"contracts/coct/coctNftFactory.sol\":973:1000  nftContractsMap[nftAddress] */\n      0xffffffffffffffffffffffffffffffffffffffff\n      and\n      0xffffffffffffffffffffffffffffffffffffffff\n      and\n      dup2\n      mstore\n      0x20\n      add\n      swap1\n      dup2\n      mstore\n      0x20\n      add\n      0x00\n      keccak256\n        /* \"contracts/coct/coctNftFactory.sol\":973:1008  nftContractsMap[nftAddress] = _name */\n      swap1\n      dup2\n      tag_57\n      swap2\n      swap1\n      tag_58\n      jump\t// in\n    tag_57:\n      pop\n        /* \"contracts/coct/coctNftFactory.sol\":1019:1031  nftContracts */\n      0x01\n        /* \"contracts/coct/coctNftFactory.sol\":1037:1047  nftAddress */\n      dup2\n        /* \"contracts/coct/coctNftFactory.sol\":1019:1048  nftContracts.push(nftAddress) */\n      swap1\n      dup1\n      0x01\n      dup2\n      sload\n      add\n      dup1\n      dup3\n      sstore\n      dup1\n      swap2\n      pop\n      pop\n      0x01\n      swap1\n      sub\n      swap1\n      0x00\n      mstore\n      keccak256(0x00, 0x20)\n      add\n      0x00\n      swap1\n      swap2\n      swap1\n      swap2\n      swap1\n      swap2\n      0x0100\n      exp\n      dup2\n      sload\n      dup2\n      0xffffffffffffffffffffffffffffffffffffffff\n      mul\n      not\n      and\n      swap1\n      dup4\n      0xffffffffffffffffffffffffffffffffffffffff\n      and\n      mul\n      or\n      swap1\n      sstore\n      pop\n        /* \"contracts/coct/coctNftFactory.sol\":808:1056  {... */\n      pop\n        /* \"contracts/coct/coctNftFactory.sol\":684:1056  function deployNft(string memory _name, string memory _symbol, string memory _uri, uint _price, address _payAddress) public {... */\n      pop\n      pop\n      pop\n      pop\n      pop\n      jump\t// out\n        /* \"contracts/coct/coctNftFactory.sol\":1087:1192  function getNftAddressList() public view returns (address[] memory){... */\n    tag_30:\n        /* \"contracts/coct/coctNftFactory.sol\":1137:1153  address[] memory */\n      0x60\n        /* \"contracts/coct/coctNftFactory.sol\":1172:1184  nftContracts */\n      0x01\n        /* \"contracts/coct/coctNftFactory.sol\":1165:1184  return nftContracts */\n      dup1\n      sload\n      dup1\n      0x20\n      mul\n      0x20\n      add\n      mload(0x40)\n      swap1\n      dup2\n      add\n      0x40\n      mstore\n      dup1\n      swap3\n      swap2\n      swap1\n      dup2\n      dup2\n      mstore\n      0x20\n      add\n      dup3\n      dup1\n      sload\n      dup1\n      iszero\n      tag_61\n      jumpi\n      0x20\n      mul\n      dup3\n      add\n      swap2\n      swap1\n      0x00\n      mstore\n      keccak256(0x00, 0x20)\n      swap1\n    tag_62:\n      dup2\n      0x00\n      swap1\n      sload\n      swap1\n      0x0100\n      exp\n      swap1\n      div\n      0xffffffffffffffffffffffffffffffffffffffff\n      and\n      0xffffffffffffffffffffffffffffffffffffffff\n      and\n      dup2\n      mstore\n      0x20\n      add\n      swap1\n      0x01\n      add\n      swap1\n      dup1\n      dup4\n      gt\n      tag_62\n      jumpi\n    tag_61:\n      pop\n      pop\n      pop\n      pop\n      pop\n      swap1\n      pop\n        /* \"contracts/coct/coctNftFactory.sol\":1087:1192  function getNftAddressList() public view returns (address[] memory){... */\n      swap1\n      jump\t// out\n        /* \"contracts/coct/coctNftFactory.sol\":1535:1694  function getMintPrice(address _nftAddress) public view returns (uint){... */\n    tag_35:\n        /* \"contracts/coct/coctNftFactory.sol\":1599:1603  uint */\n      0x00\n        /* \"contracts/coct/coctNftFactory.sol\":1615:1625  uint price */\n      dup1\n        /* \"contracts/coct/coctNftFactory.sol\":1636:1647  _nftAddress */\n      dup3\n        /* \"contracts/coct/coctNftFactory.sol\":1628:1661  CoctNft(_nftAddress).getMintPrice */\n      0xffffffffffffffffffffffffffffffffffffffff\n      and\n      0xa7f93ebd\n        /* \"contracts/coct/coctNftFactory.sol\":1628:1663  CoctNft(_nftAddress).getMintPrice() */\n      mload(0x40)\n      dup2\n      0xffffffff\n      and\n      0xe0\n      shl\n      dup2\n      mstore\n      0x04\n      add\n      0x20\n      mload(0x40)\n      dup1\n      dup4\n      sub\n      dup2\n      dup7\n      gas\n      staticcall\n      iszero\n      dup1\n      iszero\n      tag_65\n      jumpi\n      returndatasize\n      0x00\n      dup1\n      returndatacopy\n      revert(0x00, returndatasize)\n    tag_65:\n      pop\n      pop\n      pop\n      pop\n      mload(0x40)\n      returndatasize\n      not(0x1f)\n      0x1f\n      dup3\n      add\n      and\n      dup3\n      add\n      dup1\n      0x40\n      mstore\n      pop\n      dup2\n      add\n      swap1\n      tag_66\n      swap2\n      swap1\n      tag_67\n      jump\t// in\n    tag_66:\n        /* \"contracts/coct/coctNftFactory.sol\":1615:1663  uint price = CoctNft(_nftAddress).getMintPrice() */\n      swap1\n      pop\n        /* \"contracts/coct/coctNftFactory.sol\":1681:1686  price */\n      dup1\n        /* \"contracts/coct/coctNftFactory.sol\":1674:1686  return price */\n      swap2\n      pop\n      pop\n        /* \"contracts/coct/coctNftFactory.sol\":1535:1694  function getMintPrice(address _nftAddress) public view returns (uint){... */\n      swap2\n      swap1\n      pop\n      jump\t// out\n        /* \"contracts/coct/coctNftFactory.sol\":1384:1507  function setMintPrice(address _nftAddress, uint _price) public {... */\n    tag_40:\n        /* \"contracts/coct/coctNftFactory.sol\":1466:1477  _nftAddress */\n      dup2\n        /* \"contracts/coct/coctNftFactory.sol\":1458:1491  CoctNft(_nftAddress).setMintPrice */\n      0xffffffffffffffffffffffffffffffffffffffff\n      and\n      0xf4a0a528\n        /* \"contracts/coct/coctNftFactory.sol\":1492:1498  _price */\n      dup3\n        /* \"contracts/coct/coctNftFactory.sol\":1458:1499  CoctNft(_nftAddress).setMintPrice(_price) */\n      mload(0x40)\n      dup3\n      0xffffffff\n      and\n      0xe0\n      shl\n      dup2\n      mstore\n      0x04\n      add\n      tag_69\n      swap2\n      swap1\n      tag_24\n      jump\t// in\n    tag_69:\n      0x00\n      mload(0x40)\n      dup1\n      dup4\n      sub\n      dup2\n      0x00\n      dup8\n      dup1\n      extcodesize\n      iszero\n      dup1\n      iszero\n      tag_70\n      jumpi\n      0x00\n      dup1\n      revert\n    tag_70:\n      pop\n      gas\n      call\n      iszero\n      dup1\n      iszero\n      tag_72\n      jumpi\n      returndatasize\n      0x00\n      dup1\n      returndatacopy\n      revert(0x00, returndatasize)\n    tag_72:\n      pop\n      pop\n      pop\n      pop\n        /* \"contracts/coct/coctNftFactory.sol\":1384:1507  function setMintPrice(address _nftAddress, uint _price) public {... */\n      pop\n      pop\n      jump\t// out\n    tag_53:\n      dataSize(sub_0)\n      dup1\n      dataOffset(sub_0)\n      dup4\n      codecopy\n      add\n      swap1\n      jump\t// out\n        /* \"#utility.yul\":7:133   */\n    tag_73:\n        /* \"#utility.yul\":44:51   */\n      0x00\n        /* \"#utility.yul\":84:126   */\n      0xffffffffffffffffffffffffffffffffffffffff\n        /* \"#utility.yul\":77:82   */\n      dup3\n        /* \"#utility.yul\":73:127   */\n      and\n        /* \"#utility.yul\":62:127   */\n      swap1\n      pop\n        /* \"#utility.yul\":7:133   */\n      swap2\n      swap1\n      pop\n      jump\t// out\n        /* \"#utility.yul\":139:235   */\n    tag_74:\n        /* \"#utility.yul\":176:183   */\n      0x00\n        /* \"#utility.yul\":205:229   */\n      tag_131\n        /* \"#utility.yul\":223:228   */\n      dup3\n        /* \"#utility.yul\":205:229   */\n      tag_73\n      jump\t// in\n    tag_131:\n        /* \"#utility.yul\":194:229   */\n      swap1\n      pop\n        /* \"#utility.yul\":139:235   */\n      swap2\n      swap1\n      pop\n      jump\t// out\n        /* \"#utility.yul\":241:359   */\n    tag_75:\n        /* \"#utility.yul\":328:352   */\n      tag_133\n        /* \"#utility.yul\":346:351   */\n      dup2\n        /* \"#utility.yul\":328:352   */\n      tag_74\n      jump\t// in\n    tag_133:\n        /* \"#utility.yul\":323:326   */\n      dup3\n        /* \"#utility.yul\":316:353   */\n      mstore\n        /* \"#utility.yul\":241:359   */\n      pop\n      pop\n      jump\t// out\n        /* \"#utility.yul\":365:587   */\n    tag_14:\n        /* \"#utility.yul\":458:462   */\n      0x00\n        /* \"#utility.yul\":496:498   */\n      0x20\n        /* \"#utility.yul\":485:494   */\n      dup3\n        /* \"#utility.yul\":481:499   */\n      add\n        /* \"#utility.yul\":473:499   */\n      swap1\n      pop\n        /* \"#utility.yul\":509:580   */\n      tag_135\n        /* \"#utility.yul\":577:578   */\n      0x00\n        /* \"#utility.yul\":566:575   */\n      dup4\n        /* \"#utility.yul\":562:579   */\n      add\n        /* \"#utility.yul\":553:559   */\n      dup5\n        /* \"#utility.yul\":509:580   */\n      tag_75\n      jump\t// in\n    tag_135:\n        /* \"#utility.yul\":365:587   */\n      swap3\n      swap2\n      pop\n      pop\n      jump\t// out\n        /* \"#utility.yul\":593:668   */\n    tag_76:\n        /* \"#utility.yul\":626:632   */\n      0x00\n        /* \"#utility.yul\":659:661   */\n      0x40\n        /* \"#utility.yul\":653:662   */\n      mload\n        /* \"#utility.yul\":643:662   */\n      swap1\n      pop\n        /* \"#utility.yul\":593:668   */\n      swap1\n      jump\t// out\n        /* \"#utility.yul\":674:791   */\n    tag_77:\n        /* \"#utility.yul\":783:784   */\n      0x00\n        /* \"#utility.yul\":780:781   */\n      dup1\n        /* \"#utility.yul\":773:785   */\n      revert\n        /* \"#utility.yul\":797:914   */\n    tag_78:\n        /* \"#utility.yul\":906:907   */\n      0x00\n        /* \"#utility.yul\":903:904   */\n      dup1\n        /* \"#utility.yul\":896:908   */\n      revert\n        /* \"#utility.yul\":920:1042   */\n    tag_79:\n        /* \"#utility.yul\":993:1017   */\n      tag_140\n        /* \"#utility.yul\":1011:1016   */\n      dup2\n        /* \"#utility.yul\":993:1017   */\n      tag_74\n      jump\t// in\n    tag_140:\n        /* \"#utility.yul\":986:991   */\n      dup2\n        /* \"#utility.yul\":983:1018   */\n      eq\n        /* \"#utility.yul\":973:1036   */\n      tag_141\n      jumpi\n        /* \"#utility.yul\":1032:1033   */\n      0x00\n        /* \"#utility.yul\":1029:1030   */\n      dup1\n        /* \"#utility.yul\":1022:1034   */\n      revert\n        /* \"#utility.yul\":973:1036   */\n    tag_141:\n        /* \"#utility.yul\":920:1042   */\n      pop\n      jump\t// out\n        /* \"#utility.yul\":1048:1187   */\n    tag_80:\n        /* \"#utility.yul\":1094:1099   */\n      0x00\n        /* \"#utility.yul\":1132:1138   */\n      dup2\n        /* \"#utility.yul\":1119:1139   */\n      calldataload\n        /* \"#utility.yul\":1110:1139   */\n      swap1\n      pop\n        /* \"#utility.yul\":1148:1181   */\n      tag_143\n        /* \"#utility.yul\":1175:1180   */\n      dup2\n        /* \"#utility.yul\":1148:1181   */\n      tag_79\n      jump\t// in\n    tag_143:\n        /* \"#utility.yul\":1048:1187   */\n      swap3\n      swap2\n      pop\n      pop\n      jump\t// out\n        /* \"#utility.yul\":1193:1522   */\n    tag_17:\n        /* \"#utility.yul\":1252:1258   */\n      0x00\n        /* \"#utility.yul\":1301:1303   */\n      0x20\n        /* \"#utility.yul\":1289:1298   */\n      dup3\n        /* \"#utility.yul\":1280:1287   */\n      dup5\n        /* \"#utility.yul\":1276:1299   */\n      sub\n        /* \"#utility.yul\":1272:1304   */\n      slt\n        /* \"#utility.yul\":1269:1388   */\n      iszero\n      tag_145\n      jumpi\n        /* \"#utility.yul\":1307:1386   */\n      tag_146\n      tag_77\n      jump\t// in\n    tag_146:\n        /* \"#utility.yul\":1269:1388   */\n    tag_145:\n        /* \"#utility.yul\":1427:1428   */\n      0x00\n        /* \"#utility.yul\":1452:1505   */\n      tag_147\n        /* \"#utility.yul\":1497:1504   */\n      dup5\n        /* \"#utility.yul\":1488:1494   */\n      dup3\n        /* \"#utility.yul\":1477:1486   */\n      dup6\n        /* \"#utility.yul\":1473:1495   */\n      add\n        /* \"#utility.yul\":1452:1505   */\n      tag_80\n      jump\t// in\n    tag_147:\n        /* \"#utility.yul\":1442:1505   */\n      swap2\n      pop\n        /* \"#utility.yul\":1398:1515   */\n      pop\n        /* \"#utility.yul\":1193:1522   */\n      swap3\n      swap2\n      pop\n      pop\n      jump\t// out\n        /* \"#utility.yul\":1528:1627   */\n    tag_81:\n        /* \"#utility.yul\":1580:1586   */\n      0x00\n        /* \"#utility.yul\":1614:1619   */\n      dup2\n        /* \"#utility.yul\":1608:1620   */\n      mload\n        /* \"#utility.yul\":1598:1620   */\n      swap1\n      pop\n        /* \"#utility.yul\":1528:1627   */\n      swap2\n      swap1\n      pop\n      jump\t// out\n        /* \"#utility.yul\":1633:1802   */\n    tag_82:\n        /* \"#utility.yul\":1717:1728   */\n      0x00\n        /* \"#utility.yul\":1751:1757   */\n      dup3\n        /* \"#utility.yul\":1746:1749   */\n      dup3\n        /* \"#utility.yul\":1739:1758   */\n      mstore\n        /* \"#utility.yul\":1791:1795   */\n      0x20\n        /* \"#utility.yul\":1786:1789   */\n      dup3\n        /* \"#utility.yul\":1782:1796   */\n      add\n        /* \"#utility.yul\":1767:1796   */\n      swap1\n      pop\n        /* \"#utility.yul\":1633:1802   */\n      swap3\n      swap2\n      pop\n      pop\n      jump\t// out\n        /* \"#utility.yul\":1808:1947   */\n    tag_83:\n        /* \"#utility.yul\":1897:1903   */\n      dup3\n        /* \"#utility.yul\":1892:1895   */\n      dup2\n        /* \"#utility.yul\":1887:1890   */\n      dup4\n        /* \"#utility.yul\":1881:1904   */\n      mcopy\n        /* \"#utility.yul\":1938:1939   */\n      0x00\n        /* \"#utility.yul\":1929:1935   */\n      dup4\n        /* \"#utility.yul\":1924:1927   */\n      dup4\n        /* \"#utility.yul\":1920:1936   */\n      add\n        /* \"#utility.yul\":1913:1940   */\n      mstore\n        /* \"#utility.yul\":1808:1947   */\n      pop\n      pop\n      pop\n      jump\t// out\n        /* \"#utility.yul\":1953:2055   */\n    tag_84:\n        /* \"#utility.yul\":1994:2000   */\n      0x00\n        /* \"#utility.yul\":2045:2047   */\n      0x1f\n        /* \"#utility.yul\":2041:2048   */\n      not\n        /* \"#utility.yul\":2036:2038   */\n      0x1f\n        /* \"#utility.yul\":2029:2034   */\n      dup4\n        /* \"#utility.yul\":2025:2039   */\n      add\n        /* \"#utility.yul\":2021:2049   */\n      and\n        /* \"#utility.yul\":2011:2049   */\n      swap1\n      pop\n        /* \"#utility.yul\":1953:2055   */\n      swap2\n      swap1\n      pop\n      jump\t// out\n        /* \"#utility.yul\":2061:2438   */\n    tag_85:\n        /* \"#utility.yul\":2149:2152   */\n      0x00\n        /* \"#utility.yul\":2177:2216   */\n      tag_153\n        /* \"#utility.yul\":2210:2215   */\n      dup3\n        /* \"#utility.yul\":2177:2216   */\n      tag_81\n      jump\t// in\n    tag_153:\n        /* \"#utility.yul\":2232:2303   */\n      tag_154\n        /* \"#utility.yul\":2296:2302   */\n      dup2\n        /* \"#utility.yul\":2291:2294   */\n      dup6\n        /* \"#utility.yul\":2232:2303   */\n      tag_82\n      jump\t// in\n    tag_154:\n        /* \"#utility.yul\":2225:2303   */\n      swap4\n      pop\n        /* \"#utility.yul\":2312:2377   */\n      tag_155\n        /* \"#utility.yul\":2370:2376   */\n      dup2\n        /* \"#utility.yul\":2365:2368   */\n      dup6\n        /* \"#utility.yul\":2358:2362   */\n      0x20\n        /* \"#utility.yul\":2351:2356   */\n      dup7\n        /* \"#utility.yul\":2347:2363   */\n      add\n        /* \"#utility.yul\":2312:2377   */\n      tag_83\n      jump\t// in\n    tag_155:\n        /* \"#utility.yul\":2402:2431   */\n      tag_156\n        /* \"#utility.yul\":2424:2430   */\n      dup2\n        /* \"#utility.yul\":2402:2431   */\n      tag_84\n      jump\t// in\n    tag_156:\n        /* \"#utility.yul\":2397:2400   */\n      dup5\n        /* \"#utility.yul\":2393:2432   */\n      add\n        /* \"#utility.yul\":2386:2432   */\n      swap2\n      pop\n        /* \"#utility.yul\":2153:2438   */\n      pop\n        /* \"#utility.yul\":2061:2438   */\n      swap3\n      swap2\n      pop\n      pop\n      jump\t// out\n        /* \"#utility.yul\":2444:2757   */\n    tag_20:\n        /* \"#utility.yul\":2557:2561   */\n      0x00\n        /* \"#utility.yul\":2595:2597   */\n      0x20\n        /* \"#utility.yul\":2584:2593   */\n      dup3\n        /* \"#utility.yul\":2580:2598   */\n      add\n        /* \"#utility.yul\":2572:2598   */\n      swap1\n      pop\n        /* \"#utility.yul\":2644:2653   */\n      dup2\n        /* \"#utility.yul\":2638:2642   */\n      dup2\n        /* \"#utility.yul\":2634:2654   */\n      sub\n        /* \"#utility.yul\":2630:2631   */\n      0x00\n        /* \"#utility.yul\":2619:2628   */\n      dup4\n        /* \"#utility.yul\":2615:2632   */\n      add\n        /* \"#utility.yul\":2608:2655   */\n      mstore\n        /* \"#utility.yul\":2672:2750   */\n      tag_158\n        /* \"#utility.yul\":2745:2749   */\n      dup2\n        /* \"#utility.yul\":2736:2742   */\n      dup5\n        /* \"#utility.yul\":2672:2750   */\n      tag_85\n      jump\t// in\n    tag_158:\n        /* \"#utility.yul\":2664:2750   */\n      swap1\n      pop\n        /* \"#utility.yul\":2444:2757   */\n      swap3\n      swap2\n      pop\n      pop\n      jump\t// out\n        /* \"#utility.yul\":2763:2840   */\n    tag_86:\n        /* \"#utility.yul\":2800:2807   */\n      0x00\n        /* \"#utility.yul\":2829:2834   */\n      dup2\n        /* \"#utility.yul\":2818:2834   */\n      swap1\n      pop\n        /* \"#utility.yul\":2763:2840   */\n      swap2\n      swap1\n      pop\n      jump\t// out\n        /* \"#utility.yul\":2846:2964   */\n    tag_87:\n        /* \"#utility.yul\":2933:2957   */\n      tag_161\n        /* \"#utility.yul\":2951:2956   */\n      dup2\n        /* \"#utility.yul\":2933:2957   */\n      tag_86\n      jump\t// in\n    tag_161:\n        /* \"#utility.yul\":2928:2931   */\n      dup3\n        /* \"#utility.yul\":2921:2958   */\n      mstore\n        /* \"#utility.yul\":2846:2964   */\n      pop\n      pop\n      jump\t// out\n        /* \"#utility.yul\":2970:3192   */\n    tag_24:\n        /* \"#utility.yul\":3063:3067   */\n      0x00\n        /* \"#utility.yul\":3101:3103   */\n      0x20\n        /* \"#utility.yul\":3090:3099   */\n      dup3\n        /* \"#utility.yul\":3086:3104   */\n      add\n        /* \"#utility.yul\":3078:3104   */\n      swap1\n      pop\n        /* \"#utility.yul\":3114:3185   */\n      tag_163\n        /* \"#utility.yul\":3182:3183   */\n      0x00\n        /* \"#utility.yul\":3171:3180   */\n      dup4\n        /* \"#utility.yul\":3167:3184   */\n      add\n        /* \"#utility.yul\":3158:3164   */\n      dup5\n        /* \"#utility.yul\":3114:3185   */\n      tag_87\n      jump\t// in\n    tag_163:\n        /* \"#utility.yul\":2970:3192   */\n      swap3\n      swap2\n      pop\n      pop\n      jump\t// out\n        /* \"#utility.yul\":3198:3315   */\n    tag_88:\n        /* \"#utility.yul\":3307:3308   */\n      0x00\n        /* \"#utility.yul\":3304:3305   */\n      dup1\n        /* \"#utility.yul\":3297:3309   */\n      revert\n        /* \"#utility.yul\":3321:3438   */\n    tag_89:\n        /* \"#utility.yul\":3430:3431   */\n      0x00\n        /* \"#utility.yul\":3427:3428   */\n      dup1\n        /* \"#utility.yul\":3420:3432   */\n      revert\n        /* \"#utility.yul\":3444:3624   */\n    tag_90:\n        /* \"#utility.yul\":3492:3569   */\n      0x4e487b7100000000000000000000000000000000000000000000000000000000\n        /* \"#utility.yul\":3489:3490   */\n      0x00\n        /* \"#utility.yul\":3482:3570   */\n      mstore\n        /* \"#utility.yul\":3589:3593   */\n      0x41\n        /* \"#utility.yul\":3586:3587   */\n      0x04\n        /* \"#utility.yul\":3579:3594   */\n      mstore\n        /* \"#utility.yul\":3613:3617   */\n      0x24\n        /* \"#utility.yul\":3610:3611   */\n      0x00\n        /* \"#utility.yul\":3603:3618   */\n      revert\n        /* \"#utility.yul\":3630:3911   */\n    tag_91:\n        /* \"#utility.yul\":3713:3740   */\n      tag_168\n        /* \"#utility.yul\":3735:3739   */\n      dup3\n        /* \"#utility.yul\":3713:3740   */\n      tag_84\n      jump\t// in\n    tag_168:\n        /* \"#utility.yul\":3705:3711   */\n      dup2\n        /* \"#utility.yul\":3701:3741   */\n      add\n        /* \"#utility.yul\":3843:3849   */\n      dup2\n        /* \"#utility.yul\":3831:3841   */\n      dup2\n        /* \"#utility.yul\":3828:3850   */\n      lt\n        /* \"#utility.yul\":3807:3825   */\n      0xffffffffffffffff\n        /* \"#utility.yul\":3795:3805   */\n      dup3\n        /* \"#utility.yul\":3792:3826   */\n      gt\n        /* \"#utility.yul\":3789:3851   */\n      or\n        /* \"#utility.yul\":3786:3874   */\n      iszero\n      tag_169\n      jumpi\n        /* \"#utility.yul\":3854:3872   */\n      tag_170\n      tag_90\n      jump\t// in\n    tag_170:\n        /* \"#utility.yul\":3786:3874   */\n    tag_169:\n        /* \"#utility.yul\":3894:3904   */\n      dup1\n        /* \"#utility.yul\":3890:3892   */\n      0x40\n        /* \"#utility.yul\":3883:3905   */\n      mstore\n        /* \"#utility.yul\":3673:3911   */\n      pop\n        /* \"#utility.yul\":3630:3911   */\n      pop\n      pop\n      jump\t// out\n        /* \"#utility.yul\":3917:4046   */\n    tag_92:\n        /* \"#utility.yul\":3951:3957   */\n      0x00\n        /* \"#utility.yul\":3978:3998   */\n      tag_172\n      tag_76\n      jump\t// in\n    tag_172:\n        /* \"#utility.yul\":3968:3998   */\n      swap1\n      pop\n        /* \"#utility.yul\":4007:4040   */\n      tag_173\n        /* \"#utility.yul\":4035:4039   */\n      dup3\n        /* \"#utility.yul\":4027:4033   */\n      dup3\n        /* \"#utility.yul\":4007:4040   */\n      tag_91\n      jump\t// in\n    tag_173:\n        /* \"#utility.yul\":3917:4046   */\n      swap2\n      swap1\n      pop\n      jump\t// out\n        /* \"#utility.yul\":4052:4360   */\n    tag_93:\n        /* \"#utility.yul\":4114:4118   */\n      0x00\n        /* \"#utility.yul\":4204:4222   */\n      0xffffffffffffffff\n        /* \"#utility.yul\":4196:4202   */\n      dup3\n        /* \"#utility.yul\":4193:4223   */\n      gt\n        /* \"#utility.yul\":4190:4246   */\n      iszero\n      tag_175\n      jumpi\n        /* \"#utility.yul\":4226:4244   */\n      tag_176\n      tag_90\n      jump\t// in\n    tag_176:\n        /* \"#utility.yul\":4190:4246   */\n    tag_175:\n        /* \"#utility.yul\":4264:4293   */\n      tag_177\n        /* \"#utility.yul\":4286:4292   */\n      dup3\n        /* \"#utility.yul\":4264:4293   */\n      tag_84\n      jump\t// in\n    tag_177:\n        /* \"#utility.yul\":4256:4293   */\n      swap1\n      pop\n        /* \"#utility.yul\":4348:4352   */\n      0x20\n        /* \"#utility.yul\":4342:4346   */\n      dup2\n        /* \"#utility.yul\":4338:4353   */\n      add\n        /* \"#utility.yul\":4330:4353   */\n      swap1\n      pop\n        /* \"#utility.yul\":4052:4360   */\n      swap2\n      swap1\n      pop\n      jump\t// out\n        /* \"#utility.yul\":4366:4514   */\n    tag_94:\n        /* \"#utility.yul\":4464:4470   */\n      dup3\n        /* \"#utility.yul\":4459:4462   */\n      dup2\n        /* \"#utility.yul\":4454:4457   */\n      dup4\n        /* \"#utility.yul\":4441:4471   */\n      calldatacopy\n        /* \"#utility.yul\":4505:4506   */\n      0x00\n        /* \"#utility.yul\":4496:4502   */\n      dup4\n        /* \"#utility.yul\":4491:4494   */\n      dup4\n        /* \"#utility.yul\":4487:4503   */\n      add\n        /* \"#utility.yul\":4480:4507   */\n      mstore\n        /* \"#utility.yul\":4366:4514   */\n      pop\n      pop\n      pop\n      jump\t// out\n        /* \"#utility.yul\":4520:4945   */\n    tag_95:\n        /* \"#utility.yul\":4598:4603   */\n      0x00\n        /* \"#utility.yul\":4623:4689   */\n      tag_180\n        /* \"#utility.yul\":4639:4688   */\n      tag_181\n        /* \"#utility.yul\":4681:4687   */\n      dup5\n        /* \"#utility.yul\":4639:4688   */\n      tag_93\n      jump\t// in\n    tag_181:\n        /* \"#utility.yul\":4623:4689   */\n      tag_92\n      jump\t// in\n    tag_180:\n        /* \"#utility.yul\":4614:4689   */\n      swap1\n      pop\n        /* \"#utility.yul\":4712:4718   */\n      dup3\n        /* \"#utility.yul\":4705:4710   */\n      dup2\n        /* \"#utility.yul\":4698:4719   */\n      mstore\n        /* \"#utility.yul\":4750:4754   */\n      0x20\n        /* \"#utility.yul\":4743:4748   */\n      dup2\n        /* \"#utility.yul\":4739:4755   */\n      add\n        /* \"#utility.yul\":4788:4791   */\n      dup5\n        /* \"#utility.yul\":4779:4785   */\n      dup5\n        /* \"#utility.yul\":4774:4777   */\n      dup5\n        /* \"#utility.yul\":4770:4786   */\n      add\n        /* \"#utility.yul\":4767:4792   */\n      gt\n        /* \"#utility.yul\":4764:4876   */\n      iszero\n      tag_182\n      jumpi\n        /* \"#utility.yul\":4795:4874   */\n      tag_183\n      tag_89\n      jump\t// in\n    tag_183:\n        /* \"#utility.yul\":4764:4876   */\n    tag_182:\n        /* \"#utility.yul\":4885:4939   */\n      tag_184\n        /* \"#utility.yul\":4932:4938   */\n      dup5\n        /* \"#utility.yul\":4927:4930   */\n      dup3\n        /* \"#utility.yul\":4922:4925   */\n      dup6\n        /* \"#utility.yul\":4885:4939   */\n      tag_94\n      jump\t// in\n    tag_184:\n        /* \"#utility.yul\":4604:4945   */\n      pop\n        /* \"#utility.yul\":4520:4945   */\n      swap4\n      swap3\n      pop\n      pop\n      pop\n      jump\t// out\n        /* \"#utility.yul\":4965:5305   */\n    tag_96:\n        /* \"#utility.yul\":5021:5026   */\n      0x00\n        /* \"#utility.yul\":5070:5073   */\n      dup3\n        /* \"#utility.yul\":5063:5067   */\n      0x1f\n        /* \"#utility.yul\":5055:5061   */\n      dup4\n        /* \"#utility.yul\":5051:5068   */\n      add\n        /* \"#utility.yul\":5047:5074   */\n      slt\n        /* \"#utility.yul\":5037:5159   */\n      tag_186\n      jumpi\n        /* \"#utility.yul\":5078:5157   */\n      tag_187\n      tag_88\n      jump\t// in\n    tag_187:\n        /* \"#utility.yul\":5037:5159   */\n    tag_186:\n        /* \"#utility.yul\":5195:5201   */\n      dup2\n        /* \"#utility.yul\":5182:5202   */\n      calldataload\n        /* \"#utility.yul\":5220:5299   */\n      tag_188\n        /* \"#utility.yul\":5295:5298   */\n      dup5\n        /* \"#utility.yul\":5287:5293   */\n      dup3\n        /* \"#utility.yul\":5280:5284   */\n      0x20\n        /* \"#utility.yul\":5272:5278   */\n      dup7\n        /* \"#utility.yul\":5268:5285   */\n      add\n        /* \"#utility.yul\":5220:5299   */\n      tag_95\n      jump\t// in\n    tag_188:\n        /* \"#utility.yul\":5211:5299   */\n      swap2\n      pop\n        /* \"#utility.yul\":5027:5305   */\n      pop\n        /* \"#utility.yul\":4965:5305   */\n      swap3\n      swap2\n      pop\n      pop\n      jump\t// out\n        /* \"#utility.yul\":5311:5433   */\n    tag_97:\n        /* \"#utility.yul\":5384:5408   */\n      tag_190\n        /* \"#utility.yul\":5402:5407   */\n      dup2\n        /* \"#utility.yul\":5384:5408   */\n      tag_86\n      jump\t// in\n    tag_190:\n        /* \"#utility.yul\":5377:5382   */\n      dup2\n        /* \"#utility.yul\":5374:5409   */\n      eq\n        /* \"#utility.yul\":5364:5427   */\n      tag_191\n      jumpi\n        /* \"#utility.yul\":5423:5424   */\n      0x00\n        /* \"#utility.yul\":5420:5421   */\n      dup1\n        /* \"#utility.yul\":5413:5425   */\n      revert\n        /* \"#utility.yul\":5364:5427   */\n    tag_191:\n        /* \"#utility.yul\":5311:5433   */\n      pop\n      jump\t// out\n        /* \"#utility.yul\":5439:5578   */\n    tag_98:\n        /* \"#utility.yul\":5485:5490   */\n      0x00\n        /* \"#utility.yul\":5523:5529   */\n      dup2\n        /* \"#utility.yul\":5510:5530   */\n      calldataload\n        /* \"#utility.yul\":5501:5530   */\n      swap1\n      pop\n        /* \"#utility.yul\":5539:5572   */\n      tag_193\n        /* \"#utility.yul\":5566:5571   */\n      dup2\n        /* \"#utility.yul\":5539:5572   */\n      tag_97\n      jump\t// in\n    tag_193:\n        /* \"#utility.yul\":5439:5578   */\n      swap3\n      swap2\n      pop\n      pop\n      jump\t// out\n        /* \"#utility.yul\":5584:7035   */\n    tag_27:\n        /* \"#utility.yul\":5709:5715   */\n      0x00\n        /* \"#utility.yul\":5717:5723   */\n      dup1\n        /* \"#utility.yul\":5725:5731   */\n      0x00\n        /* \"#utility.yul\":5733:5739   */\n      dup1\n        /* \"#utility.yul\":5741:5747   */\n      0x00\n        /* \"#utility.yul\":5790:5793   */\n      0xa0\n        /* \"#utility.yul\":5778:5787   */\n      dup7\n        /* \"#utility.yul\":5769:5776   */\n      dup9\n        /* \"#utility.yul\":5765:5788   */\n      sub\n        /* \"#utility.yul\":5761:5794   */\n      slt\n        /* \"#utility.yul\":5758:5878   */\n      iszero\n      tag_195\n      jumpi\n        /* \"#utility.yul\":5797:5876   */\n      tag_196\n      tag_77\n      jump\t// in\n    tag_196:\n        /* \"#utility.yul\":5758:5878   */\n    tag_195:\n        /* \"#utility.yul\":5945:5946   */\n      0x00\n        /* \"#utility.yul\":5934:5943   */\n      dup7\n        /* \"#utility.yul\":5930:5947   */\n      add\n        /* \"#utility.yul\":5917:5948   */\n      calldataload\n        /* \"#utility.yul\":5975:5993   */\n      0xffffffffffffffff\n        /* \"#utility.yul\":5967:5973   */\n      dup2\n        /* \"#utility.yul\":5964:5994   */\n      gt\n        /* \"#utility.yul\":5961:6078   */\n      iszero\n      tag_197\n      jumpi\n        /* \"#utility.yul\":5997:6076   */\n      tag_198\n      tag_78\n      jump\t// in\n    tag_198:\n        /* \"#utility.yul\":5961:6078   */\n    tag_197:\n        /* \"#utility.yul\":6102:6165   */\n      tag_199\n        /* \"#utility.yul\":6157:6164   */\n      dup9\n        /* \"#utility.yul\":6148:6154   */\n      dup3\n        /* \"#utility.yul\":6137:6146   */\n      dup10\n        /* \"#utility.yul\":6133:6155   */\n      add\n        /* \"#utility.yul\":6102:6165   */\n      tag_96\n      jump\t// in\n    tag_199:\n        /* \"#utility.yul\":6092:6165   */\n      swap6\n      pop\n        /* \"#utility.yul\":5888:6175   */\n      pop\n        /* \"#utility.yul\":6242:6244   */\n      0x20\n        /* \"#utility.yul\":6231:6240   */\n      dup7\n        /* \"#utility.yul\":6227:6245   */\n      add\n        /* \"#utility.yul\":6214:6246   */\n      calldataload\n        /* \"#utility.yul\":6273:6291   */\n      0xffffffffffffffff\n        /* \"#utility.yul\":6265:6271   */\n      dup2\n        /* \"#utility.yul\":6262:6292   */\n      gt\n        /* \"#utility.yul\":6259:6376   */\n      iszero\n      tag_200\n      jumpi\n        /* \"#utility.yul\":6295:6374   */\n      tag_201\n      tag_78\n      jump\t// in\n    tag_201:\n        /* \"#utility.yul\":6259:6376   */\n    tag_200:\n        /* \"#utility.yul\":6400:6463   */\n      tag_202\n        /* \"#utility.yul\":6455:6462   */\n      dup9\n        /* \"#utility.yul\":6446:6452   */\n      dup3\n        /* \"#utility.yul\":6435:6444   */\n      dup10\n        /* \"#utility.yul\":6431:6453   */\n      add\n        /* \"#utility.yul\":6400:6463   */\n      tag_96\n      jump\t// in\n    tag_202:\n        /* \"#utility.yul\":6390:6463   */\n      swap5\n      pop\n        /* \"#utility.yul\":6185:6473   */\n      pop\n        /* \"#utility.yul\":6540:6542   */\n      0x40\n        /* \"#utility.yul\":6529:6538   */\n      dup7\n        /* \"#utility.yul\":6525:6543   */\n      add\n        /* \"#utility.yul\":6512:6544   */\n      calldataload\n        /* \"#utility.yul\":6571:6589   */\n      0xffffffffffffffff\n        /* \"#utility.yul\":6563:6569   */\n      dup2\n        /* \"#utility.yul\":6560:6590   */\n      gt\n        /* \"#utility.yul\":6557:6674   */\n      iszero\n      tag_203\n      jumpi\n        /* \"#utility.yul\":6593:6672   */\n      tag_204\n      tag_78\n      jump\t// in\n    tag_204:\n        /* \"#utility.yul\":6557:6674   */\n    tag_203:\n        /* \"#utility.yul\":6698:6761   */\n      tag_205\n        /* \"#utility.yul\":6753:6760   */\n      dup9\n        /* \"#utility.yul\":6744:6750   */\n      dup3\n        /* \"#utility.yul\":6733:6742   */\n      dup10\n        /* \"#utility.yul\":6729:6751   */\n      add\n        /* \"#utility.yul\":6698:6761   */\n      tag_96\n      jump\t// in\n    tag_205:\n        /* \"#utility.yul\":6688:6761   */\n      swap4\n      pop\n        /* \"#utility.yul\":6483:6771   */\n      pop\n        /* \"#utility.yul\":6810:6812   */\n      0x60\n        /* \"#utility.yul\":6836:6889   */\n      tag_206\n        /* \"#utility.yul\":6881:6888   */\n      dup9\n        /* \"#utility.yul\":6872:6878   */\n      dup3\n        /* \"#utility.yul\":6861:6870   */\n      dup10\n        /* \"#utility.yul\":6857:6879   */\n      add\n        /* \"#utility.yul\":6836:6889   */\n      tag_98\n      jump\t// in\n    tag_206:\n        /* \"#utility.yul\":6826:6889   */\n      swap3\n      pop\n        /* \"#utility.yul\":6781:6899   */\n      pop\n        /* \"#utility.yul\":6938:6941   */\n      0x80\n        /* \"#utility.yul\":6965:7018   */\n      tag_207\n        /* \"#utility.yul\":7010:7017   */\n      dup9\n        /* \"#utility.yul\":7001:7007   */\n      dup3\n        /* \"#utility.yul\":6990:6999   */\n      dup10\n        /* \"#utility.yul\":6986:7008   */\n      add\n        /* \"#utility.yul\":6965:7018   */\n      tag_80\n      jump\t// in\n    tag_207:\n        /* \"#utility.yul\":6955:7018   */\n      swap2\n      pop\n        /* \"#utility.yul\":6909:7028   */\n      pop\n        /* \"#utility.yul\":5584:7035   */\n      swap3\n      swap6\n      pop\n      swap3\n      swap6\n      swap1\n      swap4\n      pop\n      jump\t// out\n        /* \"#utility.yul\":7041:7155   */\n    tag_99:\n        /* \"#utility.yul\":7108:7114   */\n      0x00\n        /* \"#utility.yul\":7142:7147   */\n      dup2\n        /* \"#utility.yul\":7136:7148   */\n      mload\n        /* \"#utility.yul\":7126:7148   */\n      swap1\n      pop\n        /* \"#utility.yul\":7041:7155   */\n      swap2\n      swap1\n      pop\n      jump\t// out\n        /* \"#utility.yul\":7161:7345   */\n    tag_100:\n        /* \"#utility.yul\":7260:7271   */\n      0x00\n        /* \"#utility.yul\":7294:7300   */\n      dup3\n        /* \"#utility.yul\":7289:7292   */\n      dup3\n        /* \"#utility.yul\":7282:7301   */\n      mstore\n        /* \"#utility.yul\":7334:7338   */\n      0x20\n        /* \"#utility.yul\":7329:7332   */\n      dup3\n        /* \"#utility.yul\":7325:7339   */\n      add\n        /* \"#utility.yul\":7310:7339   */\n      swap1\n      pop\n        /* \"#utility.yul\":7161:7345   */\n      swap3\n      swap2\n      pop\n      pop\n      jump\t// out\n        /* \"#utility.yul\":7351:7483   */\n    tag_101:\n        /* \"#utility.yul\":7418:7422   */\n      0x00\n        /* \"#utility.yul\":7441:7444   */\n      dup2\n        /* \"#utility.yul\":7433:7444   */\n      swap1\n      pop\n        /* \"#utility.yul\":7471:7475   */\n      0x20\n        /* \"#utility.yul\":7466:7469   */\n      dup3\n        /* \"#utility.yul\":7462:7476   */\n      add\n        /* \"#utility.yul\":7454:7476   */\n      swap1\n      pop\n        /* \"#utility.yul\":7351:7483   */\n      swap2\n      swap1\n      pop\n      jump\t// out\n        /* \"#utility.yul\":7489:7597   */\n    tag_102:\n        /* \"#utility.yul\":7566:7590   */\n      tag_212\n        /* \"#utility.yul\":7584:7589   */\n      dup2\n        /* \"#utility.yul\":7566:7590   */\n      tag_74\n      jump\t// in\n    tag_212:\n        /* \"#utility.yul\":7561:7564   */\n      dup3\n        /* \"#utility.yul\":7554:7591   */\n      mstore\n        /* \"#utility.yul\":7489:7597   */\n      pop\n      pop\n      jump\t// out\n        /* \"#utility.yul\":7603:7782   */\n    tag_103:\n        /* \"#utility.yul\":7672:7682   */\n      0x00\n        /* \"#utility.yul\":7693:7739   */\n      tag_214\n        /* \"#utility.yul\":7735:7738   */\n      dup4\n        /* \"#utility.yul\":7727:7733   */\n      dup4\n        /* \"#utility.yul\":7693:7739   */\n      tag_102\n      jump\t// in\n    tag_214:\n        /* \"#utility.yul\":7771:7775   */\n      0x20\n        /* \"#utility.yul\":7766:7769   */\n      dup4\n        /* \"#utility.yul\":7762:7776   */\n      add\n        /* \"#utility.yul\":7748:7776   */\n      swap1\n      pop\n        /* \"#utility.yul\":7603:7782   */\n      swap3\n      swap2\n      pop\n      pop\n      jump\t// out\n        /* \"#utility.yul\":7788:7901   */\n    tag_104:\n        /* \"#utility.yul\":7858:7862   */\n      0x00\n        /* \"#utility.yul\":7890:7894   */\n      0x20\n        /* \"#utility.yul\":7885:7888   */\n      dup3\n        /* \"#utility.yul\":7881:7895   */\n      add\n        /* \"#utility.yul\":7873:7895   */\n      swap1\n      pop\n        /* \"#utility.yul\":7788:7901   */\n      swap2\n      swap1\n      pop\n      jump\t// out\n        /* \"#utility.yul\":7937:8669   */\n    tag_105:\n        /* \"#utility.yul\":8056:8059   */\n      0x00\n        /* \"#utility.yul\":8085:8139   */\n      tag_217\n        /* \"#utility.yul\":8133:8138   */\n      dup3\n        /* \"#utility.yul\":8085:8139   */\n      tag_99\n      jump\t// in\n    tag_217:\n        /* \"#utility.yul\":8155:8241   */\n      tag_218\n        /* \"#utility.yul\":8234:8240   */\n      dup2\n        /* \"#utility.yul\":8229:8232   */\n      dup6\n        /* \"#utility.yul\":8155:8241   */\n      tag_100\n      jump\t// in\n    tag_218:\n        /* \"#utility.yul\":8148:8241   */\n      swap4\n      pop\n        /* \"#utility.yul\":8265:8321   */\n      tag_219\n        /* \"#utility.yul\":8315:8320   */\n      dup4\n        /* \"#utility.yul\":8265:8321   */\n      tag_101\n      jump\t// in\n    tag_219:\n        /* \"#utility.yul\":8344:8351   */\n      dup1\n        /* \"#utility.yul\":8375:8376   */\n      0x00\n        /* \"#utility.yul\":8360:8644   */\n    tag_220:\n        /* \"#utility.yul\":8385:8391   */\n      dup4\n        /* \"#utility.yul\":8382:8383   */\n      dup2\n        /* \"#utility.yul\":8379:8392   */\n      lt\n        /* \"#utility.yul\":8360:8644   */\n      iszero\n      tag_222\n      jumpi\n        /* \"#utility.yul\":8461:8467   */\n      dup2\n        /* \"#utility.yul\":8455:8468   */\n      mload\n        /* \"#utility.yul\":8488:8551   */\n      tag_223\n        /* \"#utility.yul\":8547:8550   */\n      dup9\n        /* \"#utility.yul\":8532:8545   */\n      dup3\n        /* \"#utility.yul\":8488:8551   */\n      tag_103\n      jump\t// in\n    tag_223:\n        /* \"#utility.yul\":8481:8551   */\n      swap8\n      pop\n        /* \"#utility.yul\":8574:8634   */\n      tag_224\n        /* \"#utility.yul\":8627:8633   */\n      dup4\n        /* \"#utility.yul\":8574:8634   */\n      tag_104\n      jump\t// in\n    tag_224:\n        /* \"#utility.yul\":8564:8634   */\n      swap3\n      pop\n        /* \"#utility.yul\":8420:8644   */\n      pop\n        /* \"#utility.yul\":8407:8408   */\n      0x01\n        /* \"#utility.yul\":8404:8405   */\n      dup2\n        /* \"#utility.yul\":8400:8409   */\n      add\n        /* \"#utility.yul\":8395:8409   */\n      swap1\n      pop\n        /* \"#utility.yul\":8360:8644   */\n      jump(tag_220)\n    tag_222:\n        /* \"#utility.yul\":8364:8378   */\n      pop\n        /* \"#utility.yul\":8660:8663   */\n      dup6\n        /* \"#utility.yul\":8653:8663   */\n      swap4\n      pop\n        /* \"#utility.yul\":8061:8669   */\n      pop\n      pop\n      pop\n        /* \"#utility.yul\":7937:8669   */\n      swap3\n      swap2\n      pop\n      pop\n      jump\t// out\n        /* \"#utility.yul\":8675:9048   */\n    tag_32:\n        /* \"#utility.yul\":8818:8822   */\n      0x00\n        /* \"#utility.yul\":8856:8858   */\n      0x20\n        /* \"#utility.yul\":8845:8854   */\n      dup3\n        /* \"#utility.yul\":8841:8859   */\n      add\n        /* \"#utility.yul\":8833:8859   */\n      swap1\n      pop\n        /* \"#utility.yul\":8905:8914   */\n      dup2\n        /* \"#utility.yul\":8899:8903   */\n      dup2\n        /* \"#utility.yul\":8895:8915   */\n      sub\n        /* \"#utility.yul\":8891:8892   */\n      0x00\n        /* \"#utility.yul\":8880:8889   */\n      dup4\n        /* \"#utility.yul\":8876:8893   */\n      add\n        /* \"#utility.yul\":8869:8916   */\n      mstore\n        /* \"#utility.yul\":8933:9041   */\n      tag_226\n        /* \"#utility.yul\":9036:9040   */\n      dup2\n        /* \"#utility.yul\":9027:9033   */\n      dup5\n        /* \"#utility.yul\":8933:9041   */\n      tag_105\n      jump\t// in\n    tag_226:\n        /* \"#utility.yul\":8925:9041   */\n      swap1\n      pop\n        /* \"#utility.yul\":8675:9048   */\n      swap3\n      swap2\n      pop\n      pop\n      jump\t// out\n        /* \"#utility.yul\":9054:9528   */\n    tag_39:\n        /* \"#utility.yul\":9122:9128   */\n      0x00\n        /* \"#utility.yul\":9130:9136   */\n      dup1\n        /* \"#utility.yul\":9179:9181   */\n      0x40\n        /* \"#utility.yul\":9167:9176   */\n      dup4\n        /* \"#utility.yul\":9158:9165   */\n      dup6\n        /* \"#utility.yul\":9154:9177   */\n      sub\n        /* \"#utility.yul\":9150:9182   */\n      slt\n        /* \"#utility.yul\":9147:9266   */\n      iszero\n      tag_228\n      jumpi\n        /* \"#utility.yul\":9185:9264   */\n      tag_229\n      tag_77\n      jump\t// in\n    tag_229:\n        /* \"#utility.yul\":9147:9266   */\n    tag_228:\n        /* \"#utility.yul\":9305:9306   */\n      0x00\n        /* \"#utility.yul\":9330:9383   */\n      tag_230\n        /* \"#utility.yul\":9375:9382   */\n      dup6\n        /* \"#utility.yul\":9366:9372   */\n      dup3\n        /* \"#utility.yul\":9355:9364   */\n      dup7\n        /* \"#utility.yul\":9351:9373   */\n      add\n        /* \"#utility.yul\":9330:9383   */\n      tag_80\n      jump\t// in\n    tag_230:\n        /* \"#utility.yul\":9320:9383   */\n      swap3\n      pop\n        /* \"#utility.yul\":9276:9393   */\n      pop\n        /* \"#utility.yul\":9432:9434   */\n      0x20\n        /* \"#utility.yul\":9458:9511   */\n      tag_231\n        /* \"#utility.yul\":9503:9510   */\n      dup6\n        /* \"#utility.yul\":9494:9500   */\n      dup3\n        /* \"#utility.yul\":9483:9492   */\n      dup7\n        /* \"#utility.yul\":9479:9501   */\n      add\n        /* \"#utility.yul\":9458:9511   */\n      tag_98\n      jump\t// in\n    tag_231:\n        /* \"#utility.yul\":9448:9511   */\n      swap2\n      pop\n        /* \"#utility.yul\":9403:9521   */\n      pop\n        /* \"#utility.yul\":9054:9528   */\n      swap3\n      pop\n      swap3\n      swap1\n      pop\n      jump\t// out\n        /* \"#utility.yul\":9534:9968   */\n    tag_106:\n        /* \"#utility.yul\":9623:9628   */\n      0x00\n        /* \"#utility.yul\":9648:9714   */\n      tag_233\n        /* \"#utility.yul\":9664:9713   */\n      tag_234\n        /* \"#utility.yul\":9706:9712   */\n      dup5\n        /* \"#utility.yul\":9664:9713   */\n      tag_93\n      jump\t// in\n    tag_234:\n        /* \"#utility.yul\":9648:9714   */\n      tag_92\n      jump\t// in\n    tag_233:\n        /* \"#utility.yul\":9639:9714   */\n      swap1\n      pop\n        /* \"#utility.yul\":9737:9743   */\n      dup3\n        /* \"#utility.yul\":9730:9735   */\n      dup2\n        /* \"#utility.yul\":9723:9744   */\n      mstore\n        /* \"#utility.yul\":9775:9779   */\n      0x20\n        /* \"#utility.yul\":9768:9773   */\n      dup2\n        /* \"#utility.yul\":9764:9780   */\n      add\n        /* \"#utility.yul\":9813:9816   */\n      dup5\n        /* \"#utility.yul\":9804:9810   */\n      dup5\n        /* \"#utility.yul\":9799:9802   */\n      dup5\n        /* \"#utility.yul\":9795:9811   */\n      add\n        /* \"#utility.yul\":9792:9817   */\n      gt\n        /* \"#utility.yul\":9789:9901   */\n      iszero\n      tag_235\n      jumpi\n        /* \"#utility.yul\":9820:9899   */\n      tag_236\n      tag_89\n      jump\t// in\n    tag_236:\n        /* \"#utility.yul\":9789:9901   */\n    tag_235:\n        /* \"#utility.yul\":9910:9962   */\n      tag_237\n        /* \"#utility.yul\":9955:9961   */\n      dup5\n        /* \"#utility.yul\":9950:9953   */\n      dup3\n        /* \"#utility.yul\":9945:9948   */\n      dup6\n        /* \"#utility.yul\":9910:9962   */\n      tag_83\n      jump\t// in\n    tag_237:\n        /* \"#utility.yul\":9629:9968   */\n      pop\n        /* \"#utility.yul\":9534:9968   */\n      swap4\n      swap3\n      pop\n      pop\n      pop\n      jump\t// out\n        /* \"#utility.yul\":9988:10343   */\n    tag_107:\n        /* \"#utility.yul\":10055:10060   */\n      0x00\n        /* \"#utility.yul\":10104:10107   */\n      dup3\n        /* \"#utility.yul\":10097:10101   */\n      0x1f\n        /* \"#utility.yul\":10089:10095   */\n      dup4\n        /* \"#utility.yul\":10085:10102   */\n      add\n        /* \"#utility.yul\":10081:10108   */\n      slt\n        /* \"#utility.yul\":10071:10193   */\n      tag_239\n      jumpi\n        /* \"#utility.yul\":10112:10191   */\n      tag_240\n      tag_88\n      jump\t// in\n    tag_240:\n        /* \"#utility.yul\":10071:10193   */\n    tag_239:\n        /* \"#utility.yul\":10222:10228   */\n      dup2\n        /* \"#utility.yul\":10216:10229   */\n      mload\n        /* \"#utility.yul\":10247:10337   */\n      tag_241\n        /* \"#utility.yul\":10333:10336   */\n      dup5\n        /* \"#utility.yul\":10325:10331   */\n      dup3\n        /* \"#utility.yul\":10318:10322   */\n      0x20\n        /* \"#utility.yul\":10310:10316   */\n      dup7\n        /* \"#utility.yul\":10306:10323   */\n      add\n        /* \"#utility.yul\":10247:10337   */\n      tag_106\n      jump\t// in\n    tag_241:\n        /* \"#utility.yul\":10238:10337   */\n      swap2\n      pop\n        /* \"#utility.yul\":10061:10343   */\n      pop\n        /* \"#utility.yul\":9988:10343   */\n      swap3\n      swap2\n      pop\n      pop\n      jump\t// out\n        /* \"#utility.yul\":10349:10873   */\n    tag_46:\n        /* \"#utility.yul\":10429:10435   */\n      0x00\n        /* \"#utility.yul\":10478:10480   */\n      0x20\n        /* \"#utility.yul\":10466:10475   */\n      dup3\n        /* \"#utility.yul\":10457:10464   */\n      dup5\n        /* \"#utility.yul\":10453:10476   */\n      sub\n        /* \"#utility.yul\":10449:10481   */\n      slt\n        /* \"#utility.yul\":10446:10565   */\n      iszero\n      tag_243\n      jumpi\n        /* \"#utility.yul\":10484:10563   */\n      tag_244\n      tag_77\n      jump\t// in\n    tag_244:\n        /* \"#utility.yul\":10446:10565   */\n    tag_243:\n        /* \"#utility.yul\":10625:10626   */\n      0x00\n        /* \"#utility.yul\":10614:10623   */\n      dup3\n        /* \"#utility.yul\":10610:10627   */\n      add\n        /* \"#utility.yul\":10604:10628   */\n      mload\n        /* \"#utility.yul\":10655:10673   */\n      0xffffffffffffffff\n        /* \"#utility.yul\":10647:10653   */\n      dup2\n        /* \"#utility.yul\":10644:10674   */\n      gt\n        /* \"#utility.yul\":10641:10758   */\n      iszero\n      tag_245\n      jumpi\n        /* \"#utility.yul\":10677:10756   */\n      tag_246\n      tag_78\n      jump\t// in\n    tag_246:\n        /* \"#utility.yul\":10641:10758   */\n    tag_245:\n        /* \"#utility.yul\":10782:10856   */\n      tag_247\n        /* \"#utility.yul\":10848:10855   */\n      dup5\n        /* \"#utility.yul\":10839:10845   */\n      dup3\n        /* \"#utility.yul\":10828:10837   */\n      dup6\n        /* \"#utility.yul\":10824:10846   */\n      add\n        /* \"#utility.yul\":10782:10856   */\n      tag_107\n      jump\t// in\n    tag_247:\n        /* \"#utility.yul\":10772:10856   */\n      swap2\n      pop\n        /* \"#utility.yul\":10575:10866   */\n      pop\n        /* \"#utility.yul\":10349:10873   */\n      swap3\n      swap2\n      pop\n      pop\n      jump\t// out\n        /* \"#utility.yul\":10879:11045   */\n    tag_108:\n        /* \"#utility.yul\":11019:11037   */\n      0x6d757374206265206f6e206f776e657200000000000000000000000000000000\n        /* \"#utility.yul\":11015:11016   */\n      0x00\n        /* \"#utility.yul\":11007:11013   */\n      dup3\n        /* \"#utility.yul\":11003:11017   */\n      add\n        /* \"#utility.yul\":10996:11038   */\n      mstore\n        /* \"#utility.yul\":10879:11045   */\n      pop\n      jump\t// out\n        /* \"#utility.yul\":11051:11417   */\n    tag_109:\n        /* \"#utility.yul\":11193:11196   */\n      0x00\n        /* \"#utility.yul\":11214:11281   */\n      tag_250\n        /* \"#utility.yul\":11278:11280   */\n      0x10\n        /* \"#utility.yul\":11273:11276   */\n      dup4\n        /* \"#utility.yul\":11214:11281   */\n      tag_82\n      jump\t// in\n    tag_250:\n        /* \"#utility.yul\":11207:11281   */\n      swap2\n      pop\n        /* \"#utility.yul\":11290:11383   */\n      tag_251\n        /* \"#utility.yul\":11379:11382   */\n      dup3\n        /* \"#utility.yul\":11290:11383   */\n      tag_108\n      jump\t// in\n    tag_251:\n        /* \"#utility.yul\":11408:11410   */\n      0x20\n        /* \"#utility.yul\":11403:11406   */\n      dup3\n        /* \"#utility.yul\":11399:11411   */\n      add\n        /* \"#utility.yul\":11392:11411   */\n      swap1\n      pop\n        /* \"#utility.yul\":11051:11417   */\n      swap2\n      swap1\n      pop\n      jump\t// out\n        /* \"#utility.yul\":11423:11842   */\n    tag_51:\n        /* \"#utility.yul\":11589:11593   */\n      0x00\n        /* \"#utility.yul\":11627:11629   */\n      0x20\n        /* \"#utility.yul\":11616:11625   */\n      dup3\n        /* \"#utility.yul\":11612:11630   */\n      add\n        /* \"#utility.yul\":11604:11630   */\n      swap1\n      pop\n        /* \"#utility.yul\":11676:11685   */\n      dup2\n        /* \"#utility.yul\":11670:11674   */\n      dup2\n        /* \"#utility.yul\":11666:11686   */\n      sub\n        /* \"#utility.yul\":11662:11663   */\n      0x00\n        /* \"#utility.yul\":11651:11660   */\n      dup4\n        /* \"#utility.yul\":11647:11664   */\n      add\n        /* \"#utility.yul\":11640:11687   */\n      mstore\n        /* \"#utility.yul\":11704:11835   */\n      tag_253\n        /* \"#utility.yul\":11830:11834   */\n      dup2\n        /* \"#utility.yul\":11704:11835   */\n      tag_109\n      jump\t// in\n    tag_253:\n        /* \"#utility.yul\":11696:11835   */\n      swap1\n      pop\n        /* \"#utility.yul\":11423:11842   */\n      swap2\n      swap1\n      pop\n      jump\t// out\n        /* \"#utility.yul\":11848:12785   */\n    tag_55:\n        /* \"#utility.yul\":12113:12117   */\n      0x00\n        /* \"#utility.yul\":12151:12154   */\n      0xa0\n        /* \"#utility.yul\":12140:12149   */\n      dup3\n        /* \"#utility.yul\":12136:12155   */\n      add\n        /* \"#utility.yul\":12128:12155   */\n      swap1\n      pop\n        /* \"#utility.yul\":12201:12210   */\n      dup2\n        /* \"#utility.yul\":12195:12199   */\n      dup2\n        /* \"#utility.yul\":12191:12211   */\n      sub\n        /* \"#utility.yul\":12187:12188   */\n      0x00\n        /* \"#utility.yul\":12176:12185   */\n      dup4\n        /* \"#utility.yul\":12172:12189   */\n      add\n        /* \"#utility.yul\":12165:12212   */\n      mstore\n        /* \"#utility.yul\":12229:12307   */\n      tag_255\n        /* \"#utility.yul\":12302:12306   */\n      dup2\n        /* \"#utility.yul\":12293:12299   */\n      dup9\n        /* \"#utility.yul\":12229:12307   */\n      tag_85\n      jump\t// in\n    tag_255:\n        /* \"#utility.yul\":12221:12307   */\n      swap1\n      pop\n        /* \"#utility.yul\":12354:12363   */\n      dup2\n        /* \"#utility.yul\":12348:12352   */\n      dup2\n        /* \"#utility.yul\":12344:12364   */\n      sub\n        /* \"#utility.yul\":12339:12341   */\n      0x20\n        /* \"#utility.yul\":12328:12337   */\n      dup4\n        /* \"#utility.yul\":12324:12342   */\n      add\n        /* \"#utility.yul\":12317:12365   */\n      mstore\n        /* \"#utility.yul\":12382:12460   */\n      tag_256\n        /* \"#utility.yul\":12455:12459   */\n      dup2\n        /* \"#utility.yul\":12446:12452   */\n      dup8\n        /* \"#utility.yul\":12382:12460   */\n      tag_85\n      jump\t// in\n    tag_256:\n        /* \"#utility.yul\":12374:12460   */\n      swap1\n      pop\n        /* \"#utility.yul\":12507:12516   */\n      dup2\n        /* \"#utility.yul\":12501:12505   */\n      dup2\n        /* \"#utility.yul\":12497:12517   */\n      sub\n        /* \"#utility.yul\":12492:12494   */\n      0x40\n        /* \"#utility.yul\":12481:12490   */\n      dup4\n        /* \"#utility.yul\":12477:12495   */\n      add\n        /* \"#utility.yul\":12470:12518   */\n      mstore\n        /* \"#utility.yul\":12535:12613   */\n      tag_257\n        /* \"#utility.yul\":12608:12612   */\n      dup2\n        /* \"#utility.yul\":12599:12605   */\n      dup7\n        /* \"#utility.yul\":12535:12613   */\n      tag_85\n      jump\t// in\n    tag_257:\n        /* \"#utility.yul\":12527:12613   */\n      swap1\n      pop\n        /* \"#utility.yul\":12623:12695   */\n      tag_258\n        /* \"#utility.yul\":12691:12693   */\n      0x60\n        /* \"#utility.yul\":12680:12689   */\n      dup4\n        /* \"#utility.yul\":12676:12694   */\n      add\n        /* \"#utility.yul\":12667:12673   */\n      dup6\n        /* \"#utility.yul\":12623:12695   */\n      tag_87\n      jump\t// in\n    tag_258:\n        /* \"#utility.yul\":12705:12778   */\n      tag_259\n        /* \"#utility.yul\":12773:12776   */\n      0x80\n        /* \"#utility.yul\":12762:12771   */\n      dup4\n        /* \"#utility.yul\":12758:12777   */\n      add\n        /* \"#utility.yul\":12749:12755   */\n      dup5\n        /* \"#utility.yul\":12705:12778   */\n      tag_75\n      jump\t// in\n    tag_259:\n        /* \"#utility.yul\":11848:12785   */\n      swap7\n      swap6\n      pop\n      pop\n      pop\n      pop\n      pop\n      pop\n      jump\t// out\n        /* \"#utility.yul\":12791:12971   */\n    tag_110:\n        /* \"#utility.yul\":12839:12916   */\n      0x4e487b7100000000000000000000000000000000000000000000000000000000\n        /* \"#utility.yul\":12836:12837   */\n      0x00\n        /* \"#utility.yul\":12829:12917   */\n      mstore\n        /* \"#utility.yul\":12936:12940   */\n      0x22\n        /* \"#utility.yul\":12933:12934   */\n      0x04\n        /* \"#utility.yul\":12926:12941   */\n      mstore\n        /* \"#utility.yul\":12960:12964   */\n      0x24\n        /* \"#utility.yul\":12957:12958   */\n      0x00\n        /* \"#utility.yul\":12950:12965   */\n      revert\n        /* \"#utility.yul\":12977:13297   */\n    tag_111:\n        /* \"#utility.yul\":13021:13027   */\n      0x00\n        /* \"#utility.yul\":13058:13059   */\n      0x02\n        /* \"#utility.yul\":13052:13056   */\n      dup3\n        /* \"#utility.yul\":13048:13060   */\n      div\n        /* \"#utility.yul\":13038:13060   */\n      swap1\n      pop\n        /* \"#utility.yul\":13105:13106   */\n      0x01\n        /* \"#utility.yul\":13099:13103   */\n      dup3\n        /* \"#utility.yul\":13095:13107   */\n      and\n        /* \"#utility.yul\":13126:13144   */\n      dup1\n        /* \"#utility.yul\":13116:13197   */\n      tag_262\n      jumpi\n        /* \"#utility.yul\":13182:13186   */\n      0x7f\n        /* \"#utility.yul\":13174:13180   */\n      dup3\n        /* \"#utility.yul\":13170:13187   */\n      and\n        /* \"#utility.yul\":13160:13187   */\n      swap2\n      pop\n        /* \"#utility.yul\":13116:13197   */\n    tag_262:\n        /* \"#utility.yul\":13244:13246   */\n      0x20\n        /* \"#utility.yul\":13236:13242   */\n      dup3\n        /* \"#utility.yul\":13233:13247   */\n      lt\n        /* \"#utility.yul\":13213:13231   */\n      dup2\n        /* \"#utility.yul\":13210:13248   */\n      sub\n        /* \"#utility.yul\":13207:13291   */\n      tag_263\n      jumpi\n        /* \"#utility.yul\":13263:13281   */\n      tag_264\n      tag_110\n      jump\t// in\n    tag_264:\n        /* \"#utility.yul\":13207:13291   */\n    tag_263:\n        /* \"#utility.yul\":13028:13297   */\n      pop\n        /* \"#utility.yul\":12977:13297   */\n      swap2\n      swap1\n      pop\n      jump\t// out\n        /* \"#utility.yul\":13303:13444   */\n    tag_112:\n        /* \"#utility.yul\":13352:13356   */\n      0x00\n        /* \"#utility.yul\":13375:13378   */\n      dup2\n        /* \"#utility.yul\":13367:13378   */\n      swap1\n      pop\n        /* \"#utility.yul\":13398:13401   */\n      dup2\n        /* \"#utility.yul\":13395:13396   */\n      0x00\n        /* \"#utility.yul\":13388:13402   */\n      mstore\n        /* \"#utility.yul\":13432:13436   */\n      0x20\n        /* \"#utility.yul\":13429:13430   */\n      0x00\n        /* \"#utility.yul\":13419:13437   */\n      keccak256\n        /* \"#utility.yul\":13411:13437   */\n      swap1\n      pop\n        /* \"#utility.yul\":13303:13444   */\n      swap2\n      swap1\n      pop\n      jump\t// out\n        /* \"#utility.yul\":13450:13543   */\n    tag_113:\n        /* \"#utility.yul\":13487:13493   */\n      0x00\n        /* \"#utility.yul\":13534:13536   */\n      0x20\n        /* \"#utility.yul\":13529:13531   */\n      0x1f\n        /* \"#utility.yul\":13522:13527   */\n      dup4\n        /* \"#utility.yul\":13518:13532   */\n      add\n        /* \"#utility.yul\":13514:13537   */\n      div\n        /* \"#utility.yul\":13504:13537   */\n      swap1\n      pop\n        /* \"#utility.yul\":13450:13543   */\n      swap2\n      swap1\n      pop\n      jump\t// out\n        /* \"#utility.yul\":13549:13656   */\n    tag_114:\n        /* \"#utility.yul\":13593:13601   */\n      0x00\n        /* \"#utility.yul\":13643:13648   */\n      dup3\n        /* \"#utility.yul\":13637:13641   */\n      dup3\n        /* \"#utility.yul\":13633:13649   */\n      shl\n        /* \"#utility.yul\":13612:13649   */\n      swap1\n      pop\n        /* \"#utility.yul\":13549:13656   */\n      swap3\n      swap2\n      pop\n      pop\n      jump\t// out\n        /* \"#utility.yul\":13662:14055   */\n    tag_115:\n        /* \"#utility.yul\":13731:13737   */\n      0x00\n        /* \"#utility.yul\":13781:13782   */\n      0x08\n        /* \"#utility.yul\":13769:13779   */\n      dup4\n        /* \"#utility.yul\":13765:13783   */\n      mul\n        /* \"#utility.yul\":13804:13901   */\n      tag_269\n        /* \"#utility.yul\":13834:13900   */\n      0xffffffffffffffffffffffffffffffffffffffffffffffffffffffffffffffff\n        /* \"#utility.yul\":13823:13832   */\n      dup3\n        /* \"#utility.yul\":13804:13901   */\n      tag_114\n      jump\t// in\n    tag_269:\n        /* \"#utility.yul\":13922:13961   */\n      tag_270\n        /* \"#utility.yul\":13952:13960   */\n      dup7\n        /* \"#utility.yul\":13941:13950   */\n      dup4\n        /* \"#utility.yul\":13922:13961   */\n      tag_114\n      jump\t// in\n    tag_270:\n        /* \"#utility.yul\":13910:13961   */\n      swap6\n      pop\n        /* \"#utility.yul\":13994:13998   */\n      dup1\n        /* \"#utility.yul\":13990:13999   */\n      not\n        /* \"#utility.yul\":13983:13988   */\n      dup5\n        /* \"#utility.yul\":13979:14000   */\n      and\n        /* \"#utility.yul\":13970:14000   */\n      swap4\n      pop\n        /* \"#utility.yul\":14043:14047   */\n      dup1\n        /* \"#utility.yul\":14033:14041   */\n      dup7\n        /* \"#utility.yul\":14029:14048   */\n      and\n        /* \"#utility.yul\":14022:14027   */\n      dup5\n        /* \"#utility.yul\":14019:14049   */\n      or\n        /* \"#utility.yul\":14009:14049   */\n      swap3\n      pop\n        /* \"#utility.yul\":13738:14055   */\n      pop\n      pop\n        /* \"#utility.yul\":13662:14055   */\n      swap4\n      swap3\n      pop\n      pop\n      pop\n      jump\t// out\n        /* \"#utility.yul\":14061:14121   */\n    tag_116:\n        /* \"#utility.yul\":14089:14092   */\n      0x00\n        /* \"#utility.yul\":14110:14115   */\n      dup2\n        /* \"#utility.yul\":14103:14115   */\n      swap1\n      pop\n        /* \"#utility.yul\":14061:14121   */\n      swap2\n      swap1\n      pop\n      jump\t// out\n        /* \"#utility.yul\":14127:14269   */\n    tag_117:\n        /* \"#utility.yul\":14177:14186   */\n      0x00\n        /* \"#utility.yul\":14210:14263   */\n      tag_273\n        /* \"#utility.yul\":14228:14262   */\n      tag_274\n        /* \"#utility.yul\":14237:14261   */\n      tag_275\n        /* \"#utility.yul\":14255:14260   */\n      dup5\n        /* \"#utility.yul\":14237:14261   */\n      tag_86\n      jump\t// in\n    tag_275:\n        /* \"#utility.yul\":14228:14262   */\n      tag_116\n      jump\t// in\n    tag_274:\n        /* \"#utility.yul\":14210:14263   */\n      tag_86\n      jump\t// in\n    tag_273:\n        /* \"#utility.yul\":14197:14263   */\n      swap1\n      pop\n        /* \"#utility.yul\":14127:14269   */\n      swap2\n      swap1\n      pop\n      jump\t// out\n        /* \"#utility.yul\":14275:14350   */\n    tag_118:\n        /* \"#utility.yul\":14318:14321   */\n      0x00\n        /* \"#utility.yul\":14339:14344   */\n      dup2\n        /* \"#utility.yul\":14332:14344   */\n      swap1\n      pop\n        /* \"#utility.yul\":14275:14350   */\n      swap2\n      swap1\n      pop\n      jump\t// out\n        /* \"#utility.yul\":14356:14625   */\n    tag_119:\n        /* \"#utility.yul\":14466:14505   */\n      tag_278\n        /* \"#utility.yul\":14497:14504   */\n      dup4\n        /* \"#utility.yul\":14466:14505   */\n      tag_117\n      jump\t// in\n    tag_278:\n        /* \"#utility.yul\":14527:14618   */\n      tag_279\n        /* \"#utility.yul\":14576:14617   */\n      tag_280\n        /* \"#utility.yul\":14600:14616   */\n      dup3\n        /* \"#utility.yul\":14576:14617   */\n      tag_118\n      jump\t// in\n    tag_280:\n        /* \"#utility.yul\":14568:14574   */\n      dup5\n        /* \"#utility.yul\":14561:14565   */\n      dup5\n        /* \"#utility.yul\":14555:14566   */\n      sload\n        /* \"#utility.yul\":14527:14618   */\n      tag_115\n      jump\t// in\n    tag_279:\n        /* \"#utility.yul\":14521:14525   */\n      dup3\n        /* \"#utility.yul\":14514:14619   */\n      sstore\n        /* \"#utility.yul\":14432:14625   */\n      pop\n        /* \"#utility.yul\":14356:14625   */\n      pop\n      pop\n      pop\n      jump\t// out\n        /* \"#utility.yul\":14631:14704   */\n    tag_120:\n        /* \"#utility.yul\":14676:14679   */\n      0x00\n        /* \"#utility.yul\":14631:14704   */\n      swap1\n      jump\t// out\n        /* \"#utility.yul\":14710:14899   */\n    tag_121:\n        /* \"#utility.yul\":14787:14819   */\n      tag_283\n      tag_120\n      jump\t// in\n    tag_283:\n        /* \"#utility.yul\":14828:14893   */\n      tag_284\n        /* \"#utility.yul\":14886:14892   */\n      dup2\n        /* \"#utility.yul\":14878:14884   */\n      dup5\n        /* \"#utility.yul\":14872:14876   */\n      dup5\n        /* \"#utility.yul\":14828:14893   */\n      tag_119\n      jump\t// in\n    tag_284:\n        /* \"#utility.yul\":14763:14899   */\n      pop\n        /* \"#utility.yul\":14710:14899   */\n      pop\n      pop\n      jump\t// out\n        /* \"#utility.yul\":14905:15091   */\n    tag_122:\n        /* \"#utility.yul\":14965:15085   */\n    tag_286:\n        /* \"#utility.yul\":14982:14985   */\n      dup2\n        /* \"#utility.yul\":14975:14980   */\n      dup2\n        /* \"#utility.yul\":14972:14986   */\n      lt\n        /* \"#utility.yul\":14965:15085   */\n      iszero\n      tag_288\n      jumpi\n        /* \"#utility.yul\":15036:15075   */\n      tag_289\n        /* \"#utility.yul\":15073:15074   */\n      0x00\n        /* \"#utility.yul\":15066:15071   */\n      dup3\n        /* \"#utility.yul\":15036:15075   */\n      tag_121\n      jump\t// in\n    tag_289:\n        /* \"#utility.yul\":15009:15010   */\n      0x01\n        /* \"#utility.yul\":15002:15007   */\n      dup2\n        /* \"#utility.yul\":14998:15011   */\n      add\n        /* \"#utility.yul\":14989:15011   */\n      swap1\n      pop\n        /* \"#utility.yul\":14965:15085   */\n      jump(tag_286)\n    tag_288:\n        /* \"#utility.yul\":14905:15091   */\n      pop\n      pop\n      jump\t// out\n        /* \"#utility.yul\":15097:15640   */\n    tag_123:\n        /* \"#utility.yul\":15198:15200   */\n      0x1f\n        /* \"#utility.yul\":15193:15196   */\n      dup3\n        /* \"#utility.yul\":15190:15201   */\n      gt\n        /* \"#utility.yul\":15187:15633   */\n      iszero\n      tag_291\n      jumpi\n        /* \"#utility.yul\":15232:15270   */\n      tag_292\n        /* \"#utility.yul\":15264:15269   */\n      dup2\n        /* \"#utility.yul\":15232:15270   */\n      tag_112\n      jump\t// in\n    tag_292:\n        /* \"#utility.yul\":15316:15345   */\n      tag_293\n        /* \"#utility.yul\":15334:15344   */\n      dup5\n        /* \"#utility.yul\":15316:15345   */\n      tag_113\n      jump\t// in\n    tag_293:\n        /* \"#utility.yul\":15306:15314   */\n      dup2\n        /* \"#utility.yul\":15302:15346   */\n      add\n        /* \"#utility.yul\":15499:15501   */\n      0x20\n        /* \"#utility.yul\":15487:15497   */\n      dup6\n        /* \"#utility.yul\":15484:15502   */\n      lt\n        /* \"#utility.yul\":15481:15530   */\n      iszero\n      tag_294\n      jumpi\n        /* \"#utility.yul\":15520:15528   */\n      dup2\n        /* \"#utility.yul\":15505:15528   */\n      swap1\n      pop\n        /* \"#utility.yul\":15481:15530   */\n    tag_294:\n        /* \"#utility.yul\":15543:15623   */\n      tag_295\n        /* \"#utility.yul\":15599:15621   */\n      tag_296\n        /* \"#utility.yul\":15617:15620   */\n      dup6\n        /* \"#utility.yul\":15599:15621   */\n      tag_113\n      jump\t// in\n    tag_296:\n        /* \"#utility.yul\":15589:15597   */\n      dup4\n        /* \"#utility.yul\":15585:15622   */\n      add\n        /* \"#utility.yul\":15572:15583   */\n      dup3\n        /* \"#utility.yul\":15543:15623   */\n      tag_122\n      jump\t// in\n    tag_295:\n        /* \"#utility.yul\":15202:15633   */\n      pop\n      pop\n        /* \"#utility.yul\":15187:15633   */\n    tag_291:\n        /* \"#utility.yul\":15097:15640   */\n      pop\n      pop\n      pop\n      jump\t// out\n        /* \"#utility.yul\":15646:15763   */\n    tag_124:\n        /* \"#utility.yul\":15700:15708   */\n      0x00\n        /* \"#utility.yul\":15750:15755   */\n      dup3\n        /* \"#utility.yul\":15744:15748   */\n      dup3\n        /* \"#utility.yul\":15740:15756   */\n      shr\n        /* \"#utility.yul\":15719:15756   */\n      swap1\n      pop\n        /* \"#utility.yul\":15646:15763   */\n      swap3\n      swap2\n      pop\n      pop\n      jump\t// out\n        /* \"#utility.yul\":15769:15938   */\n    tag_125:\n        /* \"#utility.yul\":15813:15819   */\n      0x00\n        /* \"#utility.yul\":15846:15897   */\n      tag_299\n        /* \"#utility.yul\":15894:15895   */\n      0x00\n        /* \"#utility.yul\":15890:15896   */\n      not\n        /* \"#utility.yul\":15882:15887   */\n      dup5\n        /* \"#utility.yul\":15879:15880   */\n      0x08\n        /* \"#utility.yul\":15875:15888   */\n      mul\n        /* \"#utility.yul\":15846:15897   */\n      tag_124\n      jump\t// in\n    tag_299:\n        /* \"#utility.yul\":15842:15898   */\n      not\n        /* \"#utility.yul\":15927:15931   */\n      dup1\n        /* \"#utility.yul\":15921:15925   */\n      dup4\n        /* \"#utility.yul\":15917:15932   */\n      and\n        /* \"#utility.yul\":15907:15932   */\n      swap2\n      pop\n        /* \"#utility.yul\":15820:15938   */\n      pop\n        /* \"#utility.yul\":15769:15938   */\n      swap3\n      swap2\n      pop\n      pop\n      jump\t// out\n        /* \"#utility.yul\":15943:16238   */\n    tag_126:\n        /* \"#utility.yul\":16019:16023   */\n      0x00\n        /* \"#utility.yul\":16165:16194   */\n      tag_301\n        /* \"#utility.yul\":16190:16193   */\n      dup4\n        /* \"#utility.yul\":16184:16188   */\n      dup4\n        /* \"#utility.yul\":16165:16194   */\n      tag_125\n      jump\t// in\n    tag_301:\n        /* \"#utility.yul\":16157:16194   */\n      swap2\n      pop\n        /* \"#utility.yul\":16227:16230   */\n      dup3\n        /* \"#utility.yul\":16224:16225   */\n      0x02\n        /* \"#utility.yul\":16220:16231   */\n      mul\n        /* \"#utility.yul\":16214:16218   */\n      dup3\n        /* \"#utility.yul\":16211:16232   */\n      or\n        /* \"#utility.yul\":16203:16232   */\n      swap1\n      pop\n        /* \"#utility.yul\":15943:16238   */\n      swap3\n      swap2\n      pop\n      pop\n      jump\t// out\n        /* \"#utility.yul\":16243:17638   */\n    tag_58:\n        /* \"#utility.yul\":16360:16397   */\n      tag_303\n        /* \"#utility.yul\":16393:16396   */\n      dup3\n        /* \"#utility.yul\":16360:16397   */\n      tag_81\n      jump\t// in\n    tag_303:\n        /* \"#utility.yul\":16462:16480   */\n      0xffffffffffffffff\n        /* \"#utility.yul\":16454:16460   */\n      dup2\n        /* \"#utility.yul\":16451:16481   */\n      gt\n        /* \"#utility.yul\":16448:16504   */\n      iszero\n      tag_304\n      jumpi\n        /* \"#utility.yul\":16484:16502   */\n      tag_305\n      tag_90\n      jump\t// in\n    tag_305:\n        /* \"#utility.yul\":16448:16504   */\n    tag_304:\n        /* \"#utility.yul\":16528:16566   */\n      tag_306\n        /* \"#utility.yul\":16560:16564   */\n      dup3\n        /* \"#utility.yul\":16554:16565   */\n      sload\n        /* \"#utility.yul\":16528:16566   */\n      tag_111\n      jump\t// in\n    tag_306:\n        /* \"#utility.yul\":16613:16680   */\n      tag_307\n        /* \"#utility.yul\":16673:16679   */\n      dup3\n        /* \"#utility.yul\":16665:16671   */\n      dup3\n        /* \"#utility.yul\":16659:16663   */\n      dup6\n        /* \"#utility.yul\":16613:16680   */\n      tag_123\n      jump\t// in\n    tag_307:\n        /* \"#utility.yul\":16707:16708   */\n      0x00\n        /* \"#utility.yul\":16731:16735   */\n      0x20\n        /* \"#utility.yul\":16718:16735   */\n      swap1\n      pop\n        /* \"#utility.yul\":16763:16765   */\n      0x1f\n        /* \"#utility.yul\":16755:16761   */\n      dup4\n        /* \"#utility.yul\":16752:16766   */\n      gt\n        /* \"#utility.yul\":16780:16781   */\n      0x01\n        /* \"#utility.yul\":16775:17393   */\n      dup2\n      eq\n      tag_309\n      jumpi\n        /* \"#utility.yul\":17437:17438   */\n      0x00\n        /* \"#utility.yul\":17454:17460   */\n      dup5\n        /* \"#utility.yul\":17451:17528   */\n      iszero\n      tag_310\n      jumpi\n        /* \"#utility.yul\":17503:17512   */\n      dup3\n        /* \"#utility.yul\":17498:17501   */\n      dup8\n        /* \"#utility.yul\":17494:17513   */\n      add\n        /* \"#utility.yul\":17488:17514   */\n      mload\n        /* \"#utility.yul\":17479:17514   */\n      swap1\n      pop\n        /* \"#utility.yul\":17451:17528   */\n    tag_310:\n        /* \"#utility.yul\":17554:17621   */\n      tag_311\n        /* \"#utility.yul\":17614:17620   */\n      dup6\n        /* \"#utility.yul\":17607:17612   */\n      dup3\n        /* \"#utility.yul\":17554:17621   */\n      tag_126\n      jump\t// in\n    tag_311:\n        /* \"#utility.yul\":17548:17552   */\n      dup7\n        /* \"#utility.yul\":17541:17622   */\n      sstore\n        /* \"#utility.yul\":17410:17632   */\n      pop\n        /* \"#utility.yul\":16745:17632   */\n      jump(tag_308)\n        /* \"#utility.yul\":16775:17393   */\n    tag_309:\n        /* \"#utility.yul\":16827:16831   */\n      0x1f\n        /* \"#utility.yul\":16823:16832   */\n      not\n        /* \"#utility.yul\":16815:16821   */\n      dup5\n        /* \"#utility.yul\":16811:16833   */\n      and\n        /* \"#utility.yul\":16861:16898   */\n      tag_312\n        /* \"#utility.yul\":16893:16897   */\n      dup7\n        /* \"#utility.yul\":16861:16898   */\n      tag_112\n      jump\t// in\n    tag_312:\n        /* \"#utility.yul\":16920:16921   */\n      0x00\n        /* \"#utility.yul\":16934:17142   */\n    tag_313:\n        /* \"#utility.yul\":16948:16955   */\n      dup3\n        /* \"#utility.yul\":16945:16946   */\n      dup2\n        /* \"#utility.yul\":16942:16956   */\n      lt\n        /* \"#utility.yul\":16934:17142   */\n      iszero\n      tag_315\n      jumpi\n        /* \"#utility.yul\":17027:17036   */\n      dup5\n        /* \"#utility.yul\":17022:17025   */\n      dup10\n        /* \"#utility.yul\":17018:17037   */\n      add\n        /* \"#utility.yul\":17012:17038   */\n      mload\n        /* \"#utility.yul\":17004:17010   */\n      dup3\n        /* \"#utility.yul\":16997:17039   */\n      sstore\n        /* \"#utility.yul\":17078:17079   */\n      0x01\n        /* \"#utility.yul\":17070:17076   */\n      dup3\n        /* \"#utility.yul\":17066:17080   */\n      add\n        /* \"#utility.yul\":17056:17080   */\n      swap2\n      pop\n        /* \"#utility.yul\":17125:17127   */\n      0x20\n        /* \"#utility.yul\":17114:17123   */\n      dup6\n        /* \"#utility.yul\":17110:17128   */\n      add\n        /* \"#utility.yul\":17097:17128   */\n      swap5\n      pop\n        /* \"#utility.yul\":16971:16975   */\n      0x20\n        /* \"#utility.yul\":16968:16969   */\n      dup2\n        /* \"#utility.yul\":16964:16976   */\n      add\n        /* \"#utility.yul\":16959:16976   */\n      swap1\n      pop\n        /* \"#utility.yul\":16934:17142   */\n      jump(tag_313)\n    tag_315:\n        /* \"#utility.yul\":17170:17176   */\n      dup7\n        /* \"#utility.yul\":17161:17168   */\n      dup4\n        /* \"#utility.yul\":17158:17177   */\n      lt\n        /* \"#utility.yul\":17155:17334   */\n      iszero\n      tag_316\n      jumpi\n        /* \"#utility.yul\":17228:17237   */\n      dup5\n        /* \"#utility.yul\":17223:17226   */\n      dup10\n        /* \"#utility.yul\":17219:17238   */\n      add\n        /* \"#utility.yul\":17213:17239   */\n      mload\n        /* \"#utility.yul\":17271:17319   */\n      tag_317\n        /* \"#utility.yul\":17313:17317   */\n      0x1f\n        /* \"#utility.yul\":17305:17311   */\n      dup10\n        /* \"#utility.yul\":17301:17318   */\n      and\n        /* \"#utility.yul\":17290:17299   */\n      dup3\n        /* \"#utility.yul\":17271:17319   */\n      tag_125\n      jump\t// in\n    tag_317:\n        /* \"#utility.yul\":17263:17269   */\n      dup4\n        /* \"#utility.yul\":17256:17320   */\n      sstore\n        /* \"#utility.yul\":17178:17334   */\n      pop\n        /* \"#utility.yul\":17155:17334   */\n    tag_316:\n        /* \"#utility.yul\":17380:17381   */\n      0x01\n        /* \"#utility.yul\":17376:17377   */\n      0x02\n        /* \"#utility.yul\":17368:17374   */\n      dup9\n        /* \"#utility.yul\":17364:17378   */\n      mul\n        /* \"#utility.yul\":17360:17382   */\n      add\n        /* \"#utility.yul\":17354:17358   */\n      dup9\n        /* \"#utility.yul\":17347:17383   */\n      sstore\n        /* \"#utility.yul\":16782:17393   */\n      pop\n      pop\n      pop\n        /* \"#utility.yul\":16745:17632   */\n    tag_308:\n      pop\n        /* \"#utility.yul\":16335:17638   */\n      pop\n      pop\n      pop\n        /* \"#utility.yul\":16243:17638   */\n      pop\n      pop\n      jump\t// out\n        /* \"#utility.yul\":17644:17787   */\n    tag_127:\n        /* \"#utility.yul\":17701:17706   */\n      0x00\n        /* \"#utility.yul\":17732:17738   */\n      dup2\n        /* \"#utility.yul\":17726:17739   */\n      mload\n        /* \"#utility.yul\":17717:17739   */\n      swap1\n      pop\n        /* \"#utility.yul\":17748:17781   */\n      tag_319\n        /* \"#utility.yul\":17775:17780   */\n      dup2\n        /* \"#utility.yul\":17748:17781   */\n      tag_97\n      jump\t// in\n    tag_319:\n        /* \"#utility.yul\":17644:17787   */\n      swap3\n      swap2\n      pop\n      pop\n      jump\t// out\n        /* \"#utility.yul\":17793:18144   */\n    tag_67:\n        /* \"#utility.yul\":17863:17869   */\n      0x00\n        /* \"#utility.yul\":17912:17914   */\n      0x20\n        /* \"#utility.yul\":17900:17909   */\n      dup3\n        /* \"#utility.yul\":17891:17898   */\n      dup5\n        /* \"#utility.yul\":17887:17910   */\n      sub\n        /* \"#utility.yul\":17883:17915   */\n      slt\n        /* \"#utility.yul\":17880:17999   */\n      iszero\n      tag_321\n      jumpi\n        /* \"#utility.yul\":17918:17997   */\n      tag_322\n      tag_77\n      jump\t// in\n    tag_322:\n        /* \"#utility.yul\":17880:17999   */\n    tag_321:\n        /* \"#utility.yul\":18038:18039   */\n      0x00\n        /* \"#utility.yul\":18063:18127   */\n      tag_323\n        /* \"#utility.yul\":18119:18126   */\n      dup5\n        /* \"#utility.yul\":18110:18116   */\n      dup3\n        /* \"#utility.yul\":18099:18108   */\n      dup6\n        /* \"#utility.yul\":18095:18117   */\n      add\n        /* \"#utility.yul\":18063:18127   */\n      tag_127\n      jump\t// in\n    tag_323:\n        /* \"#utility.yul\":18053:18127   */\n      swap2\n      pop\n        /* \"#utility.yul\":18009:18137   */\n      pop\n        /* \"#utility.yul\":17793:18144   */\n      swap3\n      swap2\n      pop\n      pop\n      jump\t// out\n    stop\n\n    sub_0: assembly {\n            /* \"contracts/coct/coctNft.sol\":117:1892  contract CoctNft  {... */\n          mstore(0x40, 0x80)\n            /* \"contracts/coct/coctNft.sol\":470:723  constructor(string memory _name, string memory _symbol, string memory _uri, uint _price, address _payAddress) {... */\n          callvalue\n          dup1\n          iszero\n          tag_1\n          jumpi\n          0x00\n          dup1\n          revert\n        tag_1:\n          pop\n          mload(0x40)\n          sub(codesize, bytecodeSize)\n          dup1\n          bytecodeSize\n          dup4\n          codecopy\n          dup2\n          dup2\n          add\n          0x40\n          mstore\n          dup2\n          add\n          swap1\n          tag_2\n          swap2\n          swap1\n          tag_3\n          jump\t// in\n        tag_2:\n            /* \"contracts/coct/coctNft.sol\":598:603  _name */\n          dup5\n            /* \"contracts/coct/coctNft.sol\":591:595  name */\n          0x00\n            /* \"contracts/coct/coctNft.sol\":591:603  name = _name */\n          swap1\n          dup2\n          tag_6\n          swap2\n          swap1\n          tag_7\n          jump\t// in\n        tag_6:\n          pop\n            /* \"contracts/coct/coctNft.sol\":623:630  _symbol */\n          dup4\n            /* \"contracts/coct/coctNft.sol\":614:620  symbol */\n          0x01\n            /* \"contracts/coct/coctNft.sol\":614:630  symbol = _symbol */\n          swap1\n          dup2\n          tag_8\n          swap2\n          swap1\n          tag_7\n          jump\t// in\n        tag_8:\n          pop\n            /* \"contracts/coct/coctNft.sol\":647:651  _uri */\n          dup3\n            /* \"contracts/coct/coctNft.sol\":641:644  uri */\n          0x02\n            /* \"contracts/coct/coctNft.sol\":641:651  uri = _uri */\n          swap1\n          dup2\n          tag_9\n          swap2\n          swap1\n          tag_7\n          jump\t// in\n        tag_9:\n          pop\n            /* \"contracts/coct/coctNft.sol\":674:680  _price */\n          dup2\n            /* \"contracts/coct/coctNft.sol\":662:671  mintPrice */\n          0x03\n            /* \"contracts/coct/coctNft.sol\":662:680  mintPrice = _price */\n          dup2\n          swap1\n          sstore\n          pop\n            /* \"contracts/coct/coctNft.sol\":704:715  _payAddress */\n          dup1\n            /* \"contracts/coct/coctNft.sol\":691:701  payAddress */\n          0x04\n          0x00\n            /* \"contracts/coct/coctNft.sol\":691:715  payAddress = _payAddress */\n          0x0100\n          exp\n          dup2\n          sload\n          dup2\n          0xffffffffffffffffffffffffffffffffffffffff\n          mul\n          not\n          and\n          swap1\n          dup4\n          0xffffffffffffffffffffffffffffffffffffffff\n          and\n          mul\n          or\n          swap1\n          sstore\n          pop\n            /* \"contracts/coct/coctNft.sol\":470:723  constructor(string memory _name, string memory _symbol, string memory _uri, uint _price, address _payAddress) {... */\n          pop\n          pop\n          pop\n          pop\n          pop\n            /* \"contracts/coct/coctNft.sol\":117:1892  contract CoctNft  {... */\n          jump(tag_10)\n            /* \"#utility.yul\":7:82   */\n        tag_11:\n            /* \"#utility.yul\":40:46   */\n          0x00\n            /* \"#utility.yul\":73:75   */\n          0x40\n            /* \"#utility.yul\":67:76   */\n          mload\n            /* \"#utility.yul\":57:76   */\n          swap1\n          pop\n            /* \"#utility.yul\":7:82   */\n          swap1\n          jump\t// out\n            /* \"#utility.yul\":88:205   */\n        tag_12:\n            /* \"#utility.yul\":197:198   */\n          0x00\n            /* \"#utility.yul\":194:195   */\n          dup1\n            /* \"#utility.yul\":187:199   */\n          revert\n            /* \"#utility.yul\":211:328   */\n        tag_13:\n            /* \"#utility.yul\":320:321   */\n          0x00\n            /* \"#utility.yul\":317:318   */\n          dup1\n            /* \"#utility.yul\":310:322   */\n          revert\n            /* \"#utility.yul\":334:451   */\n        tag_14:\n            /* \"#utility.yul\":443:444   */\n          0x00\n            /* \"#utility.yul\":440:441   */\n          dup1\n            /* \"#utility.yul\":433:445   */\n          revert\n            /* \"#utility.yul\":457:574   */\n        tag_15:\n            /* \"#utility.yul\":566:567   */\n          0x00\n            /* \"#utility.yul\":563:564   */\n          dup1\n            /* \"#utility.yul\":556:568   */\n          revert\n            /* \"#utility.yul\":580:682   */\n        tag_16:\n            /* \"#utility.yul\":621:627   */\n          0x00\n            /* \"#utility.yul\":672:674   */\n          0x1f\n            /* \"#utility.yul\":668:675   */\n          not\n            /* \"#utility.yul\":663:665   */\n          0x1f\n            /* \"#utility.yul\":656:661   */\n          dup4\n            /* \"#utility.yul\":652:666   */\n          add\n            /* \"#utility.yul\":648:676   */\n          and\n            /* \"#utility.yul\":638:676   */\n          swap1\n          pop\n            /* \"#utility.yul\":580:682   */\n          swap2\n          swap1\n          pop\n          jump\t// out\n            /* \"#utility.yul\":688:868   */\n        tag_17:\n            /* \"#utility.yul\":736:813   */\n          0x4e487b7100000000000000000000000000000000000000000000000000000000\n            /* \"#utility.yul\":733:734   */\n          0x00\n            /* \"#utility.yul\":726:814   */\n          mstore\n            /* \"#utility.yul\":833:837   */\n          0x41\n            /* \"#utility.yul\":830:831   */\n          0x04\n            /* \"#utility.yul\":823:838   */\n          mstore\n            /* \"#utility.yul\":857:861   */\n          0x24\n            /* \"#utility.yul\":854:855   */\n          0x00\n            /* \"#utility.yul\":847:862   */\n          revert\n            /* \"#utility.yul\":874:1155   */\n        tag_18:\n            /* \"#utility.yul\":957:984   */\n          tag_58\n            /* \"#utility.yul\":979:983   */\n          dup3\n            /* \"#utility.yul\":957:984   */\n          tag_16\n          jump\t// in\n        tag_58:\n            /* \"#utility.yul\":949:955   */\n          dup2\n            /* \"#utility.yul\":945:985   */\n          add\n            /* \"#utility.yul\":1087:1093   */\n          dup2\n            /* \"#utility.yul\":1075:1085   */\n          dup2\n            /* \"#utility.yul\":1072:1094   */\n          lt\n            /* \"#utility.yul\":1051:1069   */\n          0xffffffffffffffff\n            /* \"#utility.yul\":1039:1049   */\n          dup3\n            /* \"#utility.yul\":1036:1070   */\n          gt\n            /* \"#utility.yul\":1033:1095   */\n          or\n            /* \"#utility.yul\":1030:1118   */\n          iszero\n          tag_59\n          jumpi\n            /* \"#utility.yul\":1098:1116   */\n          tag_60\n          tag_17\n          jump\t// in\n        tag_60:\n            /* \"#utility.yul\":1030:1118   */\n        tag_59:\n            /* \"#utility.yul\":1138:1148   */\n          dup1\n            /* \"#utility.yul\":1134:1136   */\n          0x40\n            /* \"#utility.yul\":1127:1149   */\n          mstore\n            /* \"#utility.yul\":917:1155   */\n          pop\n            /* \"#utility.yul\":874:1155   */\n          pop\n          pop\n          jump\t// out\n            /* \"#utility.yul\":1161:1290   */\n        tag_19:\n            /* \"#utility.yul\":1195:1201   */\n          0x00\n            /* \"#utility.yul\":1222:1242   */\n          tag_62\n          tag_11\n          jump\t// in\n        tag_62:\n            /* \"#utility.yul\":1212:1242   */\n          swap1\n          pop\n            /* \"#utility.yul\":1251:1284   */\n          tag_63\n            /* \"#utility.yul\":1279:1283   */\n          dup3\n            /* \"#utility.yul\":1271:1277   */\n          dup3\n            /* \"#utility.yul\":1251:1284   */\n          tag_18\n          jump\t// in\n        tag_63:\n            /* \"#utility.yul\":1161:1290   */\n          swap2\n          swap1\n          pop\n          jump\t// out\n            /* \"#utility.yul\":1296:1604   */\n        tag_20:\n            /* \"#utility.yul\":1358:1362   */\n          0x00\n            /* \"#utility.yul\":1448:1466   */\n          0xffffffffffffffff\n            /* \"#utility.yul\":1440:1446   */\n          dup3\n            /* \"#utility.yul\":1437:1467   */\n          gt\n            /* \"#utility.yul\":1434:1490   */\n          iszero\n          tag_65\n          jumpi\n            /* \"#utility.yul\":1470:1488   */\n          tag_66\n          tag_17\n          jump\t// in\n        tag_66:\n            /* \"#utility.yul\":1434:1490   */\n        tag_65:\n            /* \"#utility.yul\":1508:1537   */\n          tag_67\n            /* \"#utility.yul\":1530:1536   */\n          dup3\n            /* \"#utility.yul\":1508:1537   */\n          tag_16\n          jump\t// in\n        tag_67:\n            /* \"#utility.yul\":1500:1537   */\n          swap1\n          pop\n            /* \"#utility.yul\":1592:1596   */\n          0x20\n            /* \"#utility.yul\":1586:1590   */\n          dup2\n            /* \"#utility.yul\":1582:1597   */\n          add\n            /* \"#utility.yul\":1574:1597   */\n          swap1\n          pop\n            /* \"#utility.yul\":1296:1604   */\n          swap2\n          swap1\n          pop\n          jump\t// out\n            /* \"#utility.yul\":1610:1749   */\n        tag_21:\n            /* \"#utility.yul\":1699:1705   */\n          dup3\n            /* \"#utility.yul\":1694:1697   */\n          dup2\n            /* \"#utility.yul\":1689:1692   */\n          dup4\n            /* \"#utility.yul\":1683:1706   */\n          mcopy\n            /* \"#utility.yul\":1740:1741   */\n          0x00\n            /* \"#utility.yul\":1731:1737   */\n          dup4\n            /* \"#utility.yul\":1726:1729   */\n          dup4\n            /* \"#utility.yul\":1722:1738   */\n          add\n            /* \"#utility.yul\":1715:1742   */\n          mstore\n            /* \"#utility.yul\":1610:1749   */\n          pop\n          pop\n          pop\n          jump\t// out\n            /* \"#utility.yul\":1755:2189   */\n        tag_22:\n            /* \"#utility.yul\":1844:1849   */\n          0x00\n            /* \"#utility.yul\":1869:1935   */\n          tag_70\n            /* \"#utility.yul\":1885:1934   */\n          tag_71\n            /* \"#utility.yul\":1927:1933   */\n          dup5\n            /* \"#utility.yul\":1885:1934   */\n          tag_20\n          jump\t// in\n        tag_71:\n            /* \"#utility.yul\":1869:1935   */\n          tag_19\n          jump\t// in\n        tag_70:\n            /* \"#utility.yul\":1860:1935   */\n          swap1\n          pop\n            /* \"#utility.yul\":1958:1964   */\n          dup3\n            /* \"#utility.yul\":1951:1956   */\n          dup2\n            /* \"#utility.yul\":1944:1965   */\n          mstore\n            /* \"#utility.yul\":1996:2000   */\n          0x20\n            /* \"#utility.yul\":1989:1994   */\n          dup2\n            /* \"#utility.yul\":1985:2001   */\n          add\n            /* \"#utility.yul\":2034:2037   */\n          dup5\n            /* \"#utility.yul\":2025:2031   */\n          dup5\n            /* \"#utility.yul\":2020:2023   */\n          dup5\n            /* \"#utility.yul\":2016:2032   */\n          add\n            /* \"#utility.yul\":2013:2038   */\n          gt\n            /* \"#utility.yul\":2010:2122   */\n          iszero\n          tag_72\n          jumpi\n            /* \"#utility.yul\":2041:2120   */\n          tag_73\n          tag_15\n          jump\t// in\n        tag_73:\n            /* \"#utility.yul\":2010:2122   */\n        tag_72:\n            /* \"#utility.yul\":2131:2183   */\n          tag_74\n            /* \"#utility.yul\":2176:2182   */\n          dup5\n            /* \"#utility.yul\":2171:2174   */\n          dup3\n            /* \"#utility.yul\":2166:2169   */\n          dup6\n            /* \"#utility.yul\":2131:2183   */\n          tag_21\n          jump\t// in\n        tag_74:\n            /* \"#utility.yul\":1850:2189   */\n          pop\n            /* \"#utility.yul\":1755:2189   */\n          swap4\n          swap3\n          pop\n          pop\n          pop\n          jump\t// out\n            /* \"#utility.yul\":2209:2564   */\n        tag_23:\n            /* \"#utility.yul\":2276:2281   */\n          0x00\n            /* \"#utility.yul\":2325:2328   */\n          dup3\n            /* \"#utility.yul\":2318:2322   */\n          0x1f\n            /* \"#utility.yul\":2310:2316   */\n          dup4\n            /* \"#utility.yul\":2306:2323   */\n          add\n            /* \"#utility.yul\":2302:2329   */\n          slt\n            /* \"#utility.yul\":2292:2414   */\n          tag_76\n          jumpi\n            /* \"#utility.yul\":2333:2412   */\n          tag_77\n          tag_14\n          jump\t// in\n        tag_77:\n            /* \"#utility.yul\":2292:2414   */\n        tag_76:\n            /* \"#utility.yul\":2443:2449   */\n          dup2\n            /* \"#utility.yul\":2437:2450   */\n          mload\n            /* \"#utility.yul\":2468:2558   */\n          tag_78\n            /* \"#utility.yul\":2554:2557   */\n          dup5\n            /* \"#utility.yul\":2546:2552   */\n          dup3\n            /* \"#utility.yul\":2539:2543   */\n          0x20\n            /* \"#utility.yul\":2531:2537   */\n          dup7\n            /* \"#utility.yul\":2527:2544   */\n          add\n            /* \"#utility.yul\":2468:2558   */\n          tag_22\n          jump\t// in\n        tag_78:\n            /* \"#utility.yul\":2459:2558   */\n          swap2\n          pop\n            /* \"#utility.yul\":2282:2564   */\n          pop\n            /* \"#utility.yul\":2209:2564   */\n          swap3\n          swap2\n          pop\n          pop\n          jump\t// out\n            /* \"#utility.yul\":2570:2647   */\n        tag_24:\n            /* \"#utility.yul\":2607:2614   */\n          0x00\n            /* \"#utility.yul\":2636:2641   */\n          dup2\n            /* \"#utility.yul\":2625:2641   */\n          swap1\n          pop\n            /* \"#utility.yul\":2570:2647   */\n          swap2\n          swap1\n          pop\n          jump\t// out\n            /* \"#utility.yul\":2653:2775   */\n        tag_25:\n            /* \"#utility.yul\":2726:2750   */\n          tag_81\n            /* \"#utility.yul\":2744:2749   */\n          dup2\n            /* \"#utility.yul\":2726:2750   */\n          tag_24\n          jump\t// in\n        tag_81:\n            /* \"#utility.yul\":2719:2724   */\n          dup2\n            /* \"#utility.yul\":2716:2751   */\n          eq\n            /* \"#utility.yul\":2706:2769   */\n          tag_82\n          jumpi\n            /* \"#utility.yul\":2765:2766   */\n          0x00\n            /* \"#utility.yul\":2762:2763   */\n          dup1\n            /* \"#utility.yul\":2755:2767   */\n          revert\n            /* \"#utility.yul\":2706:2769   */\n        tag_82:\n            /* \"#utility.yul\":2653:2775   */\n          pop\n          jump\t// out\n            /* \"#utility.yul\":2781:2924   */\n        tag_26:\n            /* \"#utility.yul\":2838:2843   */\n          0x00\n            /* \"#utility.yul\":2869:2875   */\n          dup2\n            /* \"#utility.yul\":2863:2876   */\n          mload\n            /* \"#utility.yul\":2854:2876   */\n          swap1\n          pop\n            /* \"#utility.yul\":2885:2918   */\n          tag_84\n            /* \"#utility.yul\":2912:2917   */\n          dup2\n            /* \"#utility.yul\":2885:2918   */\n          tag_25\n          jump\t// in\n        tag_84:\n            /* \"#utility.yul\":2781:2924   */\n          swap3\n          swap2\n          pop\n          pop\n          jump\t// out\n            /* \"#utility.yul\":2930:3056   */\n        tag_27:\n            /* \"#utility.yul\":2967:2974   */\n          0x00\n            /* \"#utility.yul\":3007:3049   */\n          0xffffffffffffffffffffffffffffffffffffffff\n            /* \"#utility.yul\":3000:3005   */\n          dup3\n            /* \"#utility.yul\":2996:3050   */\n          and\n            /* \"#utility.yul\":2985:3050   */\n          swap1\n          pop\n            /* \"#utility.yul\":2930:3056   */\n          swap2\n          swap1\n          pop\n          jump\t// out\n            /* \"#utility.yul\":3062:3158   */\n        tag_28:\n            /* \"#utility.yul\":3099:3106   */\n          0x00\n            /* \"#utility.yul\":3128:3152   */\n          tag_87\n            /* \"#utility.yul\":3146:3151   */\n          dup3\n            /* \"#utility.yul\":3128:3152   */\n          tag_27\n          jump\t// in\n        tag_87:\n            /* \"#utility.yul\":3117:3152   */\n          swap1\n          pop\n            /* \"#utility.yul\":3062:3158   */\n          swap2\n          swap1\n          pop\n          jump\t// out\n            /* \"#utility.yul\":3164:3286   */\n        tag_29:\n            /* \"#utility.yul\":3237:3261   */\n          tag_89\n            /* \"#utility.yul\":3255:3260   */\n          dup2\n            /* \"#utility.yul\":3237:3261   */\n          tag_28\n          jump\t// in\n        tag_89:\n            /* \"#utility.yul\":3230:3235   */\n          dup2\n            /* \"#utility.yul\":3227:3262   */\n          eq\n            /* \"#utility.yul\":3217:3280   */\n          tag_90\n          jumpi\n            /* \"#utility.yul\":3276:3277   */\n          0x00\n            /* \"#utility.yul\":3273:3274   */\n          dup1\n            /* \"#utility.yul\":3266:3278   */\n          revert\n            /* \"#utility.yul\":3217:3280   */\n        tag_90:\n            /* \"#utility.yul\":3164:3286   */\n          pop\n          jump\t// out\n            /* \"#utility.yul\":3292:3435   */\n        tag_30:\n            /* \"#utility.yul\":3349:3354   */\n          0x00\n            /* \"#utility.yul\":3380:3386   */\n          dup2\n            /* \"#utility.yul\":3374:3387   */\n          mload\n            /* \"#utility.yul\":3365:3387   */\n          swap1\n          pop\n            /* \"#utility.yul\":3396:3429   */\n          tag_92\n            /* \"#utility.yul\":3423:3428   */\n          dup2\n            /* \"#utility.yul\":3396:3429   */\n          tag_29\n          jump\t// in\n        tag_92:\n            /* \"#utility.yul\":3292:3435   */\n          swap3\n          swap2\n          pop\n          pop\n          jump\t// out\n            /* \"#utility.yul\":3441:4937   */\n        tag_3:\n            /* \"#utility.yul\":3577:3583   */\n          0x00\n            /* \"#utility.yul\":3585:3591   */\n          dup1\n            /* \"#utility.yul\":3593:3599   */\n          0x00\n            /* \"#utility.yul\":3601:3607   */\n          dup1\n            /* \"#utility.yul\":3609:3615   */\n          0x00\n            /* \"#utility.yul\":3658:3661   */\n          0xa0\n            /* \"#utility.yul\":3646:3655   */\n          dup7\n            /* \"#utility.yul\":3637:3644   */\n          dup9\n            /* \"#utility.yul\":3633:3656   */\n          sub\n            /* \"#utility.yul\":3629:3662   */\n          slt\n            /* \"#utility.yul\":3626:3746   */\n          iszero\n          tag_94\n          jumpi\n            /* \"#utility.yul\":3665:3744   */\n          tag_95\n          tag_12\n          jump\t// in\n        tag_95:\n            /* \"#utility.yul\":3626:3746   */\n        tag_94:\n            /* \"#utility.yul\":3806:3807   */\n          0x00\n            /* \"#utility.yul\":3795:3804   */\n          dup7\n            /* \"#utility.yul\":3791:3808   */\n          add\n            /* \"#utility.yul\":3785:3809   */\n          mload\n            /* \"#utility.yul\":3836:3854   */\n          0xffffffffffffffff\n            /* \"#utility.yul\":3828:3834   */\n          dup2\n            /* \"#utility.yul\":3825:3855   */\n          gt\n            /* \"#utility.yul\":3822:3939   */\n          iszero\n          tag_96\n          jumpi\n            /* \"#utility.yul\":3858:3937   */\n          tag_97\n          tag_13\n          jump\t// in\n        tag_97:\n            /* \"#utility.yul\":3822:3939   */\n        tag_96:\n            /* \"#utility.yul\":3963:4037   */\n          tag_98\n            /* \"#utility.yul\":4029:4036   */\n          dup9\n            /* \"#utility.yul\":4020:4026   */\n          dup3\n            /* \"#utility.yul\":4009:4018   */\n          dup10\n            /* \"#utility.yul\":4005:4027   */\n          add\n            /* \"#utility.yul\":3963:4037   */\n          tag_23\n          jump\t// in\n        tag_98:\n            /* \"#utility.yul\":3953:4037   */\n          swap6\n          pop\n            /* \"#utility.yul\":3756:4047   */\n          pop\n            /* \"#utility.yul\":4107:4109   */\n          0x20\n            /* \"#utility.yul\":4096:4105   */\n          dup7\n            /* \"#utility.yul\":4092:4110   */\n          add\n            /* \"#utility.yul\":4086:4111   */\n          mload\n            /* \"#utility.yul\":4138:4156   */\n          0xffffffffffffffff\n            /* \"#utility.yul\":4130:4136   */\n          dup2\n            /* \"#utility.yul\":4127:4157   */\n          gt\n            /* \"#utility.yul\":4124:4241   */\n          iszero\n          tag_99\n          jumpi\n            /* \"#utility.yul\":4160:4239   */\n          tag_100\n          tag_13\n          jump\t// in\n        tag_100:\n            /* \"#utility.yul\":4124:4241   */\n        tag_99:\n            /* \"#utility.yul\":4265:4339   */\n          tag_101\n            /* \"#utility.yul\":4331:4338   */\n          dup9\n            /* \"#utility.yul\":4322:4328   */\n          dup3\n            /* \"#utility.yul\":4311:4320   */\n          dup10\n            /* \"#utility.yul\":4307:4329   */\n          add\n            /* \"#utility.yul\":4265:4339   */\n          tag_23\n          jump\t// in\n        tag_101:\n            /* \"#utility.yul\":4255:4339   */\n          swap5\n          pop\n            /* \"#utility.yul\":4057:4349   */\n          pop\n            /* \"#utility.yul\":4409:4411   */\n          0x40\n            /* \"#utility.yul\":4398:4407   */\n          dup7\n            /* \"#utility.yul\":4394:4412   */\n          add\n            /* \"#utility.yul\":4388:4413   */\n          mload\n            /* \"#utility.yul\":4440:4458   */\n          0xffffffffffffffff\n            /* \"#utility.yul\":4432:4438   */\n          dup2\n            /* \"#utility.yul\":4429:4459   */\n          gt\n            /* \"#utility.yul\":4426:4543   */\n          iszero\n          tag_102\n          jumpi\n            /* \"#utility.yul\":4462:4541   */\n          tag_103\n          tag_13\n          jump\t// in\n        tag_103:\n            /* \"#utility.yul\":4426:4543   */\n        tag_102:\n            /* \"#utility.yul\":4567:4641   */\n          tag_104\n            /* \"#utility.yul\":4633:4640   */\n          dup9\n            /* \"#utility.yul\":4624:4630   */\n          dup3\n            /* \"#utility.yul\":4613:4622   */\n          dup10\n            /* \"#utility.yul\":4609:4631   */\n          add\n            /* \"#utility.yul\":4567:4641   */\n          tag_23\n          jump\t// in\n        tag_104:\n            /* \"#utility.yul\":4557:4641   */\n          swap4\n          pop\n            /* \"#utility.yul\":4359:4651   */\n          pop\n            /* \"#utility.yul\":4690:4692   */\n          0x60\n            /* \"#utility.yul\":4716:4780   */\n          tag_105\n            /* \"#utility.yul\":4772:4779   */\n          dup9\n            /* \"#utility.yul\":4763:4769   */\n          dup3\n            /* \"#utility.yul\":4752:4761   */\n          dup10\n            /* \"#utility.yul\":4748:4770   */\n          add\n            /* \"#utility.yul\":4716:4780   */\n          tag_26\n          jump\t// in\n        tag_105:\n            /* \"#utility.yul\":4706:4780   */\n          swap3\n          pop\n            /* \"#utility.yul\":4661:4790   */\n          pop\n            /* \"#utility.yul\":4829:4832   */\n          0x80\n            /* \"#utility.yul\":4856:4920   */\n          tag_106\n            /* \"#utility.yul\":4912:4919   */\n          dup9\n            /* \"#utility.yul\":4903:4909   */\n          dup3\n            /* \"#utility.yul\":4892:4901   */\n          dup10\n            /* \"#utility.yul\":4888:4910   */\n          add\n            /* \"#utility.yul\":4856:4920   */\n          tag_30\n          jump\t// in\n        tag_106:\n            /* \"#utility.yul\":4846:4920   */\n          swap2\n          pop\n            /* \"#utility.yul\":4800:4930   */\n          pop\n            /* \"#utility.yul\":3441:4937   */\n          swap3\n          swap6\n          pop\n          swap3\n          swap6\n          swap1\n          swap4\n          pop\n          jump\t// out\n            /* \"#utility.yul\":4943:5042   */\n        tag_31:\n            /* \"#utility.yul\":4995:5001   */\n          0x00\n            /* \"#utility.yul\":5029:5034   */\n          dup2\n            /* \"#utility.yul\":5023:5035   */\n          mload\n            /* \"#utility.yul\":5013:5035   */\n          swap1\n          pop\n            /* \"#utility.yul\":4943:5042   */\n          swap2\n          swap1\n          pop\n          jump\t// out\n            /* \"#utility.yul\":5048:5228   */\n        tag_32:\n            /* \"#utility.yul\":5096:5173   */\n          0x4e487b7100000000000000000000000000000000000000000000000000000000\n            /* \"#utility.yul\":5093:5094   */\n          0x00\n            /* \"#utility.yul\":5086:5174   */\n          mstore\n            /* \"#utility.yul\":5193:5197   */\n          0x22\n            /* \"#utility.yul\":5190:5191   */\n          0x04\n            /* \"#utility.yul\":5183:5198   */\n          mstore\n            /* \"#utility.yul\":5217:5221   */\n          0x24\n            /* \"#utility.yul\":5214:5215   */\n          0x00\n            /* \"#utility.yul\":5207:5222   */\n          revert\n            /* \"#utility.yul\":5234:5554   */\n        tag_33:\n            /* \"#utility.yul\":5278:5284   */\n          0x00\n            /* \"#utility.yul\":5315:5316   */\n          0x02\n            /* \"#utility.yul\":5309:5313   */\n          dup3\n            /* \"#utility.yul\":5305:5317   */\n          div\n            /* \"#utility.yul\":5295:5317   */\n          swap1\n          pop\n            /* \"#utility.yul\":5362:5363   */\n          0x01\n            /* \"#utility.yul\":5356:5360   */\n          dup3\n            /* \"#utility.yul\":5352:5364   */\n          and\n            /* \"#utility.yul\":5383:5401   */\n          dup1\n            /* \"#utility.yul\":5373:5454   */\n          tag_110\n          jumpi\n            /* \"#utility.yul\":5439:5443   */\n          0x7f\n            /* \"#utility.yul\":5431:5437   */\n          dup3\n            /* \"#utility.yul\":5427:5444   */\n          and\n            /* \"#utility.yul\":5417:5444   */\n          swap2\n          pop\n            /* \"#utility.yul\":5373:5454   */\n        tag_110:\n            /* \"#utility.yul\":5501:5503   */\n          0x20\n            /* \"#utility.yul\":5493:5499   */\n          dup3\n            /* \"#utility.yul\":5490:5504   */\n          lt\n            /* \"#utility.yul\":5470:5488   */\n          dup2\n            /* \"#utility.yul\":5467:5505   */\n          sub\n            /* \"#utility.yul\":5464:5548   */\n          tag_111\n          jumpi\n            /* \"#utility.yul\":5520:5538   */\n          tag_112\n          tag_32\n          jump\t// in\n        tag_112:\n            /* \"#utility.yul\":5464:5548   */\n        tag_111:\n            /* \"#utility.yul\":5285:5554   */\n          pop\n            /* \"#utility.yul\":5234:5554   */\n          swap2\n          swap1\n          pop\n          jump\t// out\n            /* \"#utility.yul\":5560:5701   */\n        tag_34:\n            /* \"#utility.yul\":5609:5613   */\n          0x00\n            /* \"#utility.yul\":5632:5635   */\n          dup2\n            /* \"#utility.yul\":5624:5635   */\n          swap1\n          pop\n            /* \"#utility.yul\":5655:5658   */\n          dup2\n            /* \"#utility.yul\":5652:5653   */\n          0x00\n            /* \"#utility.yul\":5645:5659   */\n          mstore\n            /* \"#utility.yul\":5689:5693   */\n          0x20\n            /* \"#utility.yul\":5686:5687   */\n          0x00\n            /* \"#utility.yul\":5676:5694   */\n          keccak256\n            /* \"#utility.yul\":5668:5694   */\n          swap1\n          pop\n            /* \"#utility.yul\":5560:5701   */\n          swap2\n          swap1\n          pop\n          jump\t// out\n            /* \"#utility.yul\":5707:5800   */\n        tag_35:\n            /* \"#utility.yul\":5744:5750   */\n          0x00\n            /* \"#utility.yul\":5791:5793   */\n          0x20\n            /* \"#utility.yul\":5786:5788   */\n          0x1f\n            /* \"#utility.yul\":5779:5784   */\n          dup4\n            /* \"#utility.yul\":5775:5789   */\n          add\n            /* \"#utility.yul\":5771:5794   */\n          div\n            /* \"#utility.yul\":5761:5794   */\n          swap1\n          pop\n            /* \"#utility.yul\":5707:5800   */\n          swap2\n          swap1\n          pop\n          jump\t// out\n            /* \"#utility.yul\":5806:5913   */\n        tag_36:\n            /* \"#utility.yul\":5850:5858   */\n          0x00\n            /* \"#utility.yul\":5900:5905   */\n          dup3\n            /* \"#utility.yul\":5894:5898   */\n          dup3\n            /* \"#utility.yul\":5890:5906   */\n          shl\n            /* \"#utility.yul\":5869:5906   */\n          swap1\n          pop\n            /* \"#utility.yul\":5806:5913   */\n          swap3\n          swap2\n          pop\n          pop\n          jump\t// out\n            /* \"#utility.yul\":5919:6312   */\n        tag_37:\n            /* \"#utility.yul\":5988:5994   */\n          0x00\n            /* \"#utility.yul\":6038:6039   */\n          0x08\n            /* \"#utility.yul\":6026:6036   */\n          dup4\n            /* \"#utility.yul\":6022:6040   */\n          mul\n            /* \"#utility.yul\":6061:6158   */\n          tag_117\n            /* \"#utility.yul\":6091:6157   */\n          0xffffffffffffffffffffffffffffffffffffffffffffffffffffffffffffffff\n            /* \"#utility.yul\":6080:6089   */\n          dup3\n            /* \"#utility.yul\":6061:6158   */\n          tag_36\n          jump\t// in\n        tag_117:\n            /* \"#utility.yul\":6179:6218   */\n          tag_118\n            /* \"#utility.yul\":6209:6217   */\n          dup7\n            /* \"#utility.yul\":6198:6207   */\n          dup4\n            /* \"#utility.yul\":6179:6218   */\n          tag_36\n          jump\t// in\n        tag_118:\n            /* \"#utility.yul\":6167:6218   */\n          swap6\n          pop\n            /* \"#utility.yul\":6251:6255   */\n          dup1\n            /* \"#utility.yul\":6247:6256   */\n          not\n            /* \"#utility.yul\":6240:6245   */\n          dup5\n            /* \"#utility.yul\":6236:6257   */\n          and\n            /* \"#utility.yul\":6227:6257   */\n          swap4\n          pop\n            /* \"#utility.yul\":6300:6304   */\n          dup1\n            /* \"#utility.yul\":6290:6298   */\n          dup7\n            /* \"#utility.yul\":6286:6305   */\n          and\n            /* \"#utility.yul\":6279:6284   */\n          dup5\n            /* \"#utility.yul\":6276:6306   */\n          or\n            /* \"#utility.yul\":6266:6306   */\n          swap3\n          pop\n            /* \"#utility.yul\":5995:6312   */\n          pop\n          pop\n            /* \"#utility.yul\":5919:6312   */\n          swap4\n          swap3\n          pop\n          pop\n          pop\n          jump\t// out\n            /* \"#utility.yul\":6318:6378   */\n        tag_38:\n            /* \"#utility.yul\":6346:6349   */\n          0x00\n            /* \"#utility.yul\":6367:6372   */\n          dup2\n            /* \"#utility.yul\":6360:6372   */\n          swap1\n          pop\n            /* \"#utility.yul\":6318:6378   */\n          swap2\n          swap1\n          pop\n          jump\t// out\n            /* \"#utility.yul\":6384:6526   */\n        tag_39:\n            /* \"#utility.yul\":6434:6443   */\n          0x00\n            /* \"#utility.yul\":6467:6520   */\n          tag_121\n            /* \"#utility.yul\":6485:6519   */\n          tag_122\n            /* \"#utility.yul\":6494:6518   */\n          tag_123\n            /* \"#utility.yul\":6512:6517   */\n          dup5\n            /* \"#utility.yul\":6494:6518   */\n          tag_24\n          jump\t// in\n        tag_123:\n            /* \"#utility.yul\":6485:6519   */\n          tag_38\n          jump\t// in\n        tag_122:\n            /* \"#utility.yul\":6467:6520   */\n          tag_24\n          jump\t// in\n        tag_121:\n            /* \"#utility.yul\":6454:6520   */\n          swap1\n          pop\n            /* \"#utility.yul\":6384:6526   */\n          swap2\n          swap1\n          pop\n          jump\t// out\n            /* \"#utility.yul\":6532:6607   */\n        tag_40:\n            /* \"#utility.yul\":6575:6578   */\n          0x00\n            /* \"#utility.yul\":6596:6601   */\n          dup2\n            /* \"#utility.yul\":6589:6601   */\n          swap1\n          pop\n            /* \"#utility.yul\":6532:6607   */\n          swap2\n          swap1\n          pop\n          jump\t// out\n            /* \"#utility.yul\":6613:6882   */\n        tag_41:\n            /* \"#utility.yul\":6723:6762   */\n          tag_126\n            /* \"#utility.yul\":6754:6761   */\n          dup4\n            /* \"#utility.yul\":6723:6762   */\n          tag_39\n          jump\t// in\n        tag_126:\n            /* \"#utility.yul\":6784:6875   */\n          tag_127\n            /* \"#utility.yul\":6833:6874   */\n          tag_128\n            /* \"#utility.yul\":6857:6873   */\n          dup3\n            /* \"#utility.yul\":6833:6874   */\n          tag_40\n          jump\t// in\n        tag_128:\n            /* \"#utility.yul\":6825:6831   */\n          dup5\n            /* \"#utility.yul\":6818:6822   */\n          dup5\n            /* \"#utility.yul\":6812:6823   */\n          sload\n            /* \"#utility.yul\":6784:6875   */\n          tag_37\n          jump\t// in\n        tag_127:\n            /* \"#utility.yul\":6778:6782   */\n          dup3\n            /* \"#utility.yul\":6771:6876   */\n          sstore\n            /* \"#utility.yul\":6689:6882   */\n          pop\n            /* \"#utility.yul\":6613:6882   */\n          pop\n          pop\n          pop\n          jump\t// out\n            /* \"#utility.yul\":6888:6961   */\n        tag_42:\n            /* \"#utility.yul\":6933:6936   */\n          0x00\n            /* \"#utility.yul\":6888:6961   */\n          swap1\n          jump\t// out\n            /* \"#utility.yul\":6967:7156   */\n        tag_43:\n            /* \"#utility.yul\":7044:7076   */\n          tag_131\n          tag_42\n          jump\t// in\n        tag_131:\n            /* \"#utility.yul\":7085:7150   */\n          tag_132\n            /* \"#utility.yul\":7143:7149   */\n          dup2\n            /* \"#utility.yul\":7135:7141   */\n          dup5\n            /* \"#utility.yul\":7129:7133   */\n          dup5\n            /* \"#utility.yul\":7085:7150   */\n          tag_41\n          jump\t// in\n        tag_132:\n            /* \"#utility.yul\":7020:7156   */\n          pop\n            /* \"#utility.yul\":6967:7156   */\n          pop\n          pop\n          jump\t// out\n            /* \"#utility.yul\":7162:7348   */\n        tag_44:\n            /* \"#utility.yul\":7222:7342   */\n        tag_134:\n            /* \"#utility.yul\":7239:7242   */\n          dup2\n            /* \"#utility.yul\":7232:7237   */\n          dup2\n            /* \"#utility.yul\":7229:7243   */\n          lt\n            /* \"#utility.yul\":7222:7342   */\n          iszero\n          tag_136\n          jumpi\n            /* \"#utility.yul\":7293:7332   */\n          tag_137\n            /* \"#utility.yul\":7330:7331   */\n          0x00\n            /* \"#utility.yul\":7323:7328   */\n          dup3\n            /* \"#utility.yul\":7293:7332   */\n          tag_43\n          jump\t// in\n        tag_137:\n            /* \"#utility.yul\":7266:7267   */\n          0x01\n            /* \"#utility.yul\":7259:7264   */\n          dup2\n            /* \"#utility.yul\":7255:7268   */\n          add\n            /* \"#utility.yul\":7246:7268   */\n          swap1\n          pop\n            /* \"#utility.yul\":7222:7342   */\n          jump(tag_134)\n        tag_136:\n            /* \"#utility.yul\":7162:7348   */\n          pop\n          pop\n          jump\t// out\n            /* \"#utility.yul\":7354:7897   */\n        tag_45:\n            /* \"#utility.yul\":7455:7457   */\n          0x1f\n            /* \"#utility.yul\":7450:7453   */\n          dup3\n            /* \"#utility.yul\":7447:7458   */\n          gt\n            /* \"#utility.yul\":7444:7890   */\n          iszero\n          tag_139\n          jumpi\n            /* \"#utility.yul\":7489:7527   */\n          tag_140\n            /* \"#utility.yul\":7521:7526   */\n          dup2\n            /* \"#utility.yul\":7489:7527   */\n          tag_34\n          jump\t// in\n        tag_140:\n            /* \"#utility.yul\":7573:7602   */\n          tag_141\n            /* \"#utility.yul\":7591:7601   */\n          dup5\n            /* \"#utility.yul\":7573:7602   */\n          tag_35\n          jump\t// in\n        tag_141:\n            /* \"#utility.yul\":7563:7571   */\n          dup2\n            /* \"#utility.yul\":7559:7603   */\n          add\n            /* \"#utility.yul\":7756:7758   */\n          0x20\n            /* \"#utility.yul\":7744:7754   */\n          dup6\n            /* \"#utility.yul\":7741:7759   */\n          lt\n            /* \"#utility.yul\":7738:7787   */\n          iszero\n          tag_142\n          jumpi\n            /* \"#utility.yul\":7777:7785   */\n          dup2\n            /* \"#utility.yul\":7762:7785   */\n          swap1\n          pop\n            /* \"#utility.yul\":7738:7787   */\n        tag_142:\n            /* \"#utility.yul\":7800:7880   */\n          tag_143\n            /* \"#utility.yul\":7856:7878   */\n          tag_144\n            /* \"#utility.yul\":7874:7877   */\n          dup6\n            /* \"#utility.yul\":7856:7878   */\n          tag_35\n          jump\t// in\n        tag_144:\n            /* \"#utility.yul\":7846:7854   */\n          dup4\n            /* \"#utility.yul\":7842:7879   */\n          add\n            /* \"#utility.yul\":7829:7840   */\n          dup3\n            /* \"#utility.yul\":7800:7880   */\n          tag_44\n          jump\t// in\n        tag_143:\n            /* \"#utility.yul\":7459:7890   */\n          pop\n          pop\n            /* \"#utility.yul\":7444:7890   */\n        tag_139:\n            /* \"#utility.yul\":7354:7897   */\n          pop\n          pop\n          pop\n          jump\t// out\n            /* \"#utility.yul\":7903:8020   */\n        tag_46:\n            /* \"#utility.yul\":7957:7965   */\n          0x00\n            /* \"#utility.yul\":8007:8012   */\n          dup3\n            /* \"#utility.yul\":8001:8005   */\n          dup3\n            /* \"#utility.yul\":7997:8013   */\n          shr\n            /* \"#utility.yul\":7976:8013   */\n          swap1\n          pop\n            /* \"#utility.yul\":7903:8020   */\n          swap3\n          swap2\n          pop\n          pop\n          jump\t// out\n            /* \"#utility.yul\":8026:8195   */\n        tag_47:\n            /* \"#utility.yul\":8070:8076   */\n          0x00\n            /* \"#utility.yul\":8103:8154   */\n          tag_147\n            /* \"#utility.yul\":8151:8152   */\n          0x00\n            /* \"#utility.yul\":8147:8153   */\n          not\n            /* \"#utility.yul\":8139:8144   */\n          dup5\n            /* \"#utility.yul\":8136:8137   */\n          0x08\n            /* \"#utility.yul\":8132:8145   */\n          mul\n            /* \"#utility.yul\":8103:8154   */\n          tag_46\n          jump\t// in\n        tag_147:\n            /* \"#utility.yul\":8099:8155   */\n          not\n            /* \"#utility.yul\":8184:8188   */\n          dup1\n            /* \"#utility.yul\":8178:8182   */\n          dup4\n            /* \"#utility.yul\":8174:8189   */\n          and\n            /* \"#utility.yul\":8164:8189   */\n          swap2\n          pop\n            /* \"#utility.yul\":8077:8195   */\n          pop\n            /* \"#utility.yul\":8026:8195   */\n          swap3\n          swap2\n          pop\n          pop\n          jump\t// out\n            /* \"#utility.yul\":8200:8495   */\n        tag_48:\n            /* \"#utility.yul\":8276:8280   */\n          0x00\n            /* \"#utility.yul\":8422:8451   */\n          tag_149\n            /* \"#utility.yul\":8447:8450   */\n          dup4\n            /* \"#utility.yul\":8441:8445   */\n          dup4\n            /* \"#utility.yul\":8422:8451   */\n          tag_47\n          jump\t// in\n        tag_149:\n            /* \"#utility.yul\":8414:8451   */\n          swap2\n          pop\n            /* \"#utility.yul\":8484:8487   */\n          dup3\n            /* \"#utility.yul\":8481:8482   */\n          0x02\n            /* \"#utility.yul\":8477:8488   */\n          mul\n            /* \"#utility.yul\":8471:8475   */\n          dup3\n            /* \"#utility.yul\":8468:8489   */\n          or\n            /* \"#utility.yul\":8460:8489   */\n          swap1\n          pop\n            /* \"#utility.yul\":8200:8495   */\n          swap3\n          swap2\n          pop\n          pop\n          jump\t// out\n            /* \"#utility.yul\":8500:9895   */\n        tag_7:\n            /* \"#utility.yul\":8617:8654   */\n          tag_151\n            /* \"#utility.yul\":8650:8653   */\n          dup3\n            /* \"#utility.yul\":8617:8654   */\n          tag_31\n          jump\t// in\n        tag_151:\n            /* \"#utility.yul\":8719:8737   */\n          0xffffffffffffffff\n            /* \"#utility.yul\":8711:8717   */\n          dup2\n            /* \"#utility.yul\":8708:8738   */\n          gt\n            /* \"#utility.yul\":8705:8761   */\n          iszero\n          tag_152\n          jumpi\n            /* \"#utility.yul\":8741:8759   */\n          tag_153\n          tag_17\n          jump\t// in\n        tag_153:\n            /* \"#utility.yul\":8705:8761   */\n        tag_152:\n            /* \"#utility.yul\":8785:8823   */\n          tag_154\n            /* \"#utility.yul\":8817:8821   */\n          dup3\n            /* \"#utility.yul\":8811:8822   */\n          sload\n            /* \"#utility.yul\":8785:8823   */\n          tag_33\n          jump\t// in\n        tag_154:\n            /* \"#utility.yul\":8870:8937   */\n          tag_155\n            /* \"#utility.yul\":8930:8936   */\n          dup3\n            /* \"#utility.yul\":8922:8928   */\n          dup3\n            /* \"#utility.yul\":8916:8920   */\n          dup6\n            /* \"#utility.yul\":8870:8937   */\n          tag_45\n          jump\t// in\n        tag_155:\n            /* \"#utility.yul\":8964:8965   */\n          0x00\n            /* \"#utility.yul\":8988:8992   */\n          0x20\n            /* \"#utility.yul\":8975:8992   */\n          swap1\n          pop\n            /* \"#utility.yul\":9020:9022   */\n          0x1f\n            /* \"#utility.yul\":9012:9018   */\n          dup4\n            /* \"#utility.yul\":9009:9023   */\n          gt\n            /* \"#utility.yul\":9037:9038   */\n          0x01\n            /* \"#utility.yul\":9032:9650   */\n          dup2\n          eq\n          tag_157\n          jumpi\n            /* \"#utility.yul\":9694:9695   */\n          0x00\n            /* \"#utility.yul\":9711:9717   */\n          dup5\n            /* \"#utility.yul\":9708:9785   */\n          iszero\n          tag_158\n          jumpi\n            /* \"#utility.yul\":9760:9769   */\n          dup3\n            /* \"#utility.yul\":9755:9758   */\n          dup8\n            /* \"#utility.yul\":9751:9770   */\n          add\n            /* \"#utility.yul\":9745:9771   */\n          mload\n            /* \"#utility.yul\":9736:9771   */\n          swap1\n          pop\n            /* \"#utility.yul\":9708:9785   */\n        tag_158:\n            /* \"#utility.yul\":9811:9878   */\n          tag_159\n            /* \"#utility.yul\":9871:9877   */\n          dup6\n            /* \"#utility.yul\":9864:9869   */\n          dup3\n            /* \"#utility.yul\":9811:9878   */\n          tag_48\n          jump\t// in\n        tag_159:\n            /* \"#utility.yul\":9805:9809   */\n          dup7\n            /* \"#utility.yul\":9798:9879   */\n          sstore\n            /* \"#utility.yul\":9667:9889   */\n          pop\n            /* \"#utility.yul\":9002:9889   */\n          jump(tag_156)\n            /* \"#utility.yul\":9032:9650   */\n        tag_157:\n            /* \"#utility.yul\":9084:9088   */\n          0x1f\n            /* \"#utility.yul\":9080:9089   */\n          not\n            /* \"#utility.yul\":9072:9078   */\n          dup5\n            /* \"#utility.yul\":9068:9090   */\n          and\n            /* \"#utility.yul\":9118:9155   */\n          tag_160\n            /* \"#utility.yul\":9150:9154   */\n          dup7\n            /* \"#utility.yul\":9118:9155   */\n          tag_34\n          jump\t// in\n        tag_160:\n            /* \"#utility.yul\":9177:9178   */\n          0x00\n            /* \"#utility.yul\":9191:9399   */\n        tag_161:\n            /* \"#utility.yul\":9205:9212   */\n          dup3\n            /* \"#utility.yul\":9202:9203   */\n          dup2\n            /* \"#utility.yul\":9199:9213   */\n          lt\n            /* \"#utility.yul\":9191:9399   */\n          iszero\n          tag_163\n          jumpi\n            /* \"#utility.yul\":9284:9293   */\n          dup5\n            /* \"#utility.yul\":9279:9282   */\n          dup10\n            /* \"#utility.yul\":9275:9294   */\n          add\n            /* \"#utility.yul\":9269:9295   */\n          mload\n            /* \"#utility.yul\":9261:9267   */\n          dup3\n            /* \"#utility.yul\":9254:9296   */\n          sstore\n            /* \"#utility.yul\":9335:9336   */\n          0x01\n            /* \"#utility.yul\":9327:9333   */\n          dup3\n            /* \"#utility.yul\":9323:9337   */\n          add\n            /* \"#utility.yul\":9313:9337   */\n          swap2\n          pop\n            /* \"#utility.yul\":9382:9384   */\n          0x20\n            /* \"#utility.yul\":9371:9380   */\n          dup6\n            /* \"#utility.yul\":9367:9385   */\n          add\n            /* \"#utility.yul\":9354:9385   */\n          swap5\n          pop\n            /* \"#utility.yul\":9228:9232   */\n          0x20\n            /* \"#utility.yul\":9225:9226   */\n          dup2\n            /* \"#utility.yul\":9221:9233   */\n          add\n            /* \"#utility.yul\":9216:9233   */\n          swap1\n          pop\n            /* \"#utility.yul\":9191:9399   */\n          jump(tag_161)\n        tag_163:\n            /* \"#utility.yul\":9427:9433   */\n          dup7\n            /* \"#utility.yul\":9418:9425   */\n          dup4\n            /* \"#utility.yul\":9415:9434   */\n          lt\n            /* \"#utility.yul\":9412:9591   */\n          iszero\n          tag_164\n          jumpi\n            /* \"#utility.yul\":9485:9494   */\n          dup5\n            /* \"#utility.yul\":9480:9483   */\n          dup10\n            /* \"#utility.yul\":9476:9495   */\n          add\n            /* \"#utility.yul\":9470:9496   */\n          mload\n            /* \"#utility.yul\":9528:9576   */\n          tag_165\n            /* \"#utility.yul\":9570:9574   */\n          0x1f\n            /* \"#utility.yul\":9562:9568   */\n          dup10\n            /* \"#utility.yul\":9558:9575   */\n          and\n            /* \"#utility.yul\":9547:9556   */\n          dup3\n            /* \"#utility.yul\":9528:9576   */\n          tag_47\n          jump\t// in\n        tag_165:\n            /* \"#utility.yul\":9520:9526   */\n          dup4\n            /* \"#utility.yul\":9513:9577   */\n          sstore\n            /* \"#utility.yul\":9435:9591   */\n          pop\n            /* \"#utility.yul\":9412:9591   */\n        tag_164:\n            /* \"#utility.yul\":9637:9638   */\n          0x01\n            /* \"#utility.yul\":9633:9634   */\n          0x02\n            /* \"#utility.yul\":9625:9631   */\n          dup9\n            /* \"#utility.yul\":9621:9635   */\n          mul\n            /* \"#utility.yul\":9617:9639   */\n          add\n            /* \"#utility.yul\":9611:9615   */\n          dup9\n            /* \"#utility.yul\":9604:9640   */\n          sstore\n            /* \"#utility.yul\":9039:9650   */\n          pop\n          pop\n          pop\n            /* \"#utility.yul\":9002:9889   */\n        tag_156:\n          pop\n            /* \"#utility.yul\":8592:9895   */\n          pop\n          pop\n          pop\n            /* \"#utility.yul\":8500:9895   */\n          pop\n          pop\n          jump\t// out\n            /* \"contracts/coct/coctNft.sol\":117:1892  contract CoctNft  {... */\n        tag_10:\n          dataSize(sub_0)\n          dup1\n          dataOffset(sub_0)\n          0x00\n          codecopy\n          0x00\n          return\n        stop\n\n        sub_0: assembly {\n                /* \"contracts/coct/coctNft.sol\":117:1892  contract CoctNft  {... */\n              mstore(0x40, 0x80)\n              callvalue\n              dup1\n              iszero\n              tag_1\n              jumpi\n              0x00\n              dup1\n              revert\n            tag_1:\n              pop\n              jumpi(tag_2, lt(calldatasize, 0x04))\n              shr(0xe0, calldataload(0x00))\n              dup1\n              0xa7f93ebd\n              gt\n              tag_13\n              jumpi\n              dup1\n              0xa7f93ebd\n              eq\n              tag_8\n              jumpi\n              dup1\n              0xb84c3b2a\n              eq\n              tag_9\n              jumpi\n              dup1\n              0xb84c8246\n              eq\n              tag_10\n              jumpi\n              dup1\n              0xc47f0027\n              eq\n              tag_11\n              jumpi\n              dup1\n              0xf4a0a528\n              eq\n              tag_12\n              jumpi\n              jump(tag_2)\n            tag_13:\n              dup1\n              0x15070401\n              eq\n              tag_3\n              jumpi\n              dup1\n              0x17d7de7c\n              eq\n              tag_4\n              jumpi\n              dup1\n              0x2cda77a4\n              eq\n              tag_5\n              jumpi\n              dup1\n              0x4e16fc8b\n              eq\n              tag_6\n              jumpi\n              dup1\n              0x9b642de1\n              eq\n              tag_7\n              jumpi\n            tag_2:\n              0x00\n              dup1\n              revert\n                /* \"contracts/coct/coctNft.sol\":1093:1181  function getSymbol() public view returns (string memory){... */\n            tag_3:\n              tag_14\n              tag_15\n              jump\t// in\n            tag_14:\n              mload(0x40)\n              tag_16\n              swap2\n              swap1\n              tag_17\n              jump\t// in\n            tag_16:\n              mload(0x40)\n              dup1\n              swap2\n              sub\n              swap1\n              return\n                /* \"contracts/coct/coctNft.sol\":865:949  function getName() public view returns (string memory){... */\n            tag_4:\n              tag_18\n              tag_19\n              jump\t// in\n            tag_18:\n              mload(0x40)\n              tag_20\n              swap2\n              swap1\n              tag_17\n              jump\t// in\n            tag_20:\n              mload(0x40)\n              dup1\n              swap2\n              sub\n              swap1\n              return\n                /* \"contracts/coct/coctNft.sol\":1664:1758  function setPayAddress(address _payAddress) public {... */\n            tag_5:\n              tag_21\n              0x04\n              dup1\n              calldatasize\n              sub\n              dup2\n              add\n              swap1\n              tag_22\n              swap2\n              swap1\n              tag_23\n              jump\t// in\n            tag_22:\n              tag_24\n              jump\t// in\n            tag_21:\n              stop\n                /* \"contracts/coct/coctNft.sol\":1325:1407  function getUri() public view returns (string memory){... */\n            tag_6:\n              tag_25\n              tag_26\n              jump\t// in\n            tag_25:\n              mload(0x40)\n              tag_27\n              swap2\n              swap1\n              tag_17\n              jump\t// in\n            tag_27:\n              mload(0x40)\n              dup1\n              swap2\n              sub\n              swap1\n              return\n                /* \"contracts/coct/coctNft.sol\":1219:1291  function setUri(string memory _uri) public {... */\n            tag_7:\n              tag_28\n              0x04\n              dup1\n              calldatasize\n              sub\n              dup2\n              add\n              swap1\n              tag_29\n              swap2\n              swap1\n              tag_30\n              jump\t// in\n            tag_29:\n              tag_31\n              jump\t// in\n            tag_28:\n              stop\n                /* \"contracts/coct/coctNft.sol\":1542:1626  function getMintPrice() public view returns(uint){... */\n            tag_8:\n              tag_32\n              tag_33\n              jump\t// in\n            tag_32:\n              mload(0x40)\n              tag_34\n              swap2\n              swap1\n              tag_35\n              jump\t// in\n            tag_34:\n              mload(0x40)\n              dup1\n              swap2\n              sub\n              swap1\n              return\n                /* \"contracts/coct/coctNft.sol\":1798:1889  function getPayAddress() public view  returns (address){... */\n            tag_9:\n              tag_36\n              tag_37\n              jump\t// in\n            tag_36:\n              mload(0x40)\n              tag_38\n              swap2\n              swap1\n              tag_39\n              jump\t// in\n            tag_38:\n              mload(0x40)\n              dup1\n              swap2\n              sub\n              swap1\n              return\n                /* \"contracts/coct/coctNft.sol\":981:1065  function setSymbol(string memory _symbol) public {... */\n            tag_10:\n              tag_40\n              0x04\n              dup1\n              calldatasize\n              sub\n              dup2\n              add\n              swap1\n              tag_41\n              swap2\n              swap1\n              tag_30\n              jump\t// in\n            tag_41:\n              tag_42\n              jump\t// in\n            tag_40:\n              stop\n                /* \"contracts/coct/coctNft.sol\":758:834  function setName(string memory _name) public {... */\n            tag_11:\n              tag_43\n              0x04\n              dup1\n              calldatasize\n              sub\n              dup2\n              add\n              swap1\n              tag_44\n              swap2\n              swap1\n              tag_30\n              jump\t// in\n            tag_44:\n              tag_45\n              jump\t// in\n            tag_43:\n              stop\n                /* \"contracts/coct/coctNft.sol\":1435:1514  function setMintPrice(uint _price) public {... */\n            tag_12:\n              tag_46\n              0x04\n              dup1\n              calldatasize\n              sub\n              dup2\n              add\n              swap1\n              tag_47\n              swap2\n              swap1\n              tag_48\n              jump\t// in\n            tag_47:\n              tag_49\n              jump\t// in\n            tag_46:\n              stop\n                /* \"contracts/coct/coctNft.sol\":1093:1181  function getSymbol() public view returns (string memory){... */\n            tag_15:\n                /* \"contracts/coct/coctNft.sol\":1135:1148  string memory */\n              0x60\n                /* \"contracts/coct/coctNft.sol\":1167:1173  symbol */\n              0x01\n                /* \"contracts/coct/coctNft.sol\":1160:1173  return symbol */\n              dup1\n              sload\n              tag_51\n              swap1\n              tag_52\n              jump\t// in\n            tag_51:\n              dup1\n              0x1f\n              add\n              0x20\n              dup1\n              swap2\n              div\n              mul\n              0x20\n              add\n              mload(0x40)\n              swap1\n              dup2\n              add\n              0x40\n              mstore\n              dup1\n              swap3\n              swap2\n              swap1\n              dup2\n              dup2\n              mstore\n              0x20\n              add\n              dup3\n              dup1\n              sload\n              tag_53\n              swap1\n              tag_52\n              jump\t// in\n            tag_53:\n              dup1\n              iszero\n              tag_54\n              jumpi\n              dup1\n              0x1f\n              lt\n              tag_55\n              jumpi\n              0x0100\n              dup1\n              dup4\n              sload\n              div\n              mul\n              dup4\n              mstore\n              swap2\n              0x20\n              add\n              swap2\n              jump(tag_54)\n            tag_55:\n              dup3\n              add\n              swap2\n              swap1\n              0x00\n              mstore\n              keccak256(0x00, 0x20)\n              swap1\n            tag_56:\n              dup2\n              sload\n              dup2\n              mstore\n              swap1\n              0x01\n              add\n              swap1\n              0x20\n              add\n              dup1\n              dup4\n              gt\n              tag_56\n              jumpi\n              dup3\n              swap1\n              sub\n              0x1f\n              and\n              dup3\n              add\n              swap2\n            tag_54:\n              pop\n              pop\n              pop\n              pop\n              pop\n              swap1\n              pop\n                /* \"contracts/coct/coctNft.sol\":1093:1181  function getSymbol() public view returns (string memory){... */\n              swap1\n              jump\t// out\n                /* \"contracts/coct/coctNft.sol\":865:949  function getName() public view returns (string memory){... */\n            tag_19:\n                /* \"contracts/coct/coctNft.sol\":905:918  string memory */\n              0x60\n                /* \"contracts/coct/coctNft.sol\":937:941  name */\n              0x00\n                /* \"contracts/coct/coctNft.sol\":930:941  return name */\n              dup1\n              sload\n              tag_58\n              swap1\n              tag_52\n              jump\t// in\n            tag_58:\n              dup1\n              0x1f\n              add\n              0x20\n              dup1\n              swap2\n              div\n              mul\n              0x20\n              add\n              mload(0x40)\n              swap1\n              dup2\n              add\n              0x40\n              mstore\n              dup1\n              swap3\n              swap2\n              swap1\n              dup2\n              dup2\n              mstore\n              0x20\n              add\n              dup3\n              dup1\n              sload\n              tag_59\n              swap1\n              tag_52\n              jump\t// in\n            tag_59:\n              dup1\n              iszero\n              tag_60\n              jumpi\n              dup1\n              0x1f\n              lt\n              tag_61\n              jumpi\n              0x0100\n              dup1\n              dup4\n              sload\n              div\n              mul\n              dup4\n              mstore\n              swap2\n              0x20\n              add\n              swap2\n              jump(tag_60)\n            tag_61:\n              dup3\n              add\n              swap2\n              swap1\n              0x00\n              mstore\n              keccak256(0x00, 0x20)\n              swap1\n            tag_62:\n              dup2\n              sload\n              dup2\n              mstore\n              swap1\n              0x01\n              add\n              swap1\n              0x20\n              add\n              dup1\n              dup4\n              gt\n              tag_62\n              jumpi\n              dup3\n              swap1\n              sub\n              0x1f\n              and\n              dup3\n              add\n              swap2\n            tag_60:\n              pop\n              pop\n              pop\n              pop\n              pop\n              swap1\n              pop\n                /* \"contracts/coct/coctNft.sol\":865:949  function getName() public view returns (string memory){... */\n              swap1\n              jump\t// out\n                /* \"contracts/coct/coctNft.sol\":1664:1758  function setPayAddress(address _payAddress) public {... */\n            tag_24:\n                /* \"contracts/coct/coctNft.sol\":1739:1750  _payAddress */\n              dup1\n                /* \"contracts/coct/coctNft.sol\":1726:1736  payAddress */\n              0x04\n              0x00\n                /* \"contracts/coct/coctNft.sol\":1726:1750  payAddress = _payAddress */\n              0x0100\n              exp\n              dup2\n              sload\n              dup2\n              0xffffffffffffffffffffffffffffffffffffffff\n              mul\n              not\n              and\n              swap1\n              dup4\n              0xffffffffffffffffffffffffffffffffffffffff\n              and\n              mul\n              or\n              swap1\n              sstore\n              pop\n                /* \"contracts/coct/coctNft.sol\":1664:1758  function setPayAddress(address _payAddress) public {... */\n              pop\n              jump\t// out\n                /* \"contracts/coct/coctNft.sol\":1325:1407  function getUri() public view returns (string memory){... */\n            tag_26:\n                /* \"contracts/coct/coctNft.sol\":1364:1377  string memory */\n              0x60\n                /* \"contracts/coct/coctNft.sol\":1396:1399  uri */\n              0x02\n                /* \"contracts/coct/coctNft.sol\":1389:1399  return uri */\n              dup1\n              sload\n              tag_65\n              swap1\n              tag_52\n              jump\t// in\n            tag_65:\n              dup1\n              0x1f\n              add\n              0x20\n              dup1\n              swap2\n              div\n              mul\n              0x20\n              add\n              mload(0x40)\n              swap1\n              dup2\n              add\n              0x40\n              mstore\n              dup1\n              swap3\n              swap2\n              swap1\n              dup2\n              dup2\n              mstore\n              0x20\n              add\n              dup3\n              dup1\n              sload\n              tag_66\n              swap1\n              tag_52\n              jump\t// in\n            tag_66:\n              dup1\n              iszero\n              tag_67\n              jumpi\n              dup1\n              0x1f\n              lt\n              tag_68\n              jumpi\n              0x0100\n              dup1\n              dup4\n              sload\n              div\n              mul\n              dup4\n              mstore\n              swap2\n              0x20\n              add\n              swap2\n              jump(tag_67)\n            tag_68:\n              dup3\n              add\n              swap2\n              swap1\n              0x00\n              mstore\n              keccak256(0x00, 0x20)\n              swap1\n            tag_69:\n              dup2\n              sload\n              dup2\n              mstore\n              swap1\n              0x01\n              add\n              swap1\n              0x20\n              add\n              dup1\n              dup4\n              gt\n              tag_69\n              jumpi\n              dup3\n              swap1\n              sub\n              0x1f\n              and\n              dup3\n              add\n              swap2\n            tag_67:\n              pop\n              pop\n              pop\n              pop\n              pop\n              swap1\n              pop\n                /* \"contracts/coct/coctNft.sol\":1325:1407  function getUri() public view returns (string memory){... */\n              swap1\n              jump\t// out\n                /* \"contracts/coct/coctNft.sol\":1219:1291  function setUri(string memory _uri) public {... */\n            tag_31:\n                /* \"contracts/coct/coctNft.sol\":1279:1283  _uri */\n              dup1\n                /* \"contracts/coct/coctNft.sol\":1273:1276  uri */\n              0x02\n                /* \"contracts/coct/coctNft.sol\":1273:1283  uri = _uri */\n              swap1\n              dup2\n              tag_71\n              swap2\n              swap1\n              tag_72\n              jump\t// in\n            tag_71:\n              pop\n                /* \"contracts/coct/coctNft.sol\":1219:1291  function setUri(string memory _uri) public {... */\n              pop\n              jump\t// out\n                /* \"contracts/coct/coctNft.sol\":1542:1626  function getMintPrice() public view returns(uint){... */\n            tag_33:\n                /* \"contracts/coct/coctNft.sol\":1586:1590  uint */\n              0x00\n                /* \"contracts/coct/coctNft.sol\":1609:1618  mintPrice */\n              sload(0x03)\n                /* \"contracts/coct/coctNft.sol\":1602:1618  return mintPrice */\n              swap1\n              pop\n                /* \"contracts/coct/coctNft.sol\":1542:1626  function getMintPrice() public view returns(uint){... */\n              swap1\n              jump\t// out\n                /* \"contracts/coct/coctNft.sol\":1798:1889  function getPayAddress() public view  returns (address){... */\n            tag_37:\n                /* \"contracts/coct/coctNft.sol\":1845:1852  address */\n              0x00\n                /* \"contracts/coct/coctNft.sol\":1871:1881  payAddress */\n              0x04\n              0x00\n              swap1\n              sload\n              swap1\n              0x0100\n              exp\n              swap1\n              div\n              0xffffffffffffffffffffffffffffffffffffffff\n              and\n                /* \"contracts/coct/coctNft.sol\":1864:1881  return payAddress */\n              swap1\n              pop\n                /* \"contracts/coct/coctNft.sol\":1798:1889  function getPayAddress() public view  returns (address){... */\n              swap1\n              jump\t// out\n                /* \"contracts/coct/coctNft.sol\":981:1065  function setSymbol(string memory _symbol) public {... */\n            tag_42:\n                /* \"contracts/coct/coctNft.sol\":1050:1057  _symbol */\n              dup1\n                /* \"contracts/coct/coctNft.sol\":1041:1047  symbol */\n              0x01\n                /* \"contracts/coct/coctNft.sol\":1041:1057  symbol = _symbol */\n              swap1\n              dup2\n              tag_76\n              swap2\n              swap1\n              tag_72\n              jump\t// in\n            tag_76:\n              pop\n                /* \"contracts/coct/coctNft.sol\":981:1065  function setSymbol(string memory _symbol) public {... */\n              pop\n              jump\t// out\n                /* \"contracts/coct/coctNft.sol\":758:834  function setName(string memory _name) public {... */\n            tag_45:\n                /* \"contracts/coct/coctNft.sol\":821:826  _name */\n              dup1\n                /* \"contracts/coct/coctNft.sol\":814:818  name */\n              0x00\n                /* \"contracts/coct/coctNft.sol\":814:826  name = _name */\n              swap1\n              dup2\n              tag_78\n              swap2\n              swap1\n              tag_72\n              jump\t// in\n            tag_78:\n              pop\n                /* \"contracts/coct/coctNft.sol\":758:834  function setName(string memory _name) public {... */\n              pop\n              jump\t// out\n                /* \"contracts/coct/coctNft.sol\":1435:1514  function setMintPrice(uint _price) public {... */\n            tag_49:\n                /* \"contracts/coct/coctNft.sol\":1500:1506  _price */\n              dup1\n                /* \"contracts/coct/coctNft.sol\":1488:1497  mintPrice */\n              0x03\n                /* \"contracts/coct/coctNft.sol\":1488:1506  mintPrice = _price */\n              dup2\n              swap1\n              sstore\n              pop\n                /* \"contracts/coct/coctNft.sol\":1435:1514  function setMintPrice(uint _price) public {... */\n              pop\n              jump\t// out\n                /* \"#utility.yul\":7:106   */\n            tag_80:\n                /* \"#utility.yul\":59:65   */\n              0x00\n                /* \"#utility.yul\":93:98   */\n              dup2\n                /* \"#utility.yul\":87:99   */\n              mload\n                /* \"#utility.yul\":77:99   */\n              swap1\n              pop\n                /* \"#utility.yul\":7:106   */\n              swap2\n              swap1\n              pop\n              jump\t// out\n                /* \"#utility.yul\":112:281   */\n            tag_81:\n                /* \"#utility.yul\":196:207   */\n              0x00\n                /* \"#utility.yul\":230:236   */\n              dup3\n                /* \"#utility.yul\":225:228   */\n              dup3\n                /* \"#utility.yul\":218:237   */\n              mstore\n                /* \"#utility.yul\":270:274   */\n              0x20\n                /* \"#utility.yul\":265:268   */\n              dup3\n                /* \"#utility.yul\":261:275   */\n              add\n                /* \"#utility.yul\":246:275   */\n              swap1\n              pop\n                /* \"#utility.yul\":112:281   */\n              swap3\n              swap2\n              pop\n              pop\n              jump\t// out\n                /* \"#utility.yul\":287:426   */\n            tag_82:\n                /* \"#utility.yul\":376:382   */\n              dup3\n                /* \"#utility.yul\":371:374   */\n              dup2\n                /* \"#utility.yul\":366:369   */\n              dup4\n                /* \"#utility.yul\":360:383   */\n              mcopy\n                /* \"#utility.yul\":417:418   */\n              0x00\n                /* \"#utility.yul\":408:414   */\n              dup4\n                /* \"#utility.yul\":403:406   */\n              dup4\n                /* \"#utility.yul\":399:415   */\n              add\n                /* \"#utility.yul\":392:419   */\n              mstore\n                /* \"#utility.yul\":287:426   */\n              pop\n              pop\n              pop\n              jump\t// out\n                /* \"#utility.yul\":432:534   */\n            tag_83:\n                /* \"#utility.yul\":473:479   */\n              0x00\n                /* \"#utility.yul\":524:526   */\n              0x1f\n                /* \"#utility.yul\":520:527   */\n              not\n                /* \"#utility.yul\":515:517   */\n              0x1f\n                /* \"#utility.yul\":508:513   */\n              dup4\n                /* \"#utility.yul\":504:518   */\n              add\n                /* \"#utility.yul\":500:528   */\n              and\n                /* \"#utility.yul\":490:528   */\n              swap1\n              pop\n                /* \"#utility.yul\":432:534   */\n              swap2\n              swap1\n              pop\n              jump\t// out\n                /* \"#utility.yul\":540:917   */\n            tag_84:\n                /* \"#utility.yul\":628:631   */\n              0x00\n                /* \"#utility.yul\":656:695   */\n              tag_128\n                /* \"#utility.yul\":689:694   */\n              dup3\n                /* \"#utility.yul\":656:695   */\n              tag_80\n              jump\t// in\n            tag_128:\n                /* \"#utility.yul\":711:782   */\n              tag_129\n                /* \"#utility.yul\":775:781   */\n              dup2\n                /* \"#utility.yul\":770:773   */\n              dup6\n                /* \"#utility.yul\":711:782   */\n              tag_81\n              jump\t// in\n            tag_129:\n                /* \"#utility.yul\":704:782   */\n              swap4\n              pop\n                /* \"#utility.yul\":791:856   */\n              tag_130\n                /* \"#utility.yul\":849:855   */\n              dup2\n                /* \"#utility.yul\":844:847   */\n              dup6\n                /* \"#utility.yul\":837:841   */\n              0x20\n                /* \"#utility.yul\":830:835   */\n              dup7\n                /* \"#utility.yul\":826:842   */\n              add\n                /* \"#utility.yul\":791:856   */\n              tag_82\n              jump\t// in\n            tag_130:\n                /* \"#utility.yul\":881:910   */\n              tag_131\n                /* \"#utility.yul\":903:909   */\n              dup2\n                /* \"#utility.yul\":881:910   */\n              tag_83\n              jump\t// in\n            tag_131:\n                /* \"#utility.yul\":876:879   */\n              dup5\n                /* \"#utility.yul\":872:911   */\n              add\n                /* \"#utility.yul\":865:911   */\n              swap2\n              pop\n                /* \"#utility.yul\":632:917   */\n              pop\n                /* \"#utility.yul\":540:917   */\n              swap3\n              swap2\n              pop\n              pop\n              jump\t// out\n                /* \"#utility.yul\":923:1236   */\n            tag_17:\n                /* \"#utility.yul\":1036:1040   */\n              0x00\n                /* \"#utility.yul\":1074:1076   */\n              0x20\n                /* \"#utility.yul\":1063:1072   */\n              dup3\n                /* \"#utility.yul\":1059:1077   */\n              add\n                /* \"#utility.yul\":1051:1077   */\n              swap1\n              pop\n                /* \"#utility.yul\":1123:1132   */\n              dup2\n                /* \"#utility.yul\":1117:1121   */\n              dup2\n                /* \"#utility.yul\":1113:1133   */\n              sub\n                /* \"#utility.yul\":1109:1110   */\n              0x00\n                /* \"#utility.yul\":1098:1107   */\n              dup4\n                /* \"#utility.yul\":1094:1111   */\n              add\n                /* \"#utility.yul\":1087:1134   */\n              mstore\n                /* \"#utility.yul\":1151:1229   */\n              tag_133\n                /* \"#utility.yul\":1224:1228   */\n              dup2\n                /* \"#utility.yul\":1215:1221   */\n              dup5\n                /* \"#utility.yul\":1151:1229   */\n              tag_84\n              jump\t// in\n            tag_133:\n                /* \"#utility.yul\":1143:1229   */\n              swap1\n              pop\n                /* \"#utility.yul\":923:1236   */\n              swap3\n              swap2\n              pop\n              pop\n              jump\t// out\n                /* \"#utility.yul\":1242:1317   */\n            tag_85:\n                /* \"#utility.yul\":1275:1281   */\n              0x00\n                /* \"#utility.yul\":1308:1310   */\n              0x40\n                /* \"#utility.yul\":1302:1311   */\n              mload\n                /* \"#utility.yul\":1292:1311   */\n              swap1\n              pop\n                /* \"#utility.yul\":1242:1317   */\n              swap1\n              jump\t// out\n                /* \"#utility.yul\":1323:1440   */\n            tag_86:\n                /* \"#utility.yul\":1432:1433   */\n              0x00\n                /* \"#utility.yul\":1429:1430   */\n              dup1\n                /* \"#utility.yul\":1422:1434   */\n              revert\n                /* \"#utility.yul\":1446:1563   */\n            tag_87:\n                /* \"#utility.yul\":1555:1556   */\n              0x00\n                /* \"#utility.yul\":1552:1553   */\n              dup1\n                /* \"#utility.yul\":1545:1557   */\n              revert\n                /* \"#utility.yul\":1569:1695   */\n            tag_88:\n                /* \"#utility.yul\":1606:1613   */\n              0x00\n                /* \"#utility.yul\":1646:1688   */\n              0xffffffffffffffffffffffffffffffffffffffff\n                /* \"#utility.yul\":1639:1644   */\n              dup3\n                /* \"#utility.yul\":1635:1689   */\n              and\n                /* \"#utility.yul\":1624:1689   */\n              swap1\n              pop\n                /* \"#utility.yul\":1569:1695   */\n              swap2\n              swap1\n              pop\n              jump\t// out\n                /* \"#utility.yul\":1701:1797   */\n            tag_89:\n                /* \"#utility.yul\":1738:1745   */\n              0x00\n                /* \"#utility.yul\":1767:1791   */\n              tag_139\n                /* \"#utility.yul\":1785:1790   */\n              dup3\n                /* \"#utility.yul\":1767:1791   */\n              tag_88\n              jump\t// in\n            tag_139:\n                /* \"#utility.yul\":1756:1791   */\n              swap1\n              pop\n                /* \"#utility.yul\":1701:1797   */\n              swap2\n              swap1\n              pop\n              jump\t// out\n                /* \"#utility.yul\":1803:1925   */\n            tag_90:\n                /* \"#utility.yul\":1876:1900   */\n              tag_141\n                /* \"#utility.yul\":1894:1899   */\n              dup2\n                /* \"#utility.yul\":1876:1900   */\n              tag_89\n              jump\t// in\n            tag_141:\n                /* \"#utility.yul\":1869:1874   */\n              dup2\n                /* \"#utility.yul\":1866:1901   */\n              eq\n                /* \"#utility.yul\":1856:1919   */\n              tag_142\n              jumpi\n                /* \"#utility.yul\":1915:1916   */\n              0x00\n                /* \"#utility.yul\":1912:1913   */\n              dup1\n                /* \"#utility.yul\":1905:1917   */\n              revert\n                /* \"#utility.yul\":1856:1919   */\n            tag_142:\n                /* \"#utility.yul\":1803:1925   */\n              pop\n              jump\t// out\n                /* \"#utility.yul\":1931:2070   */\n            tag_91:\n                /* \"#utility.yul\":1977:1982   */\n              0x00\n                /* \"#utility.yul\":2015:2021   */\n              dup2\n                /* \"#utility.yul\":2002:2022   */\n              calldataload\n                /* \"#utility.yul\":1993:2022   */\n              swap1\n              pop\n                /* \"#utility.yul\":2031:2064   */\n              tag_144\n                /* \"#utility.yul\":2058:2063   */\n              dup2\n                /* \"#utility.yul\":2031:2064   */\n              tag_90\n              jump\t// in\n            tag_144:\n                /* \"#utility.yul\":1931:2070   */\n              swap3\n              swap2\n              pop\n              pop\n              jump\t// out\n                /* \"#utility.yul\":2076:2405   */\n            tag_23:\n                /* \"#utility.yul\":2135:2141   */\n              0x00\n                /* \"#utility.yul\":2184:2186   */\n              0x20\n                /* \"#utility.yul\":2172:2181   */\n              dup3\n                /* \"#utility.yul\":2163:2170   */\n              dup5\n                /* \"#utility.yul\":2159:2182   */\n              sub\n                /* \"#utility.yul\":2155:2187   */\n              slt\n                /* \"#utility.yul\":2152:2271   */\n              iszero\n              tag_146\n              jumpi\n                /* \"#utility.yul\":2190:2269   */\n              tag_147\n              tag_86\n              jump\t// in\n            tag_147:\n                /* \"#utility.yul\":2152:2271   */\n            tag_146:\n                /* \"#utility.yul\":2310:2311   */\n              0x00\n                /* \"#utility.yul\":2335:2388   */\n              tag_148\n                /* \"#utility.yul\":2380:2387   */\n              dup5\n                /* \"#utility.yul\":2371:2377   */\n              dup3\n                /* \"#utility.yul\":2360:2369   */\n              dup6\n                /* \"#utility.yul\":2356:2378   */\n              add\n                /* \"#utility.yul\":2335:2388   */\n              tag_91\n              jump\t// in\n            tag_148:\n                /* \"#utility.yul\":2325:2388   */\n              swap2\n              pop\n                /* \"#utility.yul\":2281:2398   */\n              pop\n                /* \"#utility.yul\":2076:2405   */\n              swap3\n              swap2\n              pop\n              pop\n              jump\t// out\n                /* \"#utility.yul\":2411:2528   */\n            tag_92:\n                /* \"#utility.yul\":2520:2521   */\n              0x00\n                /* \"#utility.yul\":2517:2518   */\n              dup1\n                /* \"#utility.yul\":2510:2522   */\n              revert\n                /* \"#utility.yul\":2534:2651   */\n            tag_93:\n                /* \"#utility.yul\":2643:2644   */\n              0x00\n                /* \"#utility.yul\":2640:2641   */\n              dup1\n                /* \"#utility.yul\":2633:2645   */\n              revert\n                /* \"#utility.yul\":2657:2837   */\n            tag_94:\n                /* \"#utility.yul\":2705:2782   */\n              0x4e487b7100000000000000000000000000000000000000000000000000000000\n                /* \"#utility.yul\":2702:2703   */\n              0x00\n                /* \"#utility.yul\":2695:2783   */\n              mstore\n                /* \"#utility.yul\":2802:2806   */\n              0x41\n                /* \"#utility.yul\":2799:2800   */\n              0x04\n                /* \"#utility.yul\":2792:2807   */\n              mstore\n                /* \"#utility.yul\":2826:2830   */\n              0x24\n                /* \"#utility.yul\":2823:2824   */\n              0x00\n                /* \"#utility.yul\":2816:2831   */\n              revert\n                /* \"#utility.yul\":2843:3124   */\n            tag_95:\n                /* \"#utility.yul\":2926:2953   */\n              tag_153\n                /* \"#utility.yul\":2948:2952   */\n              dup3\n                /* \"#utility.yul\":2926:2953   */\n              tag_83\n              jump\t// in\n            tag_153:\n                /* \"#utility.yul\":2918:2924   */\n              dup2\n                /* \"#utility.yul\":2914:2954   */\n              add\n                /* \"#utility.yul\":3056:3062   */\n              dup2\n                /* \"#utility.yul\":3044:3054   */\n              dup2\n                /* \"#utility.yul\":3041:3063   */\n              lt\n                /* \"#utility.yul\":3020:3038   */\n              0xffffffffffffffff\n                /* \"#utility.yul\":3008:3018   */\n              dup3\n                /* \"#utility.yul\":3005:3039   */\n              gt\n                /* \"#utility.yul\":3002:3064   */\n              or\n                /* \"#utility.yul\":2999:3087   */\n              iszero\n              tag_154\n              jumpi\n                /* \"#utility.yul\":3067:3085   */\n              tag_155\n              tag_94\n              jump\t// in\n            tag_155:\n                /* \"#utility.yul\":2999:3087   */\n            tag_154:\n                /* \"#utility.yul\":3107:3117   */\n              dup1\n                /* \"#utility.yul\":3103:3105   */\n              0x40\n                /* \"#utility.yul\":3096:3118   */\n              mstore\n                /* \"#utility.yul\":2886:3124   */\n              pop\n                /* \"#utility.yul\":2843:3124   */\n              pop\n              pop\n              jump\t// out\n                /* \"#utility.yul\":3130:3259   */\n            tag_96:\n                /* \"#utility.yul\":3164:3170   */\n              0x00\n                /* \"#utility.yul\":3191:3211   */\n              tag_157\n              tag_85\n              jump\t// in\n            tag_157:\n                /* \"#utility.yul\":3181:3211   */\n              swap1\n              pop\n                /* \"#utility.yul\":3220:3253   */\n              tag_158\n                /* \"#utility.yul\":3248:3252   */\n              dup3\n                /* \"#utility.yul\":3240:3246   */\n              dup3\n                /* \"#utility.yul\":3220:3253   */\n              tag_95\n              jump\t// in\n            tag_158:\n                /* \"#utility.yul\":3130:3259   */\n              swap2\n              swap1\n              pop\n              jump\t// out\n                /* \"#utility.yul\":3265:3573   */\n            tag_97:\n                /* \"#utility.yul\":3327:3331   */\n              0x00\n                /* \"#utility.yul\":3417:3435   */\n              0xffffffffffffffff\n                /* \"#utility.yul\":3409:3415   */\n              dup3\n                /* \"#utility.yul\":3406:3436   */\n              gt\n                /* \"#utility.yul\":3403:3459   */\n              iszero\n              tag_160\n              jumpi\n                /* \"#utility.yul\":3439:3457   */\n              tag_161\n              tag_94\n              jump\t// in\n            tag_161:\n                /* \"#utility.yul\":3403:3459   */\n            tag_160:\n                /* \"#utility.yul\":3477:3506   */\n              tag_162\n                /* \"#utility.yul\":3499:3505   */\n              dup3\n                /* \"#utility.yul\":3477:3506   */\n              tag_83\n              jump\t// in\n            tag_162:\n                /* \"#utility.yul\":3469:3506   */\n              swap1\n              pop\n                /* \"#utility.yul\":3561:3565   */\n              0x20\n                /* \"#utility.yul\":3555:3559   */\n              dup2\n                /* \"#utility.yul\":3551:3566   */\n              add\n                /* \"#utility.yul\":3543:3566   */\n              swap1\n              pop\n                /* \"#utility.yul\":3265:3573   */\n              swap2\n              swap1\n              pop\n              jump\t// out\n                /* \"#utility.yul\":3579:3727   */\n            tag_98:\n                /* \"#utility.yul\":3677:3683   */\n              dup3\n                /* \"#utility.yul\":3672:3675   */\n              dup2\n                /* \"#utility.yul\":3667:3670   */\n              dup4\n                /* \"#utility.yul\":3654:3684   */\n              calldatacopy\n                /* \"#utility.yul\":3718:3719   */\n              0x00\n                /* \"#utility.yul\":3709:3715   */\n              dup4\n                /* \"#utility.yul\":3704:3707   */\n              dup4\n                /* \"#utility.yul\":3700:3716   */\n              add\n                /* \"#utility.yul\":3693:3720   */\n              mstore\n                /* \"#utility.yul\":3579:3727   */\n              pop\n              pop\n              pop\n              jump\t// out\n                /* \"#utility.yul\":3733:4158   */\n            tag_99:\n                /* \"#utility.yul\":3811:3816   */\n              0x00\n                /* \"#utility.yul\":3836:3902   */\n              tag_165\n                /* \"#utility.yul\":3852:3901   */\n              tag_166\n                /* \"#utility.yul\":3894:3900   */\n              dup5\n                /* \"#utility.yul\":3852:3901   */\n              tag_97\n              jump\t// in\n            tag_166:\n                /* \"#utility.yul\":3836:3902   */\n              tag_96\n              jump\t// in\n            tag_165:\n                /* \"#utility.yul\":3827:3902   */\n              swap1\n              pop\n                /* \"#utility.yul\":3925:3931   */\n              dup3\n                /* \"#utility.yul\":3918:3923   */\n              dup2\n                /* \"#utility.yul\":3911:3932   */\n              mstore\n                /* \"#utility.yul\":3963:3967   */\n              0x20\n                /* \"#utility.yul\":3956:3961   */\n              dup2\n                /* \"#utility.yul\":3952:3968   */\n              add\n                /* \"#utility.yul\":4001:4004   */\n              dup5\n                /* \"#utility.yul\":3992:3998   */\n              dup5\n                /* \"#utility.yul\":3987:3990   */\n              dup5\n                /* \"#utility.yul\":3983:3999   */\n              add\n                /* \"#utility.yul\":3980:4005   */\n              gt\n                /* \"#utility.yul\":3977:4089   */\n              iszero\n              tag_167\n              jumpi\n                /* \"#utility.yul\":4008:4087   */\n              tag_168\n              tag_93\n              jump\t// in\n            tag_168:\n                /* \"#utility.yul\":3977:4089   */\n            tag_167:\n                /* \"#utility.yul\":4098:4152   */\n              tag_169\n                /* \"#utility.yul\":4145:4151   */\n              dup5\n                /* \"#utility.yul\":4140:4143   */\n              dup3\n                /* \"#utility.yul\":4135:4138   */\n              dup6\n                /* \"#utility.yul\":4098:4152   */\n              tag_98\n              jump\t// in\n            tag_169:\n                /* \"#utility.yul\":3817:4158   */\n              pop\n                /* \"#utility.yul\":3733:4158   */\n              swap4\n              swap3\n              pop\n              pop\n              pop\n              jump\t// out\n                /* \"#utility.yul\":4178:4518   */\n            tag_100:\n                /* \"#utility.yul\":4234:4239   */\n              0x00\n                /* \"#utility.yul\":4283:4286   */\n              dup3\n                /* \"#utility.yul\":4276:4280   */\n              0x1f\n                /* \"#utility.yul\":4268:4274   */\n              dup4\n                /* \"#utility.yul\":4264:4281   */\n              add\n                /* \"#utility.yul\":4260:4287   */\n              slt\n                /* \"#utility.yul\":4250:4372   */\n              tag_171\n              jumpi\n                /* \"#utility.yul\":4291:4370   */\n              tag_172\n              tag_92\n              jump\t// in\n            tag_172:\n                /* \"#utility.yul\":4250:4372   */\n            tag_171:\n                /* \"#utility.yul\":4408:4414   */\n              dup2\n                /* \"#utility.yul\":4395:4415   */\n              calldataload\n                /* \"#utility.yul\":4433:4512   */\n              tag_173\n                /* \"#utility.yul\":4508:4511   */\n              dup5\n                /* \"#utility.yul\":4500:4506   */\n              dup3\n                /* \"#utility.yul\":4493:4497   */\n              0x20\n                /* \"#utility.yul\":4485:4491   */\n              dup7\n                /* \"#utility.yul\":4481:4498   */\n              add\n                /* \"#utility.yul\":4433:4512   */\n              tag_99\n              jump\t// in\n            tag_173:\n                /* \"#utility.yul\":4424:4512   */\n              swap2\n              pop\n                /* \"#utility.yul\":4240:4518   */\n              pop\n                /* \"#utility.yul\":4178:4518   */\n              swap3\n              swap2\n              pop\n              pop\n              jump\t// out\n                /* \"#utility.yul\":4524:5033   */\n            tag_30:\n                /* \"#utility.yul\":4593:4599   */\n              0x00\n                /* \"#utility.yul\":4642:4644   */\n              0x20\n                /* \"#utility.yul\":4630:4639   */\n              dup3\n                /* \"#utility.yul\":4621:4628   */\n              dup5\n                /* \"#utility.yul\":4617:4640   */\n              sub\n                /* \"#utility.yul\":4613:4645   */\n              slt\n                /* \"#utility.yul\":4610:4729   */\n              iszero\n              tag_175\n              jumpi\n                /* \"#utility.yul\":4648:4727   */\n              tag_176\n              tag_86\n              jump\t// in\n            tag_176:\n                /* \"#utility.yul\":4610:4729   */\n            tag_175:\n                /* \"#utility.yul\":4796:4797   */\n              0x00\n                /* \"#utility.yul\":4785:4794   */\n              dup3\n                /* \"#utility.yul\":4781:4798   */\n              add\n                /* \"#utility.yul\":4768:4799   */\n              calldataload\n                /* \"#utility.yul\":4826:4844   */\n              0xffffffffffffffff\n                /* \"#utility.yul\":4818:4824   */\n              dup2\n                /* \"#utility.yul\":4815:4845   */\n              gt\n                /* \"#utility.yul\":4812:4929   */\n              iszero\n              tag_177\n              jumpi\n                /* \"#utility.yul\":4848:4927   */\n              tag_178\n              tag_87\n              jump\t// in\n            tag_178:\n                /* \"#utility.yul\":4812:4929   */\n            tag_177:\n                /* \"#utility.yul\":4953:5016   */\n              tag_179\n                /* \"#utility.yul\":5008:5015   */\n              dup5\n                /* \"#utility.yul\":4999:5005   */\n              dup3\n                /* \"#utility.yul\":4988:4997   */\n              dup6\n                /* \"#utility.yul\":4984:5006   */\n              add\n                /* \"#utility.yul\":4953:5016   */\n              tag_100\n              jump\t// in\n            tag_179:\n                /* \"#utility.yul\":4943:5016   */\n              swap2\n              pop\n                /* \"#utility.yul\":4739:5026   */\n              pop\n                /* \"#utility.yul\":4524:5033   */\n              swap3\n              swap2\n              pop\n              pop\n              jump\t// out\n                /* \"#utility.yul\":5039:5116   */\n            tag_101:\n                /* \"#utility.yul\":5076:5083   */\n              0x00\n                /* \"#utility.yul\":5105:5110   */\n              dup2\n                /* \"#utility.yul\":5094:5110   */\n              swap1\n              pop\n                /* \"#utility.yul\":5039:5116   */\n              swap2\n              swap1\n              pop\n              jump\t// out\n                /* \"#utility.yul\":5122:5240   */\n            tag_102:\n                /* \"#utility.yul\":5209:5233   */\n              tag_182\n                /* \"#utility.yul\":5227:5232   */\n              dup2\n                /* \"#utility.yul\":5209:5233   */\n              tag_101\n              jump\t// in\n            tag_182:\n                /* \"#utility.yul\":5204:5207   */\n              dup3\n                /* \"#utility.yul\":5197:5234   */\n              mstore\n                /* \"#utility.yul\":5122:5240   */\n              pop\n              pop\n              jump\t// out\n                /* \"#utility.yul\":5246:5468   */\n            tag_35:\n                /* \"#utility.yul\":5339:5343   */\n              0x00\n                /* \"#utility.yul\":5377:5379   */\n              0x20\n                /* \"#utility.yul\":5366:5375   */\n              dup3\n                /* \"#utility.yul\":5362:5380   */\n              add\n                /* \"#utility.yul\":5354:5380   */\n              swap1\n              pop\n                /* \"#utility.yul\":5390:5461   */\n              tag_184\n                /* \"#utility.yul\":5458:5459   */\n              0x00\n                /* \"#utility.yul\":5447:5456   */\n              dup4\n                /* \"#utility.yul\":5443:5460   */\n              add\n                /* \"#utility.yul\":5434:5440   */\n              dup5\n                /* \"#utility.yul\":5390:5461   */\n              tag_102\n              jump\t// in\n            tag_184:\n                /* \"#utility.yul\":5246:5468   */\n              swap3\n              swap2\n              pop\n              pop\n              jump\t// out\n                /* \"#utility.yul\":5474:5592   */\n            tag_103:\n                /* \"#utility.yul\":5561:5585   */\n              tag_186\n                /* \"#utility.yul\":5579:5584   */\n              dup2\n                /* \"#utility.yul\":5561:5585   */\n              tag_89\n              jump\t// in\n            tag_186:\n                /* \"#utility.yul\":5556:5559   */\n              dup3\n                /* \"#utility.yul\":5549:5586   */\n              mstore\n                /* \"#utility.yul\":5474:5592   */\n              pop\n              pop\n              jump\t// out\n                /* \"#utility.yul\":5598:5820   */\n            tag_39:\n                /* \"#utility.yul\":5691:5695   */\n              0x00\n                /* \"#utility.yul\":5729:5731   */\n              0x20\n                /* \"#utility.yul\":5718:5727   */\n              dup3\n                /* \"#utility.yul\":5714:5732   */\n              add\n                /* \"#utility.yul\":5706:5732   */\n              swap1\n              pop\n                /* \"#utility.yul\":5742:5813   */\n              tag_188\n                /* \"#utility.yul\":5810:5811   */\n              0x00\n                /* \"#utility.yul\":5799:5808   */\n              dup4\n                /* \"#utility.yul\":5795:5812   */\n              add\n                /* \"#utility.yul\":5786:5792   */\n              dup5\n                /* \"#utility.yul\":5742:5813   */\n              tag_103\n              jump\t// in\n            tag_188:\n                /* \"#utility.yul\":5598:5820   */\n              swap3\n              swap2\n              pop\n              pop\n              jump\t// out\n                /* \"#utility.yul\":5826:5948   */\n            tag_104:\n                /* \"#utility.yul\":5899:5923   */\n              tag_190\n                /* \"#utility.yul\":5917:5922   */\n              dup2\n                /* \"#utility.yul\":5899:5923   */\n              tag_101\n              jump\t// in\n            tag_190:\n                /* \"#utility.yul\":5892:5897   */\n              dup2\n                /* \"#utility.yul\":5889:5924   */\n              eq\n                /* \"#utility.yul\":5879:5942   */\n              tag_191\n              jumpi\n                /* \"#utility.yul\":5938:5939   */\n              0x00\n                /* \"#utility.yul\":5935:5936   */\n              dup1\n                /* \"#utility.yul\":5928:5940   */\n              revert\n                /* \"#utility.yul\":5879:5942   */\n            tag_191:\n                /* \"#utility.yul\":5826:5948   */\n              pop\n              jump\t// out\n                /* \"#utility.yul\":5954:6093   */\n            tag_105:\n                /* \"#utility.yul\":6000:6005   */\n              0x00\n                /* \"#utility.yul\":6038:6044   */\n              dup2\n                /* \"#utility.yul\":6025:6045   */\n              calldataload\n                /* \"#utility.yul\":6016:6045   */\n              swap1\n              pop\n                /* \"#utility.yul\":6054:6087   */\n              tag_193\n                /* \"#utility.yul\":6081:6086   */\n              dup2\n                /* \"#utility.yul\":6054:6087   */\n              tag_104\n              jump\t// in\n            tag_193:\n                /* \"#utility.yul\":5954:6093   */\n              swap3\n              swap2\n              pop\n              pop\n              jump\t// out\n                /* \"#utility.yul\":6099:6428   */\n            tag_48:\n                /* \"#utility.yul\":6158:6164   */\n              0x00\n                /* \"#utility.yul\":6207:6209   */\n              0x20\n                /* \"#utility.yul\":6195:6204   */\n              dup3\n                /* \"#utility.yul\":6186:6193   */\n              dup5\n                /* \"#utility.yul\":6182:6205   */\n              sub\n                /* \"#utility.yul\":6178:6210   */\n              slt\n                /* \"#utility.yul\":6175:6294   */\n              iszero\n              tag_195\n              jumpi\n                /* \"#utility.yul\":6213:6292   */\n              tag_196\n              tag_86\n              jump\t// in\n            tag_196:\n                /* \"#utility.yul\":6175:6294   */\n            tag_195:\n                /* \"#utility.yul\":6333:6334   */\n              0x00\n                /* \"#utility.yul\":6358:6411   */\n              tag_197\n                /* \"#utility.yul\":6403:6410   */\n              dup5\n                /* \"#utility.yul\":6394:6400   */\n              dup3\n                /* \"#utility.yul\":6383:6392   */\n              dup6\n                /* \"#utility.yul\":6379:6401   */\n              add\n                /* \"#utility.yul\":6358:6411   */\n              tag_105\n              jump\t// in\n            tag_197:\n                /* \"#utility.yul\":6348:6411   */\n              swap2\n              pop\n                /* \"#utility.yul\":6304:6421   */\n              pop\n                /* \"#utility.yul\":6099:6428   */\n              swap3\n              swap2\n              pop\n              pop\n              jump\t// out\n                /* \"#utility.yul\":6434:6614   */\n            tag_106:\n                /* \"#utility.yul\":6482:6559   */\n              0x4e487b7100000000000000000000000000000000000000000000000000000000\n                /* \"#utility.yul\":6479:6480   */\n              0x00\n                /* \"#utility.yul\":6472:6560   */\n              mstore\n                /* \"#utility.yul\":6579:6583   */\n              0x22\n                /* \"#utility.yul\":6576:6577   */\n              0x04\n                /* \"#utility.yul\":6569:6584   */\n              mstore\n                /* \"#utility.yul\":6603:6607   */\n              0x24\n                /* \"#utility.yul\":6600:6601   */\n              0x00\n                /* \"#utility.yul\":6593:6608   */\n              revert\n                /* \"#utility.yul\":6620:6940   */\n            tag_52:\n                /* \"#utility.yul\":6664:6670   */\n              0x00\n                /* \"#utility.yul\":6701:6702   */\n              0x02\n                /* \"#utility.yul\":6695:6699   */\n              dup3\n                /* \"#utility.yul\":6691:6703   */\n              div\n                /* \"#utility.yul\":6681:6703   */\n              swap1\n              pop\n                /* \"#utility.yul\":6748:6749   */\n              0x01\n                /* \"#utility.yul\":6742:6746   */\n              dup3\n                /* \"#utility.yul\":6738:6750   */\n              and\n                /* \"#utility.yul\":6769:6787   */\n              dup1\n                /* \"#utility.yul\":6759:6840   */\n              tag_200\n              jumpi\n                /* \"#utility.yul\":6825:6829   */\n              0x7f\n                /* \"#utility.yul\":6817:6823   */\n              dup3\n                /* \"#utility.yul\":6813:6830   */\n              and\n                /* \"#utility.yul\":6803:6830   */\n              swap2\n              pop\n                /* \"#utility.yul\":6759:6840   */\n            tag_200:\n                /* \"#utility.yul\":6887:6889   */\n              0x20\n                /* \"#utility.yul\":6879:6885   */\n              dup3\n                /* \"#utility.yul\":6876:6890   */\n              lt\n                /* \"#utility.yul\":6856:6874   */\n              dup2\n                /* \"#utility.yul\":6853:6891   */\n              sub\n                /* \"#utility.yul\":6850:6934   */\n              tag_201\n              jumpi\n                /* \"#utility.yul\":6906:6924   */\n              tag_202\n              tag_106\n              jump\t// in\n            tag_202:\n                /* \"#utility.yul\":6850:6934   */\n            tag_201:\n                /* \"#utility.yul\":6671:6940   */\n              pop\n                /* \"#utility.yul\":6620:6940   */\n              swap2\n              swap1\n              pop\n              jump\t// out\n                /* \"#utility.yul\":6946:7087   */\n            tag_107:\n                /* \"#utility.yul\":6995:6999   */\n              0x00\n                /* \"#utility.yul\":7018:7021   */\n              dup2\n                /* \"#utility.yul\":7010:7021   */\n              swap1\n              pop\n                /* \"#utility.yul\":7041:7044   */\n              dup2\n                /* \"#utility.yul\":7038:7039   */\n              0x00\n                /* \"#utility.yul\":7031:7045   */\n              mstore\n                /* \"#utility.yul\":7075:7079   */\n              0x20\n                /* \"#utility.yul\":7072:7073   */\n              0x00\n                /* \"#utility.yul\":7062:7080   */\n              keccak256\n                /* \"#utility.yul\":7054:7080   */\n              swap1\n              pop\n                /* \"#utility.yul\":6946:7087   */\n              swap2\n              swap1\n              pop\n              jump\t// out\n                /* \"#utility.yul\":7093:7186   */\n            tag_108:\n                /* \"#utility.yul\":7130:7136   */\n              0x00\n                /* \"#utility.yul\":7177:7179   */\n              0x20\n                /* \"#utility.yul\":7172:7174   */\n              0x1f\n                /* \"#utility.yul\":7165:7170   */\n              dup4\n                /* \"#utility.yul\":7161:7175   */\n              add\n                /* \"#utility.yul\":7157:7180   */\n              div\n                /* \"#utility.yul\":7147:7180   */\n              swap1\n              pop\n                /* \"#utility.yul\":7093:7186   */\n              swap2\n              swap1\n              pop\n              jump\t// out\n                /* \"#utility.yul\":7192:7299   */\n            tag_109:\n                /* \"#utility.yul\":7236:7244   */\n              0x00\n                /* \"#utility.yul\":7286:7291   */\n              dup3\n                /* \"#utility.yul\":7280:7284   */\n              dup3\n                /* \"#utility.yul\":7276:7292   */\n              shl\n                /* \"#utility.yul\":7255:7292   */\n              swap1\n              pop\n                /* \"#utility.yul\":7192:7299   */\n              swap3\n              swap2\n              pop\n              pop\n              jump\t// out\n                /* \"#utility.yul\":7305:7698   */\n            tag_110:\n                /* \"#utility.yul\":7374:7380   */\n              0x00\n                /* \"#utility.yul\":7424:7425   */\n              0x08\n                /* \"#utility.yul\":7412:7422   */\n              dup4\n                /* \"#utility.yul\":7408:7426   */\n              mul\n                /* \"#utility.yul\":7447:7544   */\n              tag_207\n                /* \"#utility.yul\":7477:7543   */\n              0xffffffffffffffffffffffffffffffffffffffffffffffffffffffffffffffff\n                /* \"#utility.yul\":7466:7475   */\n              dup3\n                /* \"#utility.yul\":7447:7544   */\n              tag_109\n              jump\t// in\n            tag_207:\n                /* \"#utility.yul\":7565:7604   */\n              tag_208\n                /* \"#utility.yul\":7595:7603   */\n              dup7\n                /* \"#utility.yul\":7584:7593   */\n              dup4\n                /* \"#utility.yul\":7565:7604   */\n              tag_109\n              jump\t// in\n            tag_208:\n                /* \"#utility.yul\":7553:7604   */\n              swap6\n              pop\n                /* \"#utility.yul\":7637:7641   */\n              dup1\n                /* \"#utility.yul\":7633:7642   */\n              not\n                /* \"#utility.yul\":7626:7631   */\n              dup5\n                /* \"#utility.yul\":7622:7643   */\n              and\n                /* \"#utility.yul\":7613:7643   */\n              swap4\n              pop\n                /* \"#utility.yul\":7686:7690   */\n              dup1\n                /* \"#utility.yul\":7676:7684   */\n              dup7\n                /* \"#utility.yul\":7672:7691   */\n              and\n                /* \"#utility.yul\":7665:7670   */\n              dup5\n                /* \"#utility.yul\":7662:7692   */\n              or\n                /* \"#utility.yul\":7652:7692   */\n              swap3\n              pop\n                /* \"#utility.yul\":7381:7698   */\n              pop\n              pop\n                /* \"#utility.yul\":7305:7698   */\n              swap4\n              swap3\n              pop\n              pop\n              pop\n              jump\t// out\n                /* \"#utility.yul\":7704:7764   */\n            tag_111:\n                /* \"#utility.yul\":7732:7735   */\n              0x00\n                /* \"#utility.yul\":7753:7758   */\n              dup2\n                /* \"#utility.yul\":7746:7758   */\n              swap1\n              pop\n                /* \"#utility.yul\":7704:7764   */\n              swap2\n              swap1\n              pop\n              jump\t// out\n                /* \"#utility.yul\":7770:7912   */\n            tag_112:\n                /* \"#utility.yul\":7820:7829   */\n              0x00\n                /* \"#utility.yul\":7853:7906   */\n              tag_211\n                /* \"#utility.yul\":7871:7905   */\n              tag_212\n                /* \"#utility.yul\":7880:7904   */\n              tag_213\n                /* \"#utility.yul\":7898:7903   */\n              dup5\n                /* \"#utility.yul\":7880:7904   */\n              tag_101\n              jump\t// in\n            tag_213:\n                /* \"#utility.yul\":7871:7905   */\n              tag_111\n              jump\t// in\n            tag_212:\n                /* \"#utility.yul\":7853:7906   */\n              tag_101\n              jump\t// in\n            tag_211:\n                /* \"#utility.yul\":7840:7906   */\n              swap1\n              pop\n                /* \"#utility.yul\":7770:7912   */\n              swap2\n              swap1\n              pop\n              jump\t// out\n                /* \"#utility.yul\":7918:7993   */\n            tag_113:\n                /* \"#utility.yul\":7961:7964   */\n              0x00\n                /* \"#utility.yul\":7982:7987   */\n              dup2\n                /* \"#utility.yul\":7975:7987   */\n              swap1\n              pop\n                /* \"#utility.yul\":7918:7993   */\n              swap2\n              swap1\n              pop\n              jump\t// out\n                /* \"#utility.yul\":7999:8268   */\n            tag_114:\n                /* \"#utility.yul\":8109:8148   */\n              tag_216\n                /* \"#utility.yul\":8140:8147   */\n              dup4\n                /* \"#utility.yul\":8109:8148   */\n              tag_112\n              jump\t// in\n            tag_216:\n                /* \"#utility.yul\":8170:8261   */\n              tag_217\n                /* \"#utility.yul\":8219:8260   */\n              tag_218\n                /* \"#utility.yul\":8243:8259   */\n              dup3\n                /* \"#utility.yul\":8219:8260   */\n              tag_113\n              jump\t// in\n            tag_218:\n                /* \"#utility.yul\":8211:8217   */\n              dup5\n                /* \"#utility.yul\":8204:8208   */\n              dup5\n                /* \"#utility.yul\":8198:8209   */\n              sload\n                /* \"#utility.yul\":8170:8261   */\n              tag_110\n              jump\t// in\n            tag_217:\n                /* \"#utility.yul\":8164:8168   */\n              dup3\n                /* \"#utility.yul\":8157:8262   */\n              sstore\n                /* \"#utility.yul\":8075:8268   */\n              pop\n                /* \"#utility.yul\":7999:8268   */\n              pop\n              pop\n              pop\n              jump\t// out\n                /* \"#utility.yul\":8274:8347   */\n            tag_115:\n                /* \"#utility.yul\":8319:8322   */\n              0x00\n                /* \"#utility.yul\":8274:8347   */\n              swap1\n              jump\t// out\n                /* \"#utility.yul\":8353:8542   */\n            tag_116:\n                /* \"#utility.yul\":8430:8462   */\n              tag_221\n              tag_115\n              jump\t// in\n            tag_221:\n                /* \"#utility.yul\":8471:8536   */\n              tag_222\n                /* \"#utility.yul\":8529:8535   */\n              dup2\n                /* \"#utility.yul\":8521:8527   */\n              dup5\n                /* \"#utility.yul\":8515:8519   */\n              dup5\n                /* \"#utility.yul\":8471:8536   */\n              tag_114\n              jump\t// in\n            tag_222:\n                /* \"#utility.yul\":8406:8542   */\n              pop\n                /* \"#utility.yul\":8353:8542   */\n              pop\n              pop\n              jump\t// out\n                /* \"#utility.yul\":8548:8734   */\n            tag_117:\n                /* \"#utility.yul\":8608:8728   */\n            tag_224:\n                /* \"#utility.yul\":8625:8628   */\n              dup2\n                /* \"#utility.yul\":8618:8623   */\n              dup2\n                /* \"#utility.yul\":8615:8629   */\n              lt\n                /* \"#utility.yul\":8608:8728   */\n              iszero\n              tag_226\n              jumpi\n                /* \"#utility.yul\":8679:8718   */\n              tag_227\n                /* \"#utility.yul\":8716:8717   */\n              0x00\n                /* \"#utility.yul\":8709:8714   */\n              dup3\n                /* \"#utility.yul\":8679:8718   */\n              tag_116\n              jump\t// in\n            tag_227:\n                /* \"#utility.yul\":8652:8653   */\n              0x01\n                /* \"#utility.yul\":8645:8650   */\n              dup2\n                /* \"#utility.yul\":8641:8654   */\n              add\n                /* \"#utility.yul\":8632:8654   */\n              swap1\n              pop\n                /* \"#utility.yul\":8608:8728   */\n              jump(tag_224)\n            tag_226:\n                /* \"#utility.yul\":8548:8734   */\n              pop\n              pop\n              jump\t// out\n                /* \"#utility.yul\":8740:9283   */\n            tag_118:\n                /* \"#utility.yul\":8841:8843   */\n              0x1f\n                /* \"#utility.yul\":8836:8839   */\n              dup3\n                /* \"#utility.yul\":8833:8844   */\n              gt\n                /* \"#utility.yul\":8830:9276   */\n              iszero\n              tag_229\n              jumpi\n                /* \"#utility.yul\":8875:8913   */\n              tag_230\n                /* \"#utility.yul\":8907:8912   */\n              dup2\n                /* \"#utility.yul\":8875:8913   */\n              tag_107\n              jump\t// in\n            tag_230:\n                /* \"#utility.yul\":8959:8988   */\n              tag_231\n                /* \"#utility.yul\":8977:8987   */\n              dup5\n                /* \"#utility.yul\":8959:8988   */\n              tag_108\n              jump\t// in\n            tag_231:\n                /* \"#utility.yul\":8949:8957   */\n              dup2\n                /* \"#utility.yul\":8945:8989   */\n              add\n                /* \"#utility.yul\":9142:9144   */\n              0x20\n                /* \"#utility.yul\":9130:9140   */\n              dup6\n                /* \"#utility.yul\":9127:9145   */\n              lt\n                /* \"#utility.yul\":9124:9173   */\n              iszero\n              tag_232\n              jumpi\n                /* \"#utility.yul\":9163:9171   */\n              dup2\n                /* \"#utility.yul\":9148:9171   */\n              swap1\n              pop\n                /* \"#utility.yul\":9124:9173   */\n            tag_232:\n                /* \"#utility.yul\":9186:9266   */\n              tag_233\n                /* \"#utility.yul\":9242:9264   */\n              tag_234\n                /* \"#utility.yul\":9260:9263   */\n              dup6\n                /* \"#utility.yul\":9242:9264   */\n              tag_108\n              jump\t// in\n            tag_234:\n                /* \"#utility.yul\":9232:9240   */\n              dup4\n                /* \"#utility.yul\":9228:9265   */\n              add\n                /* \"#utility.yul\":9215:9226   */\n              dup3\n                /* \"#utility.yul\":9186:9266   */\n              tag_117\n              jump\t// in\n            tag_233:\n                /* \"#utility.yul\":8845:9276   */\n              pop\n              pop\n                /* \"#utility.yul\":8830:9276   */\n            tag_229:\n                /* \"#utility.yul\":8740:9283   */\n              pop\n              pop\n              pop\n              jump\t// out\n                /* \"#utility.yul\":9289:9406   */\n            tag_119:\n                /* \"#utility.yul\":9343:9351   */\n              0x00\n                /* \"#utility.yul\":9393:9398   */\n              dup3\n                /* \"#utility.yul\":9387:9391   */\n              dup3\n                /* \"#utility.yul\":9383:9399   */\n              shr\n                /* \"#utility.yul\":9362:9399   */\n              swap1\n              pop\n                /* \"#utility.yul\":9289:9406   */\n              swap3\n              swap2\n              pop\n              pop\n              jump\t// out\n                /* \"#utility.yul\":9412:9581   */\n            tag_120:\n                /* \"#utility.yul\":9456:9462   */\n              0x00\n                /* \"#utility.yul\":9489:9540   */\n              tag_237\n                /* \"#utility.yul\":9537:9538   */\n              0x00\n                /* \"#utility.yul\":9533:9539   */\n              not\n                /* \"#utility.yul\":9525:9530   */\n              dup5\n                /* \"#utility.yul\":9522:9523   */\n              0x08\n                /* \"#utility.yul\":9518:9531   */\n              mul\n                /* \"#utility.yul\":9489:9540   */\n              tag_119\n              jump\t// in\n            tag_237:\n                /* \"#utility.yul\":9485:9541   */\n              not\n                /* \"#utility.yul\":9570:9574   */\n              dup1\n                /* \"#utility.yul\":9564:9568   */\n              dup4\n                /* \"#utility.yul\":9560:9575   */\n              and\n                /* \"#utility.yul\":9550:9575   */\n              swap2\n              pop\n                /* \"#utility.yul\":9463:9581   */\n              pop\n                /* \"#utility.yul\":9412:9581   */\n              swap3\n              swap2\n              pop\n              pop\n              jump\t// out\n                /* \"#utility.yul\":9586:9881   */\n            tag_121:\n                /* \"#utility.yul\":9662:9666   */\n              0x00\n                /* \"#utility.yul\":9808:9837   */\n              tag_239\n                /* \"#utility.yul\":9833:9836   */\n              dup4\n                /* \"#utility.yul\":9827:9831   */\n              dup4\n                /* \"#utility.yul\":9808:9837   */\n              tag_120\n              jump\t// in\n            tag_239:\n                /* \"#utility.yul\":9800:9837   */\n              swap2\n              pop\n                /* \"#utility.yul\":9870:9873   */\n              dup3\n                /* \"#utility.yul\":9867:9868   */\n              0x02\n                /* \"#utility.yul\":9863:9874   */\n              mul\n                /* \"#utility.yul\":9857:9861   */\n              dup3\n                /* \"#utility.yul\":9854:9875   */\n              or\n                /* \"#utility.yul\":9846:9875   */\n              swap1\n              pop\n                /* \"#utility.yul\":9586:9881   */\n              swap3\n              swap2\n              pop\n              pop\n              jump\t// out\n                /* \"#utility.yul\":9886:11281   */\n            tag_72:\n                /* \"#utility.yul\":10003:10040   */\n              tag_241\n                /* \"#utility.yul\":10036:10039   */\n              dup3\n                /* \"#utility.yul\":10003:10040   */\n              tag_80\n              jump\t// in\n            tag_241:\n                /* \"#utility.yul\":10105:10123   */\n              0xffffffffffffffff\n                /* \"#utility.yul\":10097:10103   */\n              dup2\n                /* \"#utility.yul\":10094:10124   */\n              gt\n                /* \"#utility.yul\":10091:10147   */\n              iszero\n              tag_242\n              jumpi\n                /* \"#utility.yul\":10127:10145   */\n              tag_243\n              tag_94\n              jump\t// in\n            tag_243:\n                /* \"#utility.yul\":10091:10147   */\n            tag_242:\n                /* \"#utility.yul\":10171:10209   */\n              tag_244\n                /* \"#utility.yul\":10203:10207   */\n              dup3\n                /* \"#utility.yul\":10197:10208   */\n              sload\n                /* \"#utility.yul\":10171:10209   */\n              tag_52\n              jump\t// in\n            tag_244:\n                /* \"#utility.yul\":10256:10323   */\n              tag_245\n                /* \"#utility.yul\":10316:10322   */\n              dup3\n                /* \"#utility.yul\":10308:10314   */\n              dup3\n                /* \"#utility.yul\":10302:10306   */\n              dup6\n                /* \"#utility.yul\":10256:10323   */\n              tag_118\n              jump\t// in\n            tag_245:\n                /* \"#utility.yul\":10350:10351   */\n              0x00\n                /* \"#utility.yul\":10374:10378   */\n              0x20\n                /* \"#utility.yul\":10361:10378   */\n              swap1\n              pop\n                /* \"#utility.yul\":10406:10408   */\n              0x1f\n                /* \"#utility.yul\":10398:10404   */\n              dup4\n                /* \"#utility.yul\":10395:10409   */\n              gt\n                /* \"#utility.yul\":10423:10424   */\n              0x01\n                /* \"#utility.yul\":10418:11036   */\n              dup2\n              eq\n              tag_247\n              jumpi\n                /* \"#utility.yul\":11080:11081   */\n              0x00\n                /* \"#utility.yul\":11097:11103   */\n              dup5\n                /* \"#utility.yul\":11094:11171   */\n              iszero\n              tag_248\n              jumpi\n                /* \"#utility.yul\":11146:11155   */\n              dup3\n                /* \"#utility.yul\":11141:11144   */\n              dup8\n                /* \"#utility.yul\":11137:11156   */\n              add\n                /* \"#utility.yul\":11131:11157   */\n              mload\n                /* \"#utility.yul\":11122:11157   */\n              swap1\n              pop\n                /* \"#utility.yul\":11094:11171   */\n            tag_248:\n                /* \"#utility.yul\":11197:11264   */\n              tag_249\n                /* \"#utility.yul\":11257:11263   */\n              dup6\n                /* \"#utility.yul\":11250:11255   */\n              dup3\n                /* \"#utility.yul\":11197:11264   */\n              tag_121\n              jump\t// in\n            tag_249:\n                /* \"#utility.yul\":11191:11195   */\n              dup7\n                /* \"#utility.yul\":11184:11265   */\n              sstore\n                /* \"#utility.yul\":11053:11275   */\n              pop\n                /* \"#utility.yul\":10388:11275   */\n              jump(tag_246)\n                /* \"#utility.yul\":10418:11036   */\n            tag_247:\n                /* \"#utility.yul\":10470:10474   */\n              0x1f\n                /* \"#utility.yul\":10466:10475   */\n              not\n                /* \"#utility.yul\":10458:10464   */\n              dup5\n                /* \"#utility.yul\":10454:10476   */\n              and\n                /* \"#utility.yul\":10504:10541   */\n              tag_250\n                /* \"#utility.yul\":10536:10540   */\n              dup7\n                /* \"#utility.yul\":10504:10541   */\n              tag_107\n              jump\t// in\n            tag_250:\n                /* \"#utility.yul\":10563:10564   */\n              0x00\n                /* \"#utility.yul\":10577:10785   */\n            tag_251:\n                /* \"#utility.yul\":10591:10598   */\n              dup3\n                /* \"#utility.yul\":10588:10589   */\n              dup2\n                /* \"#utility.yul\":10585:10599   */\n              lt\n                /* \"#utility.yul\":10577:10785   */\n              iszero\n              tag_253\n              jumpi\n                /* \"#utility.yul\":10670:10679   */\n              dup5\n                /* \"#utility.yul\":10665:10668   */\n              dup10\n                /* \"#utility.yul\":10661:10680   */\n              add\n                /* \"#utility.yul\":10655:10681   */\n              mload\n                /* \"#utility.yul\":10647:10653   */\n              dup3\n                /* \"#utility.yul\":10640:10682   */\n              sstore\n                /* \"#utility.yul\":10721:10722   */\n              0x01\n                /* \"#utility.yul\":10713:10719   */\n              dup3\n                /* \"#utility.yul\":10709:10723   */\n              add\n                /* \"#utility.yul\":10699:10723   */\n              swap2\n              pop\n                /* \"#utility.yul\":10768:10770   */\n              0x20\n                /* \"#utility.yul\":10757:10766   */\n              dup6\n                /* \"#utility.yul\":10753:10771   */\n              add\n                /* \"#utility.yul\":10740:10771   */\n              swap5\n              pop\n                /* \"#utility.yul\":10614:10618   */\n              0x20\n                /* \"#utility.yul\":10611:10612   */\n              dup2\n                /* \"#utility.yul\":10607:10619   */\n              add\n                /* \"#utility.yul\":10602:10619   */\n              swap1\n              pop\n                /* \"#utility.yul\":10577:10785   */\n              jump(tag_251)\n            tag_253:\n                /* \"#utility.yul\":10813:10819   */\n              dup7\n                /* \"#utility.yul\":10804:10811   */\n              dup4\n                /* \"#utility.yul\":10801:10820   */\n              lt\n                /* \"#utility.yul\":10798:10977   */\n              iszero\n              tag_254\n              jumpi\n                /* \"#utility.yul\":10871:10880   */\n              dup5\n                /* \"#utility.yul\":10866:10869   */\n              dup10\n                /* \"#utility.yul\":10862:10881   */\n              add\n                /* \"#utility.yul\":10856:10882   */\n              mload\n                /* \"#utility.yul\":10914:10962   */\n              tag_255\n                /* \"#utility.yul\":10956:10960   */\n              0x1f\n                /* \"#utility.yul\":10948:10954   */\n              dup10\n                /* \"#utility.yul\":10944:10961   */\n              and\n                /* \"#utility.yul\":10933:10942   */\n              dup3\n                /* \"#utility.yul\":10914:10962   */\n              tag_120\n              jump\t// in\n            tag_255:\n                /* \"#utility.yul\":10906:10912   */\n              dup4\n                /* \"#utility.yul\":10899:10963   */\n              sstore\n                /* \"#utility.yul\":10821:10977   */\n              pop\n                /* \"#utility.yul\":10798:10977   */\n            tag_254:\n                /* \"#utility.yul\":11023:11024   */\n              0x01\n                /* \"#utility.yul\":11019:11020   */\n              0x02\n                /* \"#utility.yul\":11011:11017   */\n              dup9\n                /* \"#utility.yul\":11007:11021   */\n              mul\n                /* \"#utility.yul\":11003:11025   */\n              add\n                /* \"#utility.yul\":10997:11001   */\n              dup9\n                /* \"#utility.yul\":10990:11026   */\n              sstore\n                /* \"#utility.yul\":10425:11036   */\n              pop\n              pop\n              pop\n                /* \"#utility.yul\":10388:11275   */\n            tag_246:\n              pop\n                /* \"#utility.yul\":9978:11281   */\n              pop\n              pop\n              pop\n                /* \"#utility.yul\":9886:11281   */\n              pop\n              pop\n              jump\t// out\n\n            auxdata: 0xa264697066735822122004ec2699f2be554138d9a101fd4d641f15da4015651881d2ced484361a789a6a64736f6c634300081a0033\n        }\n    }\n\n    auxdata: 0xa2646970667358221220ca1756ad4fb76c83a890885ed9b1414a209a097155a2f43facdb7d722ed8b15664736f6c634300081a0033\n}\n",
				"bytecode": {
					"linkReferences": {},
					"object": "6080604052348015600e575f80fd5b50335f806101000a81548173ffffffffffffffffffffffffffffffffffffffff021916908373ffffffffffffffffffffffffffffffffffffffff160217905550611f448061005b5f395ff3fe608060405234801561000f575f80fd5b506004361061007b575f3560e01c80635d1430b7116100595780635d1430b7146100eb5780636a1f533914610107578063719d0f2b14610125578063fd99734a146101555761007b565b806338cc48311461007f578063540b42e91461009d578063590791f2146100cd575b5f80fd5b610087610171565b604051610094919061056a565b60405180910390f35b6100b760048036038101906100b291906105be565b610178565b6040516100c49190610659565b60405180910390f35b6100d56101f1565b6040516100e29190610691565b60405180910390f35b61010560048036038101906101009190610800565b610233565b005b61010f6103af565b60405161011c9190610982565b60405180910390f35b61013f600480360381019061013a91906105be565b61043a565b60405161014c9190610691565b60405180910390f35b61016f600480360381019061016a91906109a2565b6104b4565b005b5f30905090565b60608173ffffffffffffffffffffffffffffffffffffffff166317d7de7c6040518163ffffffff1660e01b81526004015f60405180830381865afa1580156101c2573d5f803e3d5ffd5b505050506040513d5f823e3d601f19601f820116820180604052508101906101ea9190610a4e565b9050919050565b5f805f8054906101000a900473ffffffffffffffffffffffffffffffffffffffff1673ffffffffffffffffffffffffffffffffffffffff163190508091505090565b5f8054906101000a900473ffffffffffffffffffffffffffffffffffffffff1673ffffffffffffffffffffffffffffffffffffffff163373ffffffffffffffffffffffffffffffffffffffff16146102c0576040517f08c379a00000000000000000000000000000000000000000000000000000000081526004016102b790610adf565b60405180910390fd5b5f85858585856040516102d29061051e565b6102e0959493929190610afd565b604051809103905ff0801580156102f9573d5f803e3d5ffd5b5090508560025f8373ffffffffffffffffffffffffffffffffffffffff1673ffffffffffffffffffffffffffffffffffffffff1681526020019081526020015f2090816103469190610d5d565b50600181908060018154018082558091505060019003905f5260205f20015f9091909190916101000a81548173ffffffffffffffffffffffffffffffffffffffff021916908373ffffffffffffffffffffffffffffffffffffffff160217905550505050505050565b6060600180548060200260200160405190810160405280929190818152602001828054801561043057602002820191905f5260205f20905b815f9054906101000a900473ffffffffffffffffffffffffffffffffffffffff1673ffffffffffffffffffffffffffffffffffffffff16815260200190600101908083116103e7575b5050505050905090565b5f808273ffffffffffffffffffffffffffffffffffffffff1663a7f93ebd6040518163ffffffff1660e01b8152600401602060405180830381865afa158015610485573d5f803e3d5ffd5b505050506040513d601f19601f820116820180604052508101906104a99190610e40565b905080915050919050565b8173ffffffffffffffffffffffffffffffffffffffff1663f4a0a528826040518263ffffffff1660e01b81526004016104ed9190610691565b5f604051808303815f87803b158015610504575f80fd5b505af1158015610516573d5f803e3d5ffd5b505050505050565b6110a380610e6c83390190565b5f73ffffffffffffffffffffffffffffffffffffffff82169050919050565b5f6105548261052b565b9050919050565b6105648161054a565b82525050565b5f60208201905061057d5f83018461055b565b92915050565b5f604051905090565b5f80fd5b5f80fd5b61059d8161054a565b81146105a7575f80fd5b50565b5f813590506105b881610594565b92915050565b5f602082840312156105d3576105d261058c565b5b5f6105e0848285016105aa565b91505092915050565b5f81519050919050565b5f82825260208201905092915050565b8281835e5f83830152505050565b5f601f19601f8301169050919050565b5f61062b826105e9565b61063581856105f3565b9350610645818560208601610603565b61064e81610611565b840191505092915050565b5f6020820190508181035f8301526106718184610621565b905092915050565b5f819050919050565b61068b81610679565b82525050565b5f6020820190506106a45f830184610682565b92915050565b5f80fd5b5f80fd5b7f4e487b71000000000000000000000000000000000000000000000000000000005f52604160045260245ffd5b6106e882610611565b810181811067ffffffffffffffff82111715610707576107066106b2565b5b80604052505050565b5f610719610583565b905061072582826106df565b919050565b5f67ffffffffffffffff821115610744576107436106b2565b5b61074d82610611565b9050602081019050919050565b828183375f83830152505050565b5f61077a6107758461072a565b610710565b905082815260208101848484011115610796576107956106ae565b5b6107a184828561075a565b509392505050565b5f82601f8301126107bd576107bc6106aa565b5b81356107cd848260208601610768565b91505092915050565b6107df81610679565b81146107e9575f80fd5b50565b5f813590506107fa816107d6565b92915050565b5f805f805f60a086880312156108195761081861058c565b5b5f86013567ffffffffffffffff81111561083657610835610590565b5b610842888289016107a9565b955050602086013567ffffffffffffffff81111561086357610862610590565b5b61086f888289016107a9565b945050604086013567ffffffffffffffff8111156108905761088f610590565b5b61089c888289016107a9565b93505060606108ad888289016107ec565b92505060806108be888289016105aa565b9150509295509295909350565b5f81519050919050565b5f82825260208201905092915050565b5f819050602082019050919050565b6108fd8161054a565b82525050565b5f61090e83836108f4565b60208301905092915050565b5f602082019050919050565b5f610930826108cb565b61093a81856108d5565b9350610945836108e5565b805f5b8381101561097557815161095c8882610903565b97506109678361091a565b925050600181019050610948565b5085935050505092915050565b5f6020820190508181035f83015261099a8184610926565b905092915050565b5f80604083850312156109b8576109b761058c565b5b5f6109c5858286016105aa565b92505060206109d6858286016107ec565b9150509250929050565b5f6109f26109ed8461072a565b610710565b905082815260208101848484011115610a0e57610a0d6106ae565b5b610a19848285610603565b509392505050565b5f82601f830112610a3557610a346106aa565b5b8151610a458482602086016109e0565b91505092915050565b5f60208284031215610a6357610a6261058c565b5b5f82015167ffffffffffffffff811115610a8057610a7f610590565b5b610a8c84828501610a21565b91505092915050565b7f6d757374206265206f6e206f776e6572000000000000000000000000000000005f82015250565b5f610ac96010836105f3565b9150610ad482610a95565b602082019050919050565b5f6020820190508181035f830152610af681610abd565b9050919050565b5f60a0820190508181035f830152610b158188610621565b90508181036020830152610b298187610621565b90508181036040830152610b3d8186610621565b9050610b4c6060830185610682565b610b59608083018461055b565b9695505050505050565b7f4e487b71000000000000000000000000000000000000000000000000000000005f52602260045260245ffd5b5f6002820490506001821680610ba757607f821691505b602082108103610bba57610bb9610b63565b5b50919050565b5f819050815f5260205f209050919050565b5f6020601f8301049050919050565b5f82821b905092915050565b5f60088302610c1c7fffffffffffffffffffffffffffffffffffffffffffffffffffffffffffffffff82610be1565b610c268683610be1565b95508019841693508086168417925050509392505050565b5f819050919050565b5f610c61610c5c610c5784610679565b610c3e565b610679565b9050919050565b5f819050919050565b610c7a83610c47565b610c8e610c8682610c68565b848454610bed565b825550505050565b5f90565b610ca2610c96565b610cad818484610c71565b505050565b5b81811015610cd057610cc55f82610c9a565b600181019050610cb3565b5050565b601f821115610d1557610ce681610bc0565b610cef84610bd2565b81016020851015610cfe578190505b610d12610d0a85610bd2565b830182610cb2565b50505b505050565b5f82821c905092915050565b5f610d355f1984600802610d1a565b1980831691505092915050565b5f610d4d8383610d26565b9150826002028217905092915050565b610d66826105e9565b67ffffffffffffffff811115610d7f57610d7e6106b2565b5b610d898254610b90565b610d94828285610cd4565b5f60209050601f831160018114610dc5575f8415610db3578287015190505b610dbd8582610d42565b865550610e24565b601f198416610dd386610bc0565b5f5b82811015610dfa57848901518255600182019150602085019450602081019050610dd5565b86831015610e175784890151610e13601f891682610d26565b8355505b6001600288020188555050505b505050505050565b5f81519050610e3a816107d6565b92915050565b5f60208284031215610e5557610e5461058c565b5b5f610e6284828501610e2c565b9150509291505056fe608060405234801561000f575f80fd5b506040516110a33803806110a38339818101604052810190610031919061028b565b845f908161003f919061055a565b50836001908161004f919061055a565b50826002908161005f919061055a565b50816003819055508060045f6101000a81548173ffffffffffffffffffffffffffffffffffffffff021916908373ffffffffffffffffffffffffffffffffffffffff1602179055505050505050610629565b5f604051905090565b5f80fd5b5f80fd5b5f80fd5b5f80fd5b5f601f19601f8301169050919050565b7f4e487b71000000000000000000000000000000000000000000000000000000005f52604160045260245ffd5b610110826100ca565b810181811067ffffffffffffffff8211171561012f5761012e6100da565b5b80604052505050565b5f6101416100b1565b905061014d8282610107565b919050565b5f67ffffffffffffffff82111561016c5761016b6100da565b5b610175826100ca565b9050602081019050919050565b8281835e5f83830152505050565b5f6101a261019d84610152565b610138565b9050828152602081018484840111156101be576101bd6100c6565b5b6101c9848285610182565b509392505050565b5f82601f8301126101e5576101e46100c2565b5b81516101f5848260208601610190565b91505092915050565b5f819050919050565b610210816101fe565b811461021a575f80fd5b50565b5f8151905061022b81610207565b92915050565b5f73ffffffffffffffffffffffffffffffffffffffff82169050919050565b5f61025a82610231565b9050919050565b61026a81610250565b8114610274575f80fd5b50565b5f8151905061028581610261565b92915050565b5f805f805f60a086880312156102a4576102a36100ba565b5b5f86015167ffffffffffffffff8111156102c1576102c06100be565b5b6102cd888289016101d1565b955050602086015167ffffffffffffffff8111156102ee576102ed6100be565b5b6102fa888289016101d1565b945050604086015167ffffffffffffffff81111561031b5761031a6100be565b5b610327888289016101d1565b93505060606103388882890161021d565b925050608061034988828901610277565b9150509295509295909350565b5f81519050919050565b7f4e487b71000000000000000000000000000000000000000000000000000000005f52602260045260245ffd5b5f60028204905060018216806103a457607f821691505b6020821081036103b7576103b6610360565b5b50919050565b5f819050815f5260205f209050919050565b5f6020601f8301049050919050565b5f82821b905092915050565b5f600883026104197fffffffffffffffffffffffffffffffffffffffffffffffffffffffffffffffff826103de565b61042386836103de565b95508019841693508086168417925050509392505050565b5f819050919050565b5f61045e610459610454846101fe565b61043b565b6101fe565b9050919050565b5f819050919050565b61047783610444565b61048b61048382610465565b8484546103ea565b825550505050565b5f90565b61049f610493565b6104aa81848461046e565b505050565b5b818110156104cd576104c25f82610497565b6001810190506104b0565b5050565b601f821115610512576104e3816103bd565b6104ec846103cf565b810160208510156104fb578190505b61050f610507856103cf565b8301826104af565b50505b505050565b5f82821c905092915050565b5f6105325f1984600802610517565b1980831691505092915050565b5f61054a8383610523565b9150826002028217905092915050565b61056382610356565b67ffffffffffffffff81111561057c5761057b6100da565b5b610586825461038d565b6105918282856104d1565b5f60209050601f8311600181146105c2575f84156105b0578287015190505b6105ba858261053f565b865550610621565b601f1984166105d0866103bd565b5f5b828110156105f7578489015182556001820191506020850194506020810190506105d2565b868310156106145784890151610610601f891682610523565b8355505b6001600288020188555050505b505050505050565b610a6d806106365f395ff3fe608060405234801561000f575f80fd5b506004361061009c575f3560e01c8063a7f93ebd11610064578063a7f93ebd14610132578063b84c3b2a14610150578063b84c82461461016e578063c47f00271461018a578063f4a0a528146101a65761009c565b806315070401146100a057806317d7de7c146100be5780632cda77a4146100dc5780634e16fc8b146100f85780639b642de114610116575b5f80fd5b6100a86101c2565b6040516100b59190610497565b60405180910390f35b6100c6610252565b6040516100d39190610497565b60405180910390f35b6100f660048036038101906100f19190610522565b6102e1565b005b610100610324565b60405161010d9190610497565b60405180910390f35b610130600480360381019061012b9190610679565b6103b4565b005b61013a6103c7565b60405161014791906106d8565b60405180910390f35b6101586103d0565b6040516101659190610700565b60405180910390f35b61018860048036038101906101839190610679565b6103f8565b005b6101a4600480360381019061019f9190610679565b61040b565b005b6101c060048036038101906101bb9190610743565b61041d565b005b6060600180546101d19061079b565b80601f01602080910402602001604051908101604052809291908181526020018280546101fd9061079b565b80156102485780601f1061021f57610100808354040283529160200191610248565b820191905f5260205f20905b81548152906001019060200180831161022b57829003601f168201915b5050505050905090565b60605f80546102609061079b565b80601f016020809104026020016040519081016040528092919081815260200182805461028c9061079b565b80156102d75780601f106102ae576101008083540402835291602001916102d7565b820191905f5260205f20905b8154815290600101906020018083116102ba57829003601f168201915b5050505050905090565b8060045f6101000a81548173ffffffffffffffffffffffffffffffffffffffff021916908373ffffffffffffffffffffffffffffffffffffffff16021790555050565b6060600280546103339061079b565b80601f016020809104026020016040519081016040528092919081815260200182805461035f9061079b565b80156103aa5780601f10610381576101008083540402835291602001916103aa565b820191905f5260205f20905b81548152906001019060200180831161038d57829003601f168201915b5050505050905090565b80600290816103c39190610968565b5050565b5f600354905090565b5f60045f9054906101000a900473ffffffffffffffffffffffffffffffffffffffff16905090565b80600190816104079190610968565b5050565b805f90816104199190610968565b5050565b8060038190555050565b5f81519050919050565b5f82825260208201905092915050565b8281835e5f83830152505050565b5f601f19601f8301169050919050565b5f61046982610427565b6104738185610431565b9350610483818560208601610441565b61048c8161044f565b840191505092915050565b5f6020820190508181035f8301526104af818461045f565b905092915050565b5f604051905090565b5f80fd5b5f80fd5b5f73ffffffffffffffffffffffffffffffffffffffff82169050919050565b5f6104f1826104c8565b9050919050565b610501816104e7565b811461050b575f80fd5b50565b5f8135905061051c816104f8565b92915050565b5f60208284031215610537576105366104c0565b5b5f6105448482850161050e565b91505092915050565b5f80fd5b5f80fd5b7f4e487b71000000000000000000000000000000000000000000000000000000005f52604160045260245ffd5b61058b8261044f565b810181811067ffffffffffffffff821117156105aa576105a9610555565b5b80604052505050565b5f6105bc6104b7565b90506105c88282610582565b919050565b5f67ffffffffffffffff8211156105e7576105e6610555565b5b6105f08261044f565b9050602081019050919050565b828183375f83830152505050565b5f61061d610618846105cd565b6105b3565b90508281526020810184848401111561063957610638610551565b5b6106448482856105fd565b509392505050565b5f82601f8301126106605761065f61054d565b5b813561067084826020860161060b565b91505092915050565b5f6020828403121561068e5761068d6104c0565b5b5f82013567ffffffffffffffff8111156106ab576106aa6104c4565b5b6106b78482850161064c565b91505092915050565b5f819050919050565b6106d2816106c0565b82525050565b5f6020820190506106eb5f8301846106c9565b92915050565b6106fa816104e7565b82525050565b5f6020820190506107135f8301846106f1565b92915050565b610722816106c0565b811461072c575f80fd5b50565b5f8135905061073d81610719565b92915050565b5f60208284031215610758576107576104c0565b5b5f6107658482850161072f565b91505092915050565b7f4e487b71000000000000000000000000000000000000000000000000000000005f52602260045260245ffd5b5f60028204905060018216806107b257607f821691505b6020821081036107c5576107c461076e565b5b50919050565b5f819050815f5260205f209050919050565b5f6020601f8301049050919050565b5f82821b905092915050565b5f600883026108277fffffffffffffffffffffffffffffffffffffffffffffffffffffffffffffffff826107ec565b61083186836107ec565b95508019841693508086168417925050509392505050565b5f819050919050565b5f61086c610867610862846106c0565b610849565b6106c0565b9050919050565b5f819050919050565b61088583610852565b61089961089182610873565b8484546107f8565b825550505050565b5f90565b6108ad6108a1565b6108b881848461087c565b505050565b5b818110156108db576108d05f826108a5565b6001810190506108be565b5050565b601f821115610920576108f1816107cb565b6108fa846107dd565b81016020851015610909578190505b61091d610915856107dd565b8301826108bd565b50505b505050565b5f82821c905092915050565b5f6109405f1984600802610925565b1980831691505092915050565b5f6109588383610931565b9150826002028217905092915050565b61097182610427565b67ffffffffffffffff81111561098a57610989610555565b5b610994825461079b565b61099f8282856108df565b5f60209050601f8311600181146109d0575f84156109be578287015190505b6109c8858261094d565b865550610a2f565b601f1984166109de866107cb565b5f5b82811015610a05578489015182556001820191506020850194506020810190506109e0565b86831015610a225784890151610a1e601f891682610931565b8355505b6001600288020188555050505b50505050505056fea264697066735822122004ec2699f2be554138d9a101fd4d641f15da4015651881d2ced484361a789a6a64736f6c634300081a0033a2646970667358221220ca1756ad4fb76c83a890885ed9b1414a209a097155a2f43facdb7d722ed8b15664736f6c634300081a0033",
					"opcodes": "PUSH1 0x80 PUSH1 0x40 MSTORE CALLVALUE DUP1 ISZERO PUSH1 0xE JUMPI PUSH0 DUP1 REVERT JUMPDEST POP CALLER PUSH0 DUP1 PUSH2 0x100 EXP DUP2 SLOAD DUP2 PUSH20 0xFFFFFFFFFFFFFFFFFFFFFFFFFFFFFFFFFFFFFFFF MUL NOT AND SWAP1 DUP4 PUSH20 0xFFFFFFFFFFFFFFFFFFFFFFFFFFFFFFFFFFFFFFFF AND MUL OR SWAP1 SSTORE POP PUSH2 0x1F44 DUP1 PUSH2 0x5B PUSH0 CODECOPY PUSH0 RETURN INVALID PUSH1 0x80 PUSH1 0x40 MSTORE CALLVALUE DUP1 ISZERO PUSH2 0xF JUMPI PUSH0 DUP1 REVERT JUMPDEST POP PUSH1 0x4 CALLDATASIZE LT PUSH2 0x7B JUMPI PUSH0 CALLDATALOAD PUSH1 0xE0 SHR DUP1 PUSH4 0x5D1430B7 GT PUSH2 0x59 JUMPI DUP1 PUSH4 0x5D1430B7 EQ PUSH2 0xEB JUMPI DUP1 PUSH4 0x6A1F5339 EQ PUSH2 0x107 JUMPI DUP1 PUSH4 0x719D0F2B EQ PUSH2 0x125 JUMPI DUP1 PUSH4 0xFD99734A EQ PUSH2 0x155 JUMPI PUSH2 0x7B JUMP JUMPDEST DUP1 PUSH4 0x38CC4831 EQ PUSH2 0x7F JUMPI DUP1 PUSH4 0x540B42E9 EQ PUSH2 0x9D JUMPI DUP1 PUSH4 0x590791F2 EQ PUSH2 0xCD JUMPI JUMPDEST PUSH0 DUP1 REVERT JUMPDEST PUSH2 0x87 PUSH2 0x171 JUMP JUMPDEST PUSH1 0x40 MLOAD PUSH2 0x94 SWAP2 SWAP1 PUSH2 0x56A JUMP JUMPDEST PUSH1 0x40 MLOAD DUP1 SWAP2 SUB SWAP1 RETURN JUMPDEST PUSH2 0xB7 PUSH1 0x4 DUP1 CALLDATASIZE SUB DUP2 ADD SWAP1 PUSH2 0xB2 SWAP2 SWAP1 PUSH2 0x5BE JUMP JUMPDEST PUSH2 0x178 JUMP JUMPDEST PUSH1 0x40 MLOAD PUSH2 0xC4 SWAP2 SWAP1 PUSH2 0x659 JUMP JUMPDEST PUSH1 0x40 MLOAD DUP1 SWAP2 SUB SWAP1 RETURN JUMPDEST PUSH2 0xD5 PUSH2 0x1F1 JUMP JUMPDEST PUSH1 0x40 MLOAD PUSH2 0xE2 SWAP2 SWAP1 PUSH2 0x691 JUMP JUMPDEST PUSH1 0x40 MLOAD DUP1 SWAP2 SUB SWAP1 RETURN JUMPDEST PUSH2 0x105 PUSH1 0x4 DUP1 CALLDATASIZE SUB DUP2 ADD SWAP1 PUSH2 0x100 SWAP2 SWAP1 PUSH2 0x800 JUMP JUMPDEST PUSH2 0x233 JUMP JUMPDEST STOP JUMPDEST PUSH2 0x10F PUSH2 0x3AF JUMP JUMPDEST PUSH1 0x40 MLOAD PUSH2 0x11C SWAP2 SWAP1 PUSH2 0x982 JUMP JUMPDEST PUSH1 0x40 MLOAD DUP1 SWAP2 SUB SWAP1 RETURN JUMPDEST PUSH2 0x13F PUSH1 0x4 DUP1 CALLDATASIZE SUB DUP2 ADD SWAP1 PUSH2 0x13A SWAP2 SWAP1 PUSH2 0x5BE JUMP JUMPDEST PUSH2 0x43A JUMP JUMPDEST PUSH1 0x40 MLOAD PUSH2 0x14C SWAP2 SWAP1 PUSH2 0x691 JUMP JUMPDEST PUSH1 0x40 MLOAD DUP1 SWAP2 SUB SWAP1 RETURN JUMPDEST PUSH2 0x16F PUSH1 0x4 DUP1 CALLDATASIZE SUB DUP2 ADD SWAP1 PUSH2 0x16A SWAP2 SWAP1 PUSH2 0x9A2 JUMP JUMPDEST PUSH2 0x4B4 JUMP JUMPDEST STOP JUMPDEST PUSH0 ADDRESS SWAP1 POP SWAP1 JUMP JUMPDEST PUSH1 0x60 DUP2 PUSH20 0xFFFFFFFFFFFFFFFFFFFFFFFFFFFFFFFFFFFFFFFF AND PUSH4 0x17D7DE7C PUSH1 0x40 MLOAD DUP2 PUSH4 0xFFFFFFFF AND PUSH1 0xE0 SHL DUP2 MSTORE PUSH1 0x4 ADD PUSH0 PUSH1 0x40 MLOAD DUP1 DUP4 SUB DUP2 DUP7 GAS STATICCALL ISZERO DUP1 ISZERO PUSH2 0x1C2 JUMPI RETURNDATASIZE PUSH0 DUP1 RETURNDATACOPY RETURNDATASIZE PUSH0 REVERT JUMPDEST POP POP POP POP PUSH1 0x40 MLOAD RETURNDATASIZE PUSH0 DUP3 RETURNDATACOPY RETURNDATASIZE PUSH1 0x1F NOT PUSH1 0x1F DUP3 ADD AND DUP3 ADD DUP1 PUSH1 0x40 MSTORE POP DUP2 ADD SWAP1 PUSH2 0x1EA SWAP2 SWAP1 PUSH2 0xA4E JUMP JUMPDEST SWAP1 POP SWAP2 SWAP1 POP JUMP JUMPDEST PUSH0 DUP1 PUSH0 DUP1 SLOAD SWAP1 PUSH2 0x100 EXP SWAP1 DIV PUSH20 0xFFFFFFFFFFFFFFFFFFFFFFFFFFFFFFFFFFFFFFFF AND PUSH20 0xFFFFFFFFFFFFFFFFFFFFFFFFFFFFFFFFFFFFFFFF AND BALANCE SWAP1 POP DUP1 SWAP2 POP POP SWAP1 JUMP JUMPDEST PUSH0 DUP1 SLOAD SWAP1 PUSH2 0x100 EXP SWAP1 DIV PUSH20 0xFFFFFFFFFFFFFFFFFFFFFFFFFFFFFFFFFFFFFFFF AND PUSH20 0xFFFFFFFFFFFFFFFFFFFFFFFFFFFFFFFFFFFFFFFF AND CALLER PUSH20 0xFFFFFFFFFFFFFFFFFFFFFFFFFFFFFFFFFFFFFFFF AND EQ PUSH2 0x2C0 JUMPI PUSH1 0x40 MLOAD PUSH32 0x8C379A000000000000000000000000000000000000000000000000000000000 DUP2 MSTORE PUSH1 0x4 ADD PUSH2 0x2B7 SWAP1 PUSH2 0xADF JUMP JUMPDEST PUSH1 0x40 MLOAD DUP1 SWAP2 SUB SWAP1 REVERT JUMPDEST PUSH0 DUP6 DUP6 DUP6 DUP6 DUP6 PUSH1 0x40 MLOAD PUSH2 0x2D2 SWAP1 PUSH2 0x51E JUMP JUMPDEST PUSH2 0x2E0 SWAP6 SWAP5 SWAP4 SWAP3 SWAP2 SWAP1 PUSH2 0xAFD JUMP JUMPDEST PUSH1 0x40 MLOAD DUP1 SWAP2 SUB SWAP1 PUSH0 CREATE DUP1 ISZERO DUP1 ISZERO PUSH2 0x2F9 JUMPI RETURNDATASIZE PUSH0 DUP1 RETURNDATACOPY RETURNDATASIZE PUSH0 REVERT JUMPDEST POP SWAP1 POP DUP6 PUSH1 0x2 PUSH0 DUP4 PUSH20 0xFFFFFFFFFFFFFFFFFFFFFFFFFFFFFFFFFFFFFFFF AND PUSH20 0xFFFFFFFFFFFFFFFFFFFFFFFFFFFFFFFFFFFFFFFF AND DUP2 MSTORE PUSH1 0x20 ADD SWAP1 DUP2 MSTORE PUSH1 0x20 ADD PUSH0 KECCAK256 SWAP1 DUP2 PUSH2 0x346 SWAP2 SWAP1 PUSH2 0xD5D JUMP JUMPDEST POP PUSH1 0x1 DUP2 SWAP1 DUP1 PUSH1 0x1 DUP2 SLOAD ADD DUP1 DUP3 SSTORE DUP1 SWAP2 POP POP PUSH1 0x1 SWAP1 SUB SWAP1 PUSH0 MSTORE PUSH1 0x20 PUSH0 KECCAK256 ADD PUSH0 SWAP1 SWAP2 SWAP1 SWAP2 SWAP1 SWAP2 PUSH2 0x100 EXP DUP2 SLOAD DUP2 PUSH20 0xFFFFFFFFFFFFFFFFFFFFFFFFFFFFFFFFFFFFFFFF MUL NOT AND SWAP1 DUP4 PUSH20 0xFFFFFFFFFFFFFFFFFFFFFFFFFFFFFFFFFFFFFFFF AND MUL OR SWAP1 SSTORE POP POP POP POP POP POP POP JUMP JUMPDEST PUSH1 0x60 PUSH1 0x1 DUP1 SLOAD DUP1 PUSH1 0x20 MUL PUSH1 0x20 ADD PUSH1 0x40 MLOAD SWAP1 DUP2 ADD PUSH1 0x40 MSTORE DUP1 SWAP3 SWAP2 SWAP1 DUP2 DUP2 MSTORE PUSH1 0x20 ADD DUP3 DUP1 SLOAD DUP1 ISZERO PUSH2 0x430 JUMPI PUSH1 0x20 MUL DUP3 ADD SWAP2 SWAP1 PUSH0 MSTORE PUSH1 0x20 PUSH0 KECCAK256 SWAP1 JUMPDEST DUP2 PUSH0 SWAP1 SLOAD SWAP1 PUSH2 0x100 EXP SWAP1 DIV PUSH20 0xFFFFFFFFFFFFFFFFFFFFFFFFFFFFFFFFFFFFFFFF AND PUSH20 0xFFFFFFFFFFFFFFFFFFFFFFFFFFFFFFFFFFFFFFFF AND DUP2 MSTORE PUSH1 0x20 ADD SWAP1 PUSH1 0x1 ADD SWAP1 DUP1 DUP4 GT PUSH2 0x3E7 JUMPI JUMPDEST POP POP POP POP POP SWAP1 POP SWAP1 JUMP JUMPDEST PUSH0 DUP1 DUP3 PUSH20 0xFFFFFFFFFFFFFFFFFFFFFFFFFFFFFFFFFFFFFFFF AND PUSH4 0xA7F93EBD PUSH1 0x40 MLOAD DUP2 PUSH4 0xFFFFFFFF AND PUSH1 0xE0 SHL DUP2 MSTORE PUSH1 0x4 ADD PUSH1 0x20 PUSH1 0x40 MLOAD DUP1 DUP4 SUB DUP2 DUP7 GAS STATICCALL ISZERO DUP1 ISZERO PUSH2 0x485 JUMPI RETURNDATASIZE PUSH0 DUP1 RETURNDATACOPY RETURNDATASIZE PUSH0 REVERT JUMPDEST POP POP POP POP PUSH1 0x40 MLOAD RETURNDATASIZE PUSH1 0x1F NOT PUSH1 0x1F DUP3 ADD AND DUP3 ADD DUP1 PUSH1 0x40 MSTORE POP DUP2 ADD SWAP1 PUSH2 0x4A9 SWAP2 SWAP1 PUSH2 0xE40 JUMP JUMPDEST SWAP1 POP DUP1 SWAP2 POP POP SWAP2 SWAP1 POP JUMP JUMPDEST DUP2 PUSH20 0xFFFFFFFFFFFFFFFFFFFFFFFFFFFFFFFFFFFFFFFF AND PUSH4 0xF4A0A528 DUP3 PUSH1 0x40 MLOAD DUP3 PUSH4 0xFFFFFFFF AND PUSH1 0xE0 SHL DUP2 MSTORE PUSH1 0x4 ADD PUSH2 0x4ED SWAP2 SWAP1 PUSH2 0x691 JUMP JUMPDEST PUSH0 PUSH1 0x40 MLOAD DUP1 DUP4 SUB DUP2 PUSH0 DUP8 DUP1 EXTCODESIZE ISZERO DUP1 ISZERO PUSH2 0x504 JUMPI PUSH0 DUP1 REVERT JUMPDEST POP GAS CALL ISZERO DUP1 ISZERO PUSH2 0x516 JUMPI RETURNDATASIZE PUSH0 DUP1 RETURNDATACOPY RETURNDATASIZE PUSH0 REVERT JUMPDEST POP POP POP POP POP POP JUMP JUMPDEST PUSH2 0x10A3 DUP1 PUSH2 0xE6C DUP4 CODECOPY ADD SWAP1 JUMP JUMPDEST PUSH0 PUSH20 0xFFFFFFFFFFFFFFFFFFFFFFFFFFFFFFFFFFFFFFFF DUP3 AND SWAP1 POP SWAP2 SWAP1 POP JUMP JUMPDEST PUSH0 PUSH2 0x554 DUP3 PUSH2 0x52B JUMP JUMPDEST SWAP1 POP SWAP2 SWAP1 POP JUMP JUMPDEST PUSH2 0x564 DUP2 PUSH2 0x54A JUMP JUMPDEST DUP3 MSTORE POP POP JUMP JUMPDEST PUSH0 PUSH1 0x20 DUP3 ADD SWAP1 POP PUSH2 0x57D PUSH0 DUP4 ADD DUP5 PUSH2 0x55B JUMP JUMPDEST SWAP3 SWAP2 POP POP JUMP JUMPDEST PUSH0 PUSH1 0x40 MLOAD SWAP1 POP SWAP1 JUMP JUMPDEST PUSH0 DUP1 REVERT JUMPDEST PUSH0 DUP1 REVERT JUMPDEST PUSH2 0x59D DUP2 PUSH2 0x54A JUMP JUMPDEST DUP2 EQ PUSH2 0x5A7 JUMPI PUSH0 DUP1 REVERT JUMPDEST POP JUMP JUMPDEST PUSH0 DUP2 CALLDATALOAD SWAP1 POP PUSH2 0x5B8 DUP2 PUSH2 0x594 JUMP JUMPDEST SWAP3 SWAP2 POP POP JUMP JUMPDEST PUSH0 PUSH1 0x20 DUP3 DUP5 SUB SLT ISZERO PUSH2 0x5D3 JUMPI PUSH2 0x5D2 PUSH2 0x58C JUMP JUMPDEST JUMPDEST PUSH0 PUSH2 0x5E0 DUP5 DUP3 DUP6 ADD PUSH2 0x5AA JUMP JUMPDEST SWAP2 POP POP SWAP3 SWAP2 POP POP JUMP JUMPDEST PUSH0 DUP2 MLOAD SWAP1 POP SWAP2 SWAP1 POP JUMP JUMPDEST PUSH0 DUP3 DUP3 MSTORE PUSH1 0x20 DUP3 ADD SWAP1 POP SWAP3 SWAP2 POP POP JUMP JUMPDEST DUP3 DUP2 DUP4 MCOPY PUSH0 DUP4 DUP4 ADD MSTORE POP POP POP JUMP JUMPDEST PUSH0 PUSH1 0x1F NOT PUSH1 0x1F DUP4 ADD AND SWAP1 POP SWAP2 SWAP1 POP JUMP JUMPDEST PUSH0 PUSH2 0x62B DUP3 PUSH2 0x5E9 JUMP JUMPDEST PUSH2 0x635 DUP2 DUP6 PUSH2 0x5F3 JUMP JUMPDEST SWAP4 POP PUSH2 0x645 DUP2 DUP6 PUSH1 0x20 DUP7 ADD PUSH2 0x603 JUMP JUMPDEST PUSH2 0x64E DUP2 PUSH2 0x611 JUMP JUMPDEST DUP5 ADD SWAP2 POP POP SWAP3 SWAP2 POP POP JUMP JUMPDEST PUSH0 PUSH1 0x20 DUP3 ADD SWAP1 POP DUP2 DUP2 SUB PUSH0 DUP4 ADD MSTORE PUSH2 0x671 DUP2 DUP5 PUSH2 0x621 JUMP JUMPDEST SWAP1 POP SWAP3 SWAP2 POP POP JUMP JUMPDEST PUSH0 DUP2 SWAP1 POP SWAP2 SWAP1 POP JUMP JUMPDEST PUSH2 0x68B DUP2 PUSH2 0x679 JUMP JUMPDEST DUP3 MSTORE POP POP JUMP JUMPDEST PUSH0 PUSH1 0x20 DUP3 ADD SWAP1 POP PUSH2 0x6A4 PUSH0 DUP4 ADD DUP5 PUSH2 0x682 JUMP JUMPDEST SWAP3 SWAP2 POP POP JUMP JUMPDEST PUSH0 DUP1 REVERT JUMPDEST PUSH0 DUP1 REVERT JUMPDEST PUSH32 0x4E487B7100000000000000000000000000000000000000000000000000000000 PUSH0 MSTORE PUSH1 0x41 PUSH1 0x4 MSTORE PUSH1 0x24 PUSH0 REVERT JUMPDEST PUSH2 0x6E8 DUP3 PUSH2 0x611 JUMP JUMPDEST DUP2 ADD DUP2 DUP2 LT PUSH8 0xFFFFFFFFFFFFFFFF DUP3 GT OR ISZERO PUSH2 0x707 JUMPI PUSH2 0x706 PUSH2 0x6B2 JUMP JUMPDEST JUMPDEST DUP1 PUSH1 0x40 MSTORE POP POP POP JUMP JUMPDEST PUSH0 PUSH2 0x719 PUSH2 0x583 JUMP JUMPDEST SWAP1 POP PUSH2 0x725 DUP3 DUP3 PUSH2 0x6DF JUMP JUMPDEST SWAP2 SWAP1 POP JUMP JUMPDEST PUSH0 PUSH8 0xFFFFFFFFFFFFFFFF DUP3 GT ISZERO PUSH2 0x744 JUMPI PUSH2 0x743 PUSH2 0x6B2 JUMP JUMPDEST JUMPDEST PUSH2 0x74D DUP3 PUSH2 0x611 JUMP JUMPDEST SWAP1 POP PUSH1 0x20 DUP2 ADD SWAP1 POP SWAP2 SWAP1 POP JUMP JUMPDEST DUP3 DUP2 DUP4 CALLDATACOPY PUSH0 DUP4 DUP4 ADD MSTORE POP POP POP JUMP JUMPDEST PUSH0 PUSH2 0x77A PUSH2 0x775 DUP5 PUSH2 0x72A JUMP JUMPDEST PUSH2 0x710 JUMP JUMPDEST SWAP1 POP DUP3 DUP2 MSTORE PUSH1 0x20 DUP2 ADD DUP5 DUP5 DUP5 ADD GT ISZERO PUSH2 0x796 JUMPI PUSH2 0x795 PUSH2 0x6AE JUMP JUMPDEST JUMPDEST PUSH2 0x7A1 DUP5 DUP3 DUP6 PUSH2 0x75A JUMP JUMPDEST POP SWAP4 SWAP3 POP POP POP JUMP JUMPDEST PUSH0 DUP3 PUSH1 0x1F DUP4 ADD SLT PUSH2 0x7BD JUMPI PUSH2 0x7BC PUSH2 0x6AA JUMP JUMPDEST JUMPDEST DUP2 CALLDATALOAD PUSH2 0x7CD DUP5 DUP3 PUSH1 0x20 DUP7 ADD PUSH2 0x768 JUMP JUMPDEST SWAP2 POP POP SWAP3 SWAP2 POP POP JUMP JUMPDEST PUSH2 0x7DF DUP2 PUSH2 0x679 JUMP JUMPDEST DUP2 EQ PUSH2 0x7E9 JUMPI PUSH0 DUP1 REVERT JUMPDEST POP JUMP JUMPDEST PUSH0 DUP2 CALLDATALOAD SWAP1 POP PUSH2 0x7FA DUP2 PUSH2 0x7D6 JUMP JUMPDEST SWAP3 SWAP2 POP POP JUMP JUMPDEST PUSH0 DUP1 PUSH0 DUP1 PUSH0 PUSH1 0xA0 DUP7 DUP9 SUB SLT ISZERO PUSH2 0x819 JUMPI PUSH2 0x818 PUSH2 0x58C JUMP JUMPDEST JUMPDEST PUSH0 DUP7 ADD CALLDATALOAD PUSH8 0xFFFFFFFFFFFFFFFF DUP2 GT ISZERO PUSH2 0x836 JUMPI PUSH2 0x835 PUSH2 0x590 JUMP JUMPDEST JUMPDEST PUSH2 0x842 DUP9 DUP3 DUP10 ADD PUSH2 0x7A9 JUMP JUMPDEST SWAP6 POP POP PUSH1 0x20 DUP7 ADD CALLDATALOAD PUSH8 0xFFFFFFFFFFFFFFFF DUP2 GT ISZERO PUSH2 0x863 JUMPI PUSH2 0x862 PUSH2 0x590 JUMP JUMPDEST JUMPDEST PUSH2 0x86F DUP9 DUP3 DUP10 ADD PUSH2 0x7A9 JUMP JUMPDEST SWAP5 POP POP PUSH1 0x40 DUP7 ADD CALLDATALOAD PUSH8 0xFFFFFFFFFFFFFFFF DUP2 GT ISZERO PUSH2 0x890 JUMPI PUSH2 0x88F PUSH2 0x590 JUMP JUMPDEST JUMPDEST PUSH2 0x89C DUP9 DUP3 DUP10 ADD PUSH2 0x7A9 JUMP JUMPDEST SWAP4 POP POP PUSH1 0x60 PUSH2 0x8AD DUP9 DUP3 DUP10 ADD PUSH2 0x7EC JUMP JUMPDEST SWAP3 POP POP PUSH1 0x80 PUSH2 0x8BE DUP9 DUP3 DUP10 ADD PUSH2 0x5AA JUMP JUMPDEST SWAP2 POP POP SWAP3 SWAP6 POP SWAP3 SWAP6 SWAP1 SWAP4 POP JUMP JUMPDEST PUSH0 DUP2 MLOAD SWAP1 POP SWAP2 SWAP1 POP JUMP JUMPDEST PUSH0 DUP3 DUP3 MSTORE PUSH1 0x20 DUP3 ADD SWAP1 POP SWAP3 SWAP2 POP POP JUMP JUMPDEST PUSH0 DUP2 SWAP1 POP PUSH1 0x20 DUP3 ADD SWAP1 POP SWAP2 SWAP1 POP JUMP JUMPDEST PUSH2 0x8FD DUP2 PUSH2 0x54A JUMP JUMPDEST DUP3 MSTORE POP POP JUMP JUMPDEST PUSH0 PUSH2 0x90E DUP4 DUP4 PUSH2 0x8F4 JUMP JUMPDEST PUSH1 0x20 DUP4 ADD SWAP1 POP SWAP3 SWAP2 POP POP JUMP JUMPDEST PUSH0 PUSH1 0x20 DUP3 ADD SWAP1 POP SWAP2 SWAP1 POP JUMP JUMPDEST PUSH0 PUSH2 0x930 DUP3 PUSH2 0x8CB JUMP JUMPDEST PUSH2 0x93A DUP2 DUP6 PUSH2 0x8D5 JUMP JUMPDEST SWAP4 POP PUSH2 0x945 DUP4 PUSH2 0x8E5 JUMP JUMPDEST DUP1 PUSH0 JUMPDEST DUP4 DUP2 LT ISZERO PUSH2 0x975 JUMPI DUP2 MLOAD PUSH2 0x95C DUP9 DUP3 PUSH2 0x903 JUMP JUMPDEST SWAP8 POP PUSH2 0x967 DUP4 PUSH2 0x91A JUMP JUMPDEST SWAP3 POP POP PUSH1 0x1 DUP2 ADD SWAP1 POP PUSH2 0x948 JUMP JUMPDEST POP DUP6 SWAP4 POP POP POP POP SWAP3 SWAP2 POP POP JUMP JUMPDEST PUSH0 PUSH1 0x20 DUP3 ADD SWAP1 POP DUP2 DUP2 SUB PUSH0 DUP4 ADD MSTORE PUSH2 0x99A DUP2 DUP5 PUSH2 0x926 JUMP JUMPDEST SWAP1 POP SWAP3 SWAP2 POP POP JUMP JUMPDEST PUSH0 DUP1 PUSH1 0x40 DUP4 DUP6 SUB SLT ISZERO PUSH2 0x9B8 JUMPI PUSH2 0x9B7 PUSH2 0x58C JUMP JUMPDEST JUMPDEST PUSH0 PUSH2 0x9C5 DUP6 DUP3 DUP7 ADD PUSH2 0x5AA JUMP JUMPDEST SWAP3 POP POP PUSH1 0x20 PUSH2 0x9D6 DUP6 DUP3 DUP7 ADD PUSH2 0x7EC JUMP JUMPDEST SWAP2 POP POP SWAP3 POP SWAP3 SWAP1 POP JUMP JUMPDEST PUSH0 PUSH2 0x9F2 PUSH2 0x9ED DUP5 PUSH2 0x72A JUMP JUMPDEST PUSH2 0x710 JUMP JUMPDEST SWAP1 POP DUP3 DUP2 MSTORE PUSH1 0x20 DUP2 ADD DUP5 DUP5 DUP5 ADD GT ISZERO PUSH2 0xA0E JUMPI PUSH2 0xA0D PUSH2 0x6AE JUMP JUMPDEST JUMPDEST PUSH2 0xA19 DUP5 DUP3 DUP6 PUSH2 0x603 JUMP JUMPDEST POP SWAP4 SWAP3 POP POP POP JUMP JUMPDEST PUSH0 DUP3 PUSH1 0x1F DUP4 ADD SLT PUSH2 0xA35 JUMPI PUSH2 0xA34 PUSH2 0x6AA JUMP JUMPDEST JUMPDEST DUP2 MLOAD PUSH2 0xA45 DUP5 DUP3 PUSH1 0x20 DUP7 ADD PUSH2 0x9E0 JUMP JUMPDEST SWAP2 POP POP SWAP3 SWAP2 POP POP JUMP JUMPDEST PUSH0 PUSH1 0x20 DUP3 DUP5 SUB SLT ISZERO PUSH2 0xA63 JUMPI PUSH2 0xA62 PUSH2 0x58C JUMP JUMPDEST JUMPDEST PUSH0 DUP3 ADD MLOAD PUSH8 0xFFFFFFFFFFFFFFFF DUP2 GT ISZERO PUSH2 0xA80 JUMPI PUSH2 0xA7F PUSH2 0x590 JUMP JUMPDEST JUMPDEST PUSH2 0xA8C DUP5 DUP3 DUP6 ADD PUSH2 0xA21 JUMP JUMPDEST SWAP2 POP POP SWAP3 SWAP2 POP POP JUMP JUMPDEST PUSH32 0x6D757374206265206F6E206F776E657200000000000000000000000000000000 PUSH0 DUP3 ADD MSTORE POP JUMP JUMPDEST PUSH0 PUSH2 0xAC9 PUSH1 0x10 DUP4 PUSH2 0x5F3 JUMP JUMPDEST SWAP2 POP PUSH2 0xAD4 DUP3 PUSH2 0xA95 JUMP JUMPDEST PUSH1 0x20 DUP3 ADD SWAP1 POP SWAP2 SWAP1 POP JUMP JUMPDEST PUSH0 PUSH1 0x20 DUP3 ADD SWAP1 POP DUP2 DUP2 SUB PUSH0 DUP4 ADD MSTORE PUSH2 0xAF6 DUP2 PUSH2 0xABD JUMP JUMPDEST SWAP1 POP SWAP2 SWAP1 POP JUMP JUMPDEST PUSH0 PUSH1 0xA0 DUP3 ADD SWAP1 POP DUP2 DUP2 SUB PUSH0 DUP4 ADD MSTORE PUSH2 0xB15 DUP2 DUP9 PUSH2 0x621 JUMP JUMPDEST SWAP1 POP DUP2 DUP2 SUB PUSH1 0x20 DUP4 ADD MSTORE PUSH2 0xB29 DUP2 DUP8 PUSH2 0x621 JUMP JUMPDEST SWAP1 POP DUP2 DUP2 SUB PUSH1 0x40 DUP4 ADD MSTORE PUSH2 0xB3D DUP2 DUP7 PUSH2 0x621 JUMP JUMPDEST SWAP1 POP PUSH2 0xB4C PUSH1 0x60 DUP4 ADD DUP6 PUSH2 0x682 JUMP JUMPDEST PUSH2 0xB59 PUSH1 0x80 DUP4 ADD DUP5 PUSH2 0x55B JUMP JUMPDEST SWAP7 SWAP6 POP POP POP POP POP POP JUMP JUMPDEST PUSH32 0x4E487B7100000000000000000000000000000000000000000000000000000000 PUSH0 MSTORE PUSH1 0x22 PUSH1 0x4 MSTORE PUSH1 0x24 PUSH0 REVERT JUMPDEST PUSH0 PUSH1 0x2 DUP3 DIV SWAP1 POP PUSH1 0x1 DUP3 AND DUP1 PUSH2 0xBA7 JUMPI PUSH1 0x7F DUP3 AND SWAP2 POP JUMPDEST PUSH1 0x20 DUP3 LT DUP2 SUB PUSH2 0xBBA JUMPI PUSH2 0xBB9 PUSH2 0xB63 JUMP JUMPDEST JUMPDEST POP SWAP2 SWAP1 POP JUMP JUMPDEST PUSH0 DUP2 SWAP1 POP DUP2 PUSH0 MSTORE PUSH1 0x20 PUSH0 KECCAK256 SWAP1 POP SWAP2 SWAP1 POP JUMP JUMPDEST PUSH0 PUSH1 0x20 PUSH1 0x1F DUP4 ADD DIV SWAP1 POP SWAP2 SWAP1 POP JUMP JUMPDEST PUSH0 DUP3 DUP3 SHL SWAP1 POP SWAP3 SWAP2 POP POP JUMP JUMPDEST PUSH0 PUSH1 0x8 DUP4 MUL PUSH2 0xC1C PUSH32 0xFFFFFFFFFFFFFFFFFFFFFFFFFFFFFFFFFFFFFFFFFFFFFFFFFFFFFFFFFFFFFFFF DUP3 PUSH2 0xBE1 JUMP JUMPDEST PUSH2 0xC26 DUP7 DUP4 PUSH2 0xBE1 JUMP JUMPDEST SWAP6 POP DUP1 NOT DUP5 AND SWAP4 POP DUP1 DUP7 AND DUP5 OR SWAP3 POP POP POP SWAP4 SWAP3 POP POP POP JUMP JUMPDEST PUSH0 DUP2 SWAP1 POP SWAP2 SWAP1 POP JUMP JUMPDEST PUSH0 PUSH2 0xC61 PUSH2 0xC5C PUSH2 0xC57 DUP5 PUSH2 0x679 JUMP JUMPDEST PUSH2 0xC3E JUMP JUMPDEST PUSH2 0x679 JUMP JUMPDEST SWAP1 POP SWAP2 SWAP1 POP JUMP JUMPDEST PUSH0 DUP2 SWAP1 POP SWAP2 SWAP1 POP JUMP JUMPDEST PUSH2 0xC7A DUP4 PUSH2 0xC47 JUMP JUMPDEST PUSH2 0xC8E PUSH2 0xC86 DUP3 PUSH2 0xC68 JUMP JUMPDEST DUP5 DUP5 SLOAD PUSH2 0xBED JUMP JUMPDEST DUP3 SSTORE POP POP POP POP JUMP JUMPDEST PUSH0 SWAP1 JUMP JUMPDEST PUSH2 0xCA2 PUSH2 0xC96 JUMP JUMPDEST PUSH2 0xCAD DUP2 DUP5 DUP5 PUSH2 0xC71 JUMP JUMPDEST POP POP POP JUMP JUMPDEST JUMPDEST DUP2 DUP2 LT ISZERO PUSH2 0xCD0 JUMPI PUSH2 0xCC5 PUSH0 DUP3 PUSH2 0xC9A JUMP JUMPDEST PUSH1 0x1 DUP2 ADD SWAP1 POP PUSH2 0xCB3 JUMP JUMPDEST POP POP JUMP JUMPDEST PUSH1 0x1F DUP3 GT ISZERO PUSH2 0xD15 JUMPI PUSH2 0xCE6 DUP2 PUSH2 0xBC0 JUMP JUMPDEST PUSH2 0xCEF DUP5 PUSH2 0xBD2 JUMP JUMPDEST DUP2 ADD PUSH1 0x20 DUP6 LT ISZERO PUSH2 0xCFE JUMPI DUP2 SWAP1 POP JUMPDEST PUSH2 0xD12 PUSH2 0xD0A DUP6 PUSH2 0xBD2 JUMP JUMPDEST DUP4 ADD DUP3 PUSH2 0xCB2 JUMP JUMPDEST POP POP JUMPDEST POP POP POP JUMP JUMPDEST PUSH0 DUP3 DUP3 SHR SWAP1 POP SWAP3 SWAP2 POP POP JUMP JUMPDEST PUSH0 PUSH2 0xD35 PUSH0 NOT DUP5 PUSH1 0x8 MUL PUSH2 0xD1A JUMP JUMPDEST NOT DUP1 DUP4 AND SWAP2 POP POP SWAP3 SWAP2 POP POP JUMP JUMPDEST PUSH0 PUSH2 0xD4D DUP4 DUP4 PUSH2 0xD26 JUMP JUMPDEST SWAP2 POP DUP3 PUSH1 0x2 MUL DUP3 OR SWAP1 POP SWAP3 SWAP2 POP POP JUMP JUMPDEST PUSH2 0xD66 DUP3 PUSH2 0x5E9 JUMP JUMPDEST PUSH8 0xFFFFFFFFFFFFFFFF DUP2 GT ISZERO PUSH2 0xD7F JUMPI PUSH2 0xD7E PUSH2 0x6B2 JUMP JUMPDEST JUMPDEST PUSH2 0xD89 DUP3 SLOAD PUSH2 0xB90 JUMP JUMPDEST PUSH2 0xD94 DUP3 DUP3 DUP6 PUSH2 0xCD4 JUMP JUMPDEST PUSH0 PUSH1 0x20 SWAP1 POP PUSH1 0x1F DUP4 GT PUSH1 0x1 DUP2 EQ PUSH2 0xDC5 JUMPI PUSH0 DUP5 ISZERO PUSH2 0xDB3 JUMPI DUP3 DUP8 ADD MLOAD SWAP1 POP JUMPDEST PUSH2 0xDBD DUP6 DUP3 PUSH2 0xD42 JUMP JUMPDEST DUP7 SSTORE POP PUSH2 0xE24 JUMP JUMPDEST PUSH1 0x1F NOT DUP5 AND PUSH2 0xDD3 DUP7 PUSH2 0xBC0 JUMP JUMPDEST PUSH0 JUMPDEST DUP3 DUP2 LT ISZERO PUSH2 0xDFA JUMPI DUP5 DUP10 ADD MLOAD DUP3 SSTORE PUSH1 0x1 DUP3 ADD SWAP2 POP PUSH1 0x20 DUP6 ADD SWAP5 POP PUSH1 0x20 DUP2 ADD SWAP1 POP PUSH2 0xDD5 JUMP JUMPDEST DUP7 DUP4 LT ISZERO PUSH2 0xE17 JUMPI DUP5 DUP10 ADD MLOAD PUSH2 0xE13 PUSH1 0x1F DUP10 AND DUP3 PUSH2 0xD26 JUMP JUMPDEST DUP4 SSTORE POP JUMPDEST PUSH1 0x1 PUSH1 0x2 DUP9 MUL ADD DUP9 SSTORE POP POP POP JUMPDEST POP POP POP POP POP POP JUMP JUMPDEST PUSH0 DUP2 MLOAD SWAP1 POP PUSH2 0xE3A DUP2 PUSH2 0x7D6 JUMP JUMPDEST SWAP3 SWAP2 POP POP JUMP JUMPDEST PUSH0 PUSH1 0x20 DUP3 DUP5 SUB SLT ISZERO PUSH2 0xE55 JUMPI PUSH2 0xE54 PUSH2 0x58C JUMP JUMPDEST JUMPDEST PUSH0 PUSH2 0xE62 DUP5 DUP3 DUP6 ADD PUSH2 0xE2C JUMP JUMPDEST SWAP2 POP POP SWAP3 SWAP2 POP POP JUMP INVALID PUSH1 0x80 PUSH1 0x40 MSTORE CALLVALUE DUP1 ISZERO PUSH2 0xF JUMPI PUSH0 DUP1 REVERT JUMPDEST POP PUSH1 0x40 MLOAD PUSH2 0x10A3 CODESIZE SUB DUP1 PUSH2 0x10A3 DUP4 CODECOPY DUP2 DUP2 ADD PUSH1 0x40 MSTORE DUP2 ADD SWAP1 PUSH2 0x31 SWAP2 SWAP1 PUSH2 0x28B JUMP JUMPDEST DUP5 PUSH0 SWAP1 DUP2 PUSH2 0x3F SWAP2 SWAP1 PUSH2 0x55A JUMP JUMPDEST POP DUP4 PUSH1 0x1 SWAP1 DUP2 PUSH2 0x4F SWAP2 SWAP1 PUSH2 0x55A JUMP JUMPDEST POP DUP3 PUSH1 0x2 SWAP1 DUP2 PUSH2 0x5F SWAP2 SWAP1 PUSH2 0x55A JUMP JUMPDEST POP DUP2 PUSH1 0x3 DUP2 SWAP1 SSTORE POP DUP1 PUSH1 0x4 PUSH0 PUSH2 0x100 EXP DUP2 SLOAD DUP2 PUSH20 0xFFFFFFFFFFFFFFFFFFFFFFFFFFFFFFFFFFFFFFFF MUL NOT AND SWAP1 DUP4 PUSH20 0xFFFFFFFFFFFFFFFFFFFFFFFFFFFFFFFFFFFFFFFF AND MUL OR SWAP1 SSTORE POP POP POP POP POP POP PUSH2 0x629 JUMP JUMPDEST PUSH0 PUSH1 0x40 MLOAD SWAP1 POP SWAP1 JUMP JUMPDEST PUSH0 DUP1 REVERT JUMPDEST PUSH0 DUP1 REVERT JUMPDEST PUSH0 DUP1 REVERT JUMPDEST PUSH0 DUP1 REVERT JUMPDEST PUSH0 PUSH1 0x1F NOT PUSH1 0x1F DUP4 ADD AND SWAP1 POP SWAP2 SWAP1 POP JUMP JUMPDEST PUSH32 0x4E487B7100000000000000000000000000000000000000000000000000000000 PUSH0 MSTORE PUSH1 0x41 PUSH1 0x4 MSTORE PUSH1 0x24 PUSH0 REVERT JUMPDEST PUSH2 0x110 DUP3 PUSH2 0xCA JUMP JUMPDEST DUP2 ADD DUP2 DUP2 LT PUSH8 0xFFFFFFFFFFFFFFFF DUP3 GT OR ISZERO PUSH2 0x12F JUMPI PUSH2 0x12E PUSH2 0xDA JUMP JUMPDEST JUMPDEST DUP1 PUSH1 0x40 MSTORE POP POP POP JUMP JUMPDEST PUSH0 PUSH2 0x141 PUSH2 0xB1 JUMP JUMPDEST SWAP1 POP PUSH2 0x14D DUP3 DUP3 PUSH2 0x107 JUMP JUMPDEST SWAP2 SWAP1 POP JUMP JUMPDEST PUSH0 PUSH8 0xFFFFFFFFFFFFFFFF DUP3 GT ISZERO PUSH2 0x16C JUMPI PUSH2 0x16B PUSH2 0xDA JUMP JUMPDEST JUMPDEST PUSH2 0x175 DUP3 PUSH2 0xCA JUMP JUMPDEST SWAP1 POP PUSH1 0x20 DUP2 ADD SWAP1 POP SWAP2 SWAP1 POP JUMP JUMPDEST DUP3 DUP2 DUP4 MCOPY PUSH0 DUP4 DUP4 ADD MSTORE POP POP POP JUMP JUMPDEST PUSH0 PUSH2 0x1A2 PUSH2 0x19D DUP5 PUSH2 0x152 JUMP JUMPDEST PUSH2 0x138 JUMP JUMPDEST SWAP1 POP DUP3 DUP2 MSTORE PUSH1 0x20 DUP2 ADD DUP5 DUP5 DUP5 ADD GT ISZERO PUSH2 0x1BE JUMPI PUSH2 0x1BD PUSH2 0xC6 JUMP JUMPDEST JUMPDEST PUSH2 0x1C9 DUP5 DUP3 DUP6 PUSH2 0x182 JUMP JUMPDEST POP SWAP4 SWAP3 POP POP POP JUMP JUMPDEST PUSH0 DUP3 PUSH1 0x1F DUP4 ADD SLT PUSH2 0x1E5 JUMPI PUSH2 0x1E4 PUSH2 0xC2 JUMP JUMPDEST JUMPDEST DUP2 MLOAD PUSH2 0x1F5 DUP5 DUP3 PUSH1 0x20 DUP7 ADD PUSH2 0x190 JUMP JUMPDEST SWAP2 POP POP SWAP3 SWAP2 POP POP JUMP JUMPDEST PUSH0 DUP2 SWAP1 POP SWAP2 SWAP1 POP JUMP JUMPDEST PUSH2 0x210 DUP2 PUSH2 0x1FE JUMP JUMPDEST DUP2 EQ PUSH2 0x21A JUMPI PUSH0 DUP1 REVERT JUMPDEST POP JUMP JUMPDEST PUSH0 DUP2 MLOAD SWAP1 POP PUSH2 0x22B DUP2 PUSH2 0x207 JUMP JUMPDEST SWAP3 SWAP2 POP POP JUMP JUMPDEST PUSH0 PUSH20 0xFFFFFFFFFFFFFFFFFFFFFFFFFFFFFFFFFFFFFFFF DUP3 AND SWAP1 POP SWAP2 SWAP1 POP JUMP JUMPDEST PUSH0 PUSH2 0x25A DUP3 PUSH2 0x231 JUMP JUMPDEST SWAP1 POP SWAP2 SWAP1 POP JUMP JUMPDEST PUSH2 0x26A DUP2 PUSH2 0x250 JUMP JUMPDEST DUP2 EQ PUSH2 0x274 JUMPI PUSH0 DUP1 REVERT JUMPDEST POP JUMP JUMPDEST PUSH0 DUP2 MLOAD SWAP1 POP PUSH2 0x285 DUP2 PUSH2 0x261 JUMP JUMPDEST SWAP3 SWAP2 POP POP JUMP JUMPDEST PUSH0 DUP1 PUSH0 DUP1 PUSH0 PUSH1 0xA0 DUP7 DUP9 SUB SLT ISZERO PUSH2 0x2A4 JUMPI PUSH2 0x2A3 PUSH2 0xBA JUMP JUMPDEST JUMPDEST PUSH0 DUP7 ADD MLOAD PUSH8 0xFFFFFFFFFFFFFFFF DUP2 GT ISZERO PUSH2 0x2C1 JUMPI PUSH2 0x2C0 PUSH2 0xBE JUMP JUMPDEST JUMPDEST PUSH2 0x2CD DUP9 DUP3 DUP10 ADD PUSH2 0x1D1 JUMP JUMPDEST SWAP6 POP POP PUSH1 0x20 DUP7 ADD MLOAD PUSH8 0xFFFFFFFFFFFFFFFF DUP2 GT ISZERO PUSH2 0x2EE JUMPI PUSH2 0x2ED PUSH2 0xBE JUMP JUMPDEST JUMPDEST PUSH2 0x2FA DUP9 DUP3 DUP10 ADD PUSH2 0x1D1 JUMP JUMPDEST SWAP5 POP POP PUSH1 0x40 DUP7 ADD MLOAD PUSH8 0xFFFFFFFFFFFFFFFF DUP2 GT ISZERO PUSH2 0x31B JUMPI PUSH2 0x31A PUSH2 0xBE JUMP JUMPDEST JUMPDEST PUSH2 0x327 DUP9 DUP3 DUP10 ADD PUSH2 0x1D1 JUMP JUMPDEST SWAP4 POP POP PUSH1 0x60 PUSH2 0x338 DUP9 DUP3 DUP10 ADD PUSH2 0x21D JUMP JUMPDEST SWAP3 POP POP PUSH1 0x80 PUSH2 0x349 DUP9 DUP3 DUP10 ADD PUSH2 0x277 JUMP JUMPDEST SWAP2 POP POP SWAP3 SWAP6 POP SWAP3 SWAP6 SWAP1 SWAP4 POP JUMP JUMPDEST PUSH0 DUP2 MLOAD SWAP1 POP SWAP2 SWAP1 POP JUMP JUMPDEST PUSH32 0x4E487B7100000000000000000000000000000000000000000000000000000000 PUSH0 MSTORE PUSH1 0x22 PUSH1 0x4 MSTORE PUSH1 0x24 PUSH0 REVERT JUMPDEST PUSH0 PUSH1 0x2 DUP3 DIV SWAP1 POP PUSH1 0x1 DUP3 AND DUP1 PUSH2 0x3A4 JUMPI PUSH1 0x7F DUP3 AND SWAP2 POP JUMPDEST PUSH1 0x20 DUP3 LT DUP2 SUB PUSH2 0x3B7 JUMPI PUSH2 0x3B6 PUSH2 0x360 JUMP JUMPDEST JUMPDEST POP SWAP2 SWAP1 POP JUMP JUMPDEST PUSH0 DUP2 SWAP1 POP DUP2 PUSH0 MSTORE PUSH1 0x20 PUSH0 KECCAK256 SWAP1 POP SWAP2 SWAP1 POP JUMP JUMPDEST PUSH0 PUSH1 0x20 PUSH1 0x1F DUP4 ADD DIV SWAP1 POP SWAP2 SWAP1 POP JUMP JUMPDEST PUSH0 DUP3 DUP3 SHL SWAP1 POP SWAP3 SWAP2 POP POP JUMP JUMPDEST PUSH0 PUSH1 0x8 DUP4 MUL PUSH2 0x419 PUSH32 0xFFFFFFFFFFFFFFFFFFFFFFFFFFFFFFFFFFFFFFFFFFFFFFFFFFFFFFFFFFFFFFFF DUP3 PUSH2 0x3DE JUMP JUMPDEST PUSH2 0x423 DUP7 DUP4 PUSH2 0x3DE JUMP JUMPDEST SWAP6 POP DUP1 NOT DUP5 AND SWAP4 POP DUP1 DUP7 AND DUP5 OR SWAP3 POP POP POP SWAP4 SWAP3 POP POP POP JUMP JUMPDEST PUSH0 DUP2 SWAP1 POP SWAP2 SWAP1 POP JUMP JUMPDEST PUSH0 PUSH2 0x45E PUSH2 0x459 PUSH2 0x454 DUP5 PUSH2 0x1FE JUMP JUMPDEST PUSH2 0x43B JUMP JUMPDEST PUSH2 0x1FE JUMP JUMPDEST SWAP1 POP SWAP2 SWAP1 POP JUMP JUMPDEST PUSH0 DUP2 SWAP1 POP SWAP2 SWAP1 POP JUMP JUMPDEST PUSH2 0x477 DUP4 PUSH2 0x444 JUMP JUMPDEST PUSH2 0x48B PUSH2 0x483 DUP3 PUSH2 0x465 JUMP JUMPDEST DUP5 DUP5 SLOAD PUSH2 0x3EA JUMP JUMPDEST DUP3 SSTORE POP POP POP POP JUMP JUMPDEST PUSH0 SWAP1 JUMP JUMPDEST PUSH2 0x49F PUSH2 0x493 JUMP JUMPDEST PUSH2 0x4AA DUP2 DUP5 DUP5 PUSH2 0x46E JUMP JUMPDEST POP POP POP JUMP JUMPDEST JUMPDEST DUP2 DUP2 LT ISZERO PUSH2 0x4CD JUMPI PUSH2 0x4C2 PUSH0 DUP3 PUSH2 0x497 JUMP JUMPDEST PUSH1 0x1 DUP2 ADD SWAP1 POP PUSH2 0x4B0 JUMP JUMPDEST POP POP JUMP JUMPDEST PUSH1 0x1F DUP3 GT ISZERO PUSH2 0x512 JUMPI PUSH2 0x4E3 DUP2 PUSH2 0x3BD JUMP JUMPDEST PUSH2 0x4EC DUP5 PUSH2 0x3CF JUMP JUMPDEST DUP2 ADD PUSH1 0x20 DUP6 LT ISZERO PUSH2 0x4FB JUMPI DUP2 SWAP1 POP JUMPDEST PUSH2 0x50F PUSH2 0x507 DUP6 PUSH2 0x3CF JUMP JUMPDEST DUP4 ADD DUP3 PUSH2 0x4AF JUMP JUMPDEST POP POP JUMPDEST POP POP POP JUMP JUMPDEST PUSH0 DUP3 DUP3 SHR SWAP1 POP SWAP3 SWAP2 POP POP JUMP JUMPDEST PUSH0 PUSH2 0x532 PUSH0 NOT DUP5 PUSH1 0x8 MUL PUSH2 0x517 JUMP JUMPDEST NOT DUP1 DUP4 AND SWAP2 POP POP SWAP3 SWAP2 POP POP JUMP JUMPDEST PUSH0 PUSH2 0x54A DUP4 DUP4 PUSH2 0x523 JUMP JUMPDEST SWAP2 POP DUP3 PUSH1 0x2 MUL DUP3 OR SWAP1 POP SWAP3 SWAP2 POP POP JUMP JUMPDEST PUSH2 0x563 DUP3 PUSH2 0x356 JUMP JUMPDEST PUSH8 0xFFFFFFFFFFFFFFFF DUP2 GT ISZERO PUSH2 0x57C JUMPI PUSH2 0x57B PUSH2 0xDA JUMP JUMPDEST JUMPDEST PUSH2 0x586 DUP3 SLOAD PUSH2 0x38D JUMP JUMPDEST PUSH2 0x591 DUP3 DUP3 DUP6 PUSH2 0x4D1 JUMP JUMPDEST PUSH0 PUSH1 0x20 SWAP1 POP PUSH1 0x1F DUP4 GT PUSH1 0x1 DUP2 EQ PUSH2 0x5C2 JUMPI PUSH0 DUP5 ISZERO PUSH2 0x5B0 JUMPI DUP3 DUP8 ADD MLOAD SWAP1 POP JUMPDEST PUSH2 0x5BA DUP6 DUP3 PUSH2 0x53F JUMP JUMPDEST DUP7 SSTORE POP PUSH2 0x621 JUMP JUMPDEST PUSH1 0x1F NOT DUP5 AND PUSH2 0x5D0 DUP7 PUSH2 0x3BD JUMP JUMPDEST PUSH0 JUMPDEST DUP3 DUP2 LT ISZERO PUSH2 0x5F7 JUMPI DUP5 DUP10 ADD MLOAD DUP3 SSTORE PUSH1 0x1 DUP3 ADD SWAP2 POP PUSH1 0x20 DUP6 ADD SWAP5 POP PUSH1 0x20 DUP2 ADD SWAP1 POP PUSH2 0x5D2 JUMP JUMPDEST DUP7 DUP4 LT ISZERO PUSH2 0x614 JUMPI DUP5 DUP10 ADD MLOAD PUSH2 0x610 PUSH1 0x1F DUP10 AND DUP3 PUSH2 0x523 JUMP JUMPDEST DUP4 SSTORE POP JUMPDEST PUSH1 0x1 PUSH1 0x2 DUP9 MUL ADD DUP9 SSTORE POP POP POP JUMPDEST POP POP POP POP POP POP JUMP JUMPDEST PUSH2 0xA6D DUP1 PUSH2 0x636 PUSH0 CODECOPY PUSH0 RETURN INVALID PUSH1 0x80 PUSH1 0x40 MSTORE CALLVALUE DUP1 ISZERO PUSH2 0xF JUMPI PUSH0 DUP1 REVERT JUMPDEST POP PUSH1 0x4 CALLDATASIZE LT PUSH2 0x9C JUMPI PUSH0 CALLDATALOAD PUSH1 0xE0 SHR DUP1 PUSH4 0xA7F93EBD GT PUSH2 0x64 JUMPI DUP1 PUSH4 0xA7F93EBD EQ PUSH2 0x132 JUMPI DUP1 PUSH4 0xB84C3B2A EQ PUSH2 0x150 JUMPI DUP1 PUSH4 0xB84C8246 EQ PUSH2 0x16E JUMPI DUP1 PUSH4 0xC47F0027 EQ PUSH2 0x18A JUMPI DUP1 PUSH4 0xF4A0A528 EQ PUSH2 0x1A6 JUMPI PUSH2 0x9C JUMP JUMPDEST DUP1 PUSH4 0x15070401 EQ PUSH2 0xA0 JUMPI DUP1 PUSH4 0x17D7DE7C EQ PUSH2 0xBE JUMPI DUP1 PUSH4 0x2CDA77A4 EQ PUSH2 0xDC JUMPI DUP1 PUSH4 0x4E16FC8B EQ PUSH2 0xF8 JUMPI DUP1 PUSH4 0x9B642DE1 EQ PUSH2 0x116 JUMPI JUMPDEST PUSH0 DUP1 REVERT JUMPDEST PUSH2 0xA8 PUSH2 0x1C2 JUMP JUMPDEST PUSH1 0x40 MLOAD PUSH2 0xB5 SWAP2 SWAP1 PUSH2 0x497 JUMP JUMPDEST PUSH1 0x40 MLOAD DUP1 SWAP2 SUB SWAP1 RETURN JUMPDEST PUSH2 0xC6 PUSH2 0x252 JUMP JUMPDEST PUSH1 0x40 MLOAD PUSH2 0xD3 SWAP2 SWAP1 PUSH2 0x497 JUMP JUMPDEST PUSH1 0x40 MLOAD DUP1 SWAP2 SUB SWAP1 RETURN JUMPDEST PUSH2 0xF6 PUSH1 0x4 DUP1 CALLDATASIZE SUB DUP2 ADD SWAP1 PUSH2 0xF1 SWAP2 SWAP1 PUSH2 0x522 JUMP JUMPDEST PUSH2 0x2E1 JUMP JUMPDEST STOP JUMPDEST PUSH2 0x100 PUSH2 0x324 JUMP JUMPDEST PUSH1 0x40 MLOAD PUSH2 0x10D SWAP2 SWAP1 PUSH2 0x497 JUMP JUMPDEST PUSH1 0x40 MLOAD DUP1 SWAP2 SUB SWAP1 RETURN JUMPDEST PUSH2 0x130 PUSH1 0x4 DUP1 CALLDATASIZE SUB DUP2 ADD SWAP1 PUSH2 0x12B SWAP2 SWAP1 PUSH2 0x679 JUMP JUMPDEST PUSH2 0x3B4 JUMP JUMPDEST STOP JUMPDEST PUSH2 0x13A PUSH2 0x3C7 JUMP JUMPDEST PUSH1 0x40 MLOAD PUSH2 0x147 SWAP2 SWAP1 PUSH2 0x6D8 JUMP JUMPDEST PUSH1 0x40 MLOAD DUP1 SWAP2 SUB SWAP1 RETURN JUMPDEST PUSH2 0x158 PUSH2 0x3D0 JUMP JUMPDEST PUSH1 0x40 MLOAD PUSH2 0x165 SWAP2 SWAP1 PUSH2 0x700 JUMP JUMPDEST PUSH1 0x40 MLOAD DUP1 SWAP2 SUB SWAP1 RETURN JUMPDEST PUSH2 0x188 PUSH1 0x4 DUP1 CALLDATASIZE SUB DUP2 ADD SWAP1 PUSH2 0x183 SWAP2 SWAP1 PUSH2 0x679 JUMP JUMPDEST PUSH2 0x3F8 JUMP JUMPDEST STOP JUMPDEST PUSH2 0x1A4 PUSH1 0x4 DUP1 CALLDATASIZE SUB DUP2 ADD SWAP1 PUSH2 0x19F SWAP2 SWAP1 PUSH2 0x679 JUMP JUMPDEST PUSH2 0x40B JUMP JUMPDEST STOP JUMPDEST PUSH2 0x1C0 PUSH1 0x4 DUP1 CALLDATASIZE SUB DUP2 ADD SWAP1 PUSH2 0x1BB SWAP2 SWAP1 PUSH2 0x743 JUMP JUMPDEST PUSH2 0x41D JUMP JUMPDEST STOP JUMPDEST PUSH1 0x60 PUSH1 0x1 DUP1 SLOAD PUSH2 0x1D1 SWAP1 PUSH2 0x79B JUMP JUMPDEST DUP1 PUSH1 0x1F ADD PUSH1 0x20 DUP1 SWAP2 DIV MUL PUSH1 0x20 ADD PUSH1 0x40 MLOAD SWAP1 DUP2 ADD PUSH1 0x40 MSTORE DUP1 SWAP3 SWAP2 SWAP1 DUP2 DUP2 MSTORE PUSH1 0x20 ADD DUP3 DUP1 SLOAD PUSH2 0x1FD SWAP1 PUSH2 0x79B JUMP JUMPDEST DUP1 ISZERO PUSH2 0x248 JUMPI DUP1 PUSH1 0x1F LT PUSH2 0x21F JUMPI PUSH2 0x100 DUP1 DUP4 SLOAD DIV MUL DUP4 MSTORE SWAP2 PUSH1 0x20 ADD SWAP2 PUSH2 0x248 JUMP JUMPDEST DUP3 ADD SWAP2 SWAP1 PUSH0 MSTORE PUSH1 0x20 PUSH0 KECCAK256 SWAP1 JUMPDEST DUP2 SLOAD DUP2 MSTORE SWAP1 PUSH1 0x1 ADD SWAP1 PUSH1 0x20 ADD DUP1 DUP4 GT PUSH2 0x22B JUMPI DUP3 SWAP1 SUB PUSH1 0x1F AND DUP3 ADD SWAP2 JUMPDEST POP POP POP POP POP SWAP1 POP SWAP1 JUMP JUMPDEST PUSH1 0x60 PUSH0 DUP1 SLOAD PUSH2 0x260 SWAP1 PUSH2 0x79B JUMP JUMPDEST DUP1 PUSH1 0x1F ADD PUSH1 0x20 DUP1 SWAP2 DIV MUL PUSH1 0x20 ADD PUSH1 0x40 MLOAD SWAP1 DUP2 ADD PUSH1 0x40 MSTORE DUP1 SWAP3 SWAP2 SWAP1 DUP2 DUP2 MSTORE PUSH1 0x20 ADD DUP3 DUP1 SLOAD PUSH2 0x28C SWAP1 PUSH2 0x79B JUMP JUMPDEST DUP1 ISZERO PUSH2 0x2D7 JUMPI DUP1 PUSH1 0x1F LT PUSH2 0x2AE JUMPI PUSH2 0x100 DUP1 DUP4 SLOAD DIV MUL DUP4 MSTORE SWAP2 PUSH1 0x20 ADD SWAP2 PUSH2 0x2D7 JUMP JUMPDEST DUP3 ADD SWAP2 SWAP1 PUSH0 MSTORE PUSH1 0x20 PUSH0 KECCAK256 SWAP1 JUMPDEST DUP2 SLOAD DUP2 MSTORE SWAP1 PUSH1 0x1 ADD SWAP1 PUSH1 0x20 ADD DUP1 DUP4 GT PUSH2 0x2BA JUMPI DUP3 SWAP1 SUB PUSH1 0x1F AND DUP3 ADD SWAP2 JUMPDEST POP POP POP POP POP SWAP1 POP SWAP1 JUMP JUMPDEST DUP1 PUSH1 0x4 PUSH0 PUSH2 0x100 EXP DUP2 SLOAD DUP2 PUSH20 0xFFFFFFFFFFFFFFFFFFFFFFFFFFFFFFFFFFFFFFFF MUL NOT AND SWAP1 DUP4 PUSH20 0xFFFFFFFFFFFFFFFFFFFFFFFFFFFFFFFFFFFFFFFF AND MUL OR SWAP1 SSTORE POP POP JUMP JUMPDEST PUSH1 0x60 PUSH1 0x2 DUP1 SLOAD PUSH2 0x333 SWAP1 PUSH2 0x79B JUMP JUMPDEST DUP1 PUSH1 0x1F ADD PUSH1 0x20 DUP1 SWAP2 DIV MUL PUSH1 0x20 ADD PUSH1 0x40 MLOAD SWAP1 DUP2 ADD PUSH1 0x40 MSTORE DUP1 SWAP3 SWAP2 SWAP1 DUP2 DUP2 MSTORE PUSH1 0x20 ADD DUP3 DUP1 SLOAD PUSH2 0x35F SWAP1 PUSH2 0x79B JUMP JUMPDEST DUP1 ISZERO PUSH2 0x3AA JUMPI DUP1 PUSH1 0x1F LT PUSH2 0x381 JUMPI PUSH2 0x100 DUP1 DUP4 SLOAD DIV MUL DUP4 MSTORE SWAP2 PUSH1 0x20 ADD SWAP2 PUSH2 0x3AA JUMP JUMPDEST DUP3 ADD SWAP2 SWAP1 PUSH0 MSTORE PUSH1 0x20 PUSH0 KECCAK256 SWAP1 JUMPDEST DUP2 SLOAD DUP2 MSTORE SWAP1 PUSH1 0x1 ADD SWAP1 PUSH1 0x20 ADD DUP1 DUP4 GT PUSH2 0x38D JUMPI DUP3 SWAP1 SUB PUSH1 0x1F AND DUP3 ADD SWAP2 JUMPDEST POP POP POP POP POP SWAP1 POP SWAP1 JUMP JUMPDEST DUP1 PUSH1 0x2 SWAP1 DUP2 PUSH2 0x3C3 SWAP2 SWAP1 PUSH2 0x968 JUMP JUMPDEST POP POP JUMP JUMPDEST PUSH0 PUSH1 0x3 SLOAD SWAP1 POP SWAP1 JUMP JUMPDEST PUSH0 PUSH1 0x4 PUSH0 SWAP1 SLOAD SWAP1 PUSH2 0x100 EXP SWAP1 DIV PUSH20 0xFFFFFFFFFFFFFFFFFFFFFFFFFFFFFFFFFFFFFFFF AND SWAP1 POP SWAP1 JUMP JUMPDEST DUP1 PUSH1 0x1 SWAP1 DUP2 PUSH2 0x407 SWAP2 SWAP1 PUSH2 0x968 JUMP JUMPDEST POP POP JUMP JUMPDEST DUP1 PUSH0 SWAP1 DUP2 PUSH2 0x419 SWAP2 SWAP1 PUSH2 0x968 JUMP JUMPDEST POP POP JUMP JUMPDEST DUP1 PUSH1 0x3 DUP2 SWAP1 SSTORE POP POP JUMP JUMPDEST PUSH0 DUP2 MLOAD SWAP1 POP SWAP2 SWAP1 POP JUMP JUMPDEST PUSH0 DUP3 DUP3 MSTORE PUSH1 0x20 DUP3 ADD SWAP1 POP SWAP3 SWAP2 POP POP JUMP JUMPDEST DUP3 DUP2 DUP4 MCOPY PUSH0 DUP4 DUP4 ADD MSTORE POP POP POP JUMP JUMPDEST PUSH0 PUSH1 0x1F NOT PUSH1 0x1F DUP4 ADD AND SWAP1 POP SWAP2 SWAP1 POP JUMP JUMPDEST PUSH0 PUSH2 0x469 DUP3 PUSH2 0x427 JUMP JUMPDEST PUSH2 0x473 DUP2 DUP6 PUSH2 0x431 JUMP JUMPDEST SWAP4 POP PUSH2 0x483 DUP2 DUP6 PUSH1 0x20 DUP7 ADD PUSH2 0x441 JUMP JUMPDEST PUSH2 0x48C DUP2 PUSH2 0x44F JUMP JUMPDEST DUP5 ADD SWAP2 POP POP SWAP3 SWAP2 POP POP JUMP JUMPDEST PUSH0 PUSH1 0x20 DUP3 ADD SWAP1 POP DUP2 DUP2 SUB PUSH0 DUP4 ADD MSTORE PUSH2 0x4AF DUP2 DUP5 PUSH2 0x45F JUMP JUMPDEST SWAP1 POP SWAP3 SWAP2 POP POP JUMP JUMPDEST PUSH0 PUSH1 0x40 MLOAD SWAP1 POP SWAP1 JUMP JUMPDEST PUSH0 DUP1 REVERT JUMPDEST PUSH0 DUP1 REVERT JUMPDEST PUSH0 PUSH20 0xFFFFFFFFFFFFFFFFFFFFFFFFFFFFFFFFFFFFFFFF DUP3 AND SWAP1 POP SWAP2 SWAP1 POP JUMP JUMPDEST PUSH0 PUSH2 0x4F1 DUP3 PUSH2 0x4C8 JUMP JUMPDEST SWAP1 POP SWAP2 SWAP1 POP JUMP JUMPDEST PUSH2 0x501 DUP2 PUSH2 0x4E7 JUMP JUMPDEST DUP2 EQ PUSH2 0x50B JUMPI PUSH0 DUP1 REVERT JUMPDEST POP JUMP JUMPDEST PUSH0 DUP2 CALLDATALOAD SWAP1 POP PUSH2 0x51C DUP2 PUSH2 0x4F8 JUMP JUMPDEST SWAP3 SWAP2 POP POP JUMP JUMPDEST PUSH0 PUSH1 0x20 DUP3 DUP5 SUB SLT ISZERO PUSH2 0x537 JUMPI PUSH2 0x536 PUSH2 0x4C0 JUMP JUMPDEST JUMPDEST PUSH0 PUSH2 0x544 DUP5 DUP3 DUP6 ADD PUSH2 0x50E JUMP JUMPDEST SWAP2 POP POP SWAP3 SWAP2 POP POP JUMP JUMPDEST PUSH0 DUP1 REVERT JUMPDEST PUSH0 DUP1 REVERT JUMPDEST PUSH32 0x4E487B7100000000000000000000000000000000000000000000000000000000 PUSH0 MSTORE PUSH1 0x41 PUSH1 0x4 MSTORE PUSH1 0x24 PUSH0 REVERT JUMPDEST PUSH2 0x58B DUP3 PUSH2 0x44F JUMP JUMPDEST DUP2 ADD DUP2 DUP2 LT PUSH8 0xFFFFFFFFFFFFFFFF DUP3 GT OR ISZERO PUSH2 0x5AA JUMPI PUSH2 0x5A9 PUSH2 0x555 JUMP JUMPDEST JUMPDEST DUP1 PUSH1 0x40 MSTORE POP POP POP JUMP JUMPDEST PUSH0 PUSH2 0x5BC PUSH2 0x4B7 JUMP JUMPDEST SWAP1 POP PUSH2 0x5C8 DUP3 DUP3 PUSH2 0x582 JUMP JUMPDEST SWAP2 SWAP1 POP JUMP JUMPDEST PUSH0 PUSH8 0xFFFFFFFFFFFFFFFF DUP3 GT ISZERO PUSH2 0x5E7 JUMPI PUSH2 0x5E6 PUSH2 0x555 JUMP JUMPDEST JUMPDEST PUSH2 0x5F0 DUP3 PUSH2 0x44F JUMP JUMPDEST SWAP1 POP PUSH1 0x20 DUP2 ADD SWAP1 POP SWAP2 SWAP1 POP JUMP JUMPDEST DUP3 DUP2 DUP4 CALLDATACOPY PUSH0 DUP4 DUP4 ADD MSTORE POP POP POP JUMP JUMPDEST PUSH0 PUSH2 0x61D PUSH2 0x618 DUP5 PUSH2 0x5CD JUMP JUMPDEST PUSH2 0x5B3 JUMP JUMPDEST SWAP1 POP DUP3 DUP2 MSTORE PUSH1 0x20 DUP2 ADD DUP5 DUP5 DUP5 ADD GT ISZERO PUSH2 0x639 JUMPI PUSH2 0x638 PUSH2 0x551 JUMP JUMPDEST JUMPDEST PUSH2 0x644 DUP5 DUP3 DUP6 PUSH2 0x5FD JUMP JUMPDEST POP SWAP4 SWAP3 POP POP POP JUMP JUMPDEST PUSH0 DUP3 PUSH1 0x1F DUP4 ADD SLT PUSH2 0x660 JUMPI PUSH2 0x65F PUSH2 0x54D JUMP JUMPDEST JUMPDEST DUP2 CALLDATALOAD PUSH2 0x670 DUP5 DUP3 PUSH1 0x20 DUP7 ADD PUSH2 0x60B JUMP JUMPDEST SWAP2 POP POP SWAP3 SWAP2 POP POP JUMP JUMPDEST PUSH0 PUSH1 0x20 DUP3 DUP5 SUB SLT ISZERO PUSH2 0x68E JUMPI PUSH2 0x68D PUSH2 0x4C0 JUMP JUMPDEST JUMPDEST PUSH0 DUP3 ADD CALLDATALOAD PUSH8 0xFFFFFFFFFFFFFFFF DUP2 GT ISZERO PUSH2 0x6AB JUMPI PUSH2 0x6AA PUSH2 0x4C4 JUMP JUMPDEST JUMPDEST PUSH2 0x6B7 DUP5 DUP3 DUP6 ADD PUSH2 0x64C JUMP JUMPDEST SWAP2 POP POP SWAP3 SWAP2 POP POP JUMP JUMPDEST PUSH0 DUP2 SWAP1 POP SWAP2 SWAP1 POP JUMP JUMPDEST PUSH2 0x6D2 DUP2 PUSH2 0x6C0 JUMP JUMPDEST DUP3 MSTORE POP POP JUMP JUMPDEST PUSH0 PUSH1 0x20 DUP3 ADD SWAP1 POP PUSH2 0x6EB PUSH0 DUP4 ADD DUP5 PUSH2 0x6C9 JUMP JUMPDEST SWAP3 SWAP2 POP POP JUMP JUMPDEST PUSH2 0x6FA DUP2 PUSH2 0x4E7 JUMP JUMPDEST DUP3 MSTORE POP POP JUMP JUMPDEST PUSH0 PUSH1 0x20 DUP3 ADD SWAP1 POP PUSH2 0x713 PUSH0 DUP4 ADD DUP5 PUSH2 0x6F1 JUMP JUMPDEST SWAP3 SWAP2 POP POP JUMP JUMPDEST PUSH2 0x722 DUP2 PUSH2 0x6C0 JUMP JUMPDEST DUP2 EQ PUSH2 0x72C JUMPI PUSH0 DUP1 REVERT JUMPDEST POP JUMP JUMPDEST PUSH0 DUP2 CALLDATALOAD SWAP1 POP PUSH2 0x73D DUP2 PUSH2 0x719 JUMP JUMPDEST SWAP3 SWAP2 POP POP JUMP JUMPDEST PUSH0 PUSH1 0x20 DUP3 DUP5 SUB SLT ISZERO PUSH2 0x758 JUMPI PUSH2 0x757 PUSH2 0x4C0 JUMP JUMPDEST JUMPDEST PUSH0 PUSH2 0x765 DUP5 DUP3 DUP6 ADD PUSH2 0x72F JUMP JUMPDEST SWAP2 POP POP SWAP3 SWAP2 POP POP JUMP JUMPDEST PUSH32 0x4E487B7100000000000000000000000000000000000000000000000000000000 PUSH0 MSTORE PUSH1 0x22 PUSH1 0x4 MSTORE PUSH1 0x24 PUSH0 REVERT JUMPDEST PUSH0 PUSH1 0x2 DUP3 DIV SWAP1 POP PUSH1 0x1 DUP3 AND DUP1 PUSH2 0x7B2 JUMPI PUSH1 0x7F DUP3 AND SWAP2 POP JUMPDEST PUSH1 0x20 DUP3 LT DUP2 SUB PUSH2 0x7C5 JUMPI PUSH2 0x7C4 PUSH2 0x76E JUMP JUMPDEST JUMPDEST POP SWAP2 SWAP1 POP JUMP JUMPDEST PUSH0 DUP2 SWAP1 POP DUP2 PUSH0 MSTORE PUSH1 0x20 PUSH0 KECCAK256 SWAP1 POP SWAP2 SWAP1 POP JUMP JUMPDEST PUSH0 PUSH1 0x20 PUSH1 0x1F DUP4 ADD DIV SWAP1 POP SWAP2 SWAP1 POP JUMP JUMPDEST PUSH0 DUP3 DUP3 SHL SWAP1 POP SWAP3 SWAP2 POP POP JUMP JUMPDEST PUSH0 PUSH1 0x8 DUP4 MUL PUSH2 0x827 PUSH32 0xFFFFFFFFFFFFFFFFFFFFFFFFFFFFFFFFFFFFFFFFFFFFFFFFFFFFFFFFFFFFFFFF DUP3 PUSH2 0x7EC JUMP JUMPDEST PUSH2 0x831 DUP7 DUP4 PUSH2 0x7EC JUMP JUMPDEST SWAP6 POP DUP1 NOT DUP5 AND SWAP4 POP DUP1 DUP7 AND DUP5 OR SWAP3 POP POP POP SWAP4 SWAP3 POP POP POP JUMP JUMPDEST PUSH0 DUP2 SWAP1 POP SWAP2 SWAP1 POP JUMP JUMPDEST PUSH0 PUSH2 0x86C PUSH2 0x867 PUSH2 0x862 DUP5 PUSH2 0x6C0 JUMP JUMPDEST PUSH2 0x849 JUMP JUMPDEST PUSH2 0x6C0 JUMP JUMPDEST SWAP1 POP SWAP2 SWAP1 POP JUMP JUMPDEST PUSH0 DUP2 SWAP1 POP SWAP2 SWAP1 POP JUMP JUMPDEST PUSH2 0x885 DUP4 PUSH2 0x852 JUMP JUMPDEST PUSH2 0x899 PUSH2 0x891 DUP3 PUSH2 0x873 JUMP JUMPDEST DUP5 DUP5 SLOAD PUSH2 0x7F8 JUMP JUMPDEST DUP3 SSTORE POP POP POP POP JUMP JUMPDEST PUSH0 SWAP1 JUMP JUMPDEST PUSH2 0x8AD PUSH2 0x8A1 JUMP JUMPDEST PUSH2 0x8B8 DUP2 DUP5 DUP5 PUSH2 0x87C JUMP JUMPDEST POP POP POP JUMP JUMPDEST JUMPDEST DUP2 DUP2 LT ISZERO PUSH2 0x8DB JUMPI PUSH2 0x8D0 PUSH0 DUP3 PUSH2 0x8A5 JUMP JUMPDEST PUSH1 0x1 DUP2 ADD SWAP1 POP PUSH2 0x8BE JUMP JUMPDEST POP POP JUMP JUMPDEST PUSH1 0x1F DUP3 GT ISZERO PUSH2 0x920 JUMPI PUSH2 0x8F1 DUP2 PUSH2 0x7CB JUMP JUMPDEST PUSH2 0x8FA DUP5 PUSH2 0x7DD JUMP JUMPDEST DUP2 ADD PUSH1 0x20 DUP6 LT ISZERO PUSH2 0x909 JUMPI DUP2 SWAP1 POP JUMPDEST PUSH2 0x91D PUSH2 0x915 DUP6 PUSH2 0x7DD JUMP JUMPDEST DUP4 ADD DUP3 PUSH2 0x8BD JUMP JUMPDEST POP POP JUMPDEST POP POP POP JUMP JUMPDEST PUSH0 DUP3 DUP3 SHR SWAP1 POP SWAP3 SWAP2 POP POP JUMP JUMPDEST PUSH0 PUSH2 0x940 PUSH0 NOT DUP5 PUSH1 0x8 MUL PUSH2 0x925 JUMP JUMPDEST NOT DUP1 DUP4 AND SWAP2 POP POP SWAP3 SWAP2 POP POP JUMP JUMPDEST PUSH0 PUSH2 0x958 DUP4 DUP4 PUSH2 0x931 JUMP JUMPDEST SWAP2 POP DUP3 PUSH1 0x2 MUL DUP3 OR SWAP1 POP SWAP3 SWAP2 POP POP JUMP JUMPDEST PUSH2 0x971 DUP3 PUSH2 0x427 JUMP JUMPDEST PUSH8 0xFFFFFFFFFFFFFFFF DUP2 GT ISZERO PUSH2 0x98A JUMPI PUSH2 0x989 PUSH2 0x555 JUMP JUMPDEST JUMPDEST PUSH2 0x994 DUP3 SLOAD PUSH2 0x79B JUMP JUMPDEST PUSH2 0x99F DUP3 DUP3 DUP6 PUSH2 0x8DF JUMP JUMPDEST PUSH0 PUSH1 0x20 SWAP1 POP PUSH1 0x1F DUP4 GT PUSH1 0x1 DUP2 EQ PUSH2 0x9D0 JUMPI PUSH0 DUP5 ISZERO PUSH2 0x9BE JUMPI DUP3 DUP8 ADD MLOAD SWAP1 POP JUMPDEST PUSH2 0x9C8 DUP6 DUP3 PUSH2 0x94D JUMP JUMPDEST DUP7 SSTORE POP PUSH2 0xA2F JUMP JUMPDEST PUSH1 0x1F NOT DUP5 AND PUSH2 0x9DE DUP7 PUSH2 0x7CB JUMP JUMPDEST PUSH0 JUMPDEST DUP3 DUP2 LT ISZERO PUSH2 0xA05 JUMPI DUP5 DUP10 ADD MLOAD DUP3 SSTORE PUSH1 0x1 DUP3 ADD SWAP2 POP PUSH1 0x20 DUP6 ADD SWAP5 POP PUSH1 0x20 DUP2 ADD SWAP1 POP PUSH2 0x9E0 JUMP JUMPDEST DUP7 DUP4 LT ISZERO PUSH2 0xA22 JUMPI DUP5 DUP10 ADD MLOAD PUSH2 0xA1E PUSH1 0x1F DUP10 AND DUP3 PUSH2 0x931 JUMP JUMPDEST DUP4 SSTORE POP JUMPDEST PUSH1 0x1 PUSH1 0x2 DUP9 MUL ADD DUP9 SSTORE POP POP POP JUMPDEST POP POP POP POP POP POP JUMP INVALID LOG2 PUSH5 0x6970667358 0x22 SLT KECCAK256 DIV 0xEC 0x26 SWAP10 CALLCODE 0xBE SSTORE COINBASE CODESIZE 0xD9 LOG1 ADD REVERT 0x4D PUSH5 0x1F15DA4015 PUSH6 0x1881D2CED484 CALLDATASIZE BYTE PUSH25 0x9A6A64736F6C634300081A0033A2646970667358221220CA17 JUMP 0xAD 0x4F 0xB7 PUSH13 0x83A890885ED9B1414A209A0971 SSTORE LOG2 DELEGATECALL EXTCODEHASH 0xAC 0xDB PUSH30 0x722ED8B15664736F6C634300081A00330000000000000000000000000000 "
				},
				"gasEstimates": {
					"creation": {
						"codeDepositCost": "1600800",
						"executionCost": "25943",
						"totalCost": "1626743"
					},
					"external": {
						"deployNft(string,string,string,uint256,address)": "infinite",
						"getAddress()": "380",
						"getMintPrice(address)": "infinite",
						"getNftAddressList()": "infinite",
						"getNftName(address)": "infinite",
						"getOwnerBalance()": "5128",
						"setMintPrice(address,uint256)": "infinite"
					}
				},
				"methodIdentifiers": {
					"deployNft(string,string,string,uint256,address)": "5d1430b7",
					"getAddress()": "38cc4831",
					"getMintPrice(address)": "719d0f2b",
					"getNftAddressList()": "6a1f5339",
					"getNftName(address)": "540b42e9",
					"getOwnerBalance()": "590791f2",
					"setMintPrice(address,uint256)": "fd99734a"
				}
			},
			"storageLayout": {
				"storage": [
					{
						"astId": 321,
						"contract": "contracts/coct/coctNftFactory.sol:CoctNftFactory",
						"label": "owner",
						"offset": 0,
						"slot": "0",
						"type": "t_address"
					},
					{
						"astId": 324,
						"contract": "contracts/coct/coctNftFactory.sol:CoctNftFactory",
						"label": "nftContracts",
						"offset": 0,
						"slot": "1",
						"type": "t_array(t_address)dyn_storage"
					},
					{
						"astId": 328,
						"contract": "contracts/coct/coctNftFactory.sol:CoctNftFactory",
						"label": "nftContractsMap",
						"offset": 0,
						"slot": "2",
						"type": "t_mapping(t_address,t_string_storage)"
					}
				],
				"types": {
					"t_address": {
						"encoding": "inplace",
						"label": "address",
						"numberOfBytes": "20"
					},
					"t_array(t_address)dyn_storage": {
						"base": "t_address",
						"encoding": "dynamic_array",
						"label": "address[]",
						"numberOfBytes": "32"
					},
					"t_mapping(t_address,t_string_storage)": {
						"encoding": "mapping",
						"key": "t_address",
						"label": "mapping(address => string)",
						"numberOfBytes": "32",
						"value": "t_string_storage"
					},
					"t_string_storage": {
						"encoding": "bytes",
						"label": "string",
						"numberOfBytes": "32"
					}
				}
			},
			"userdoc": {
				"kind": "user",
				"methods": {},
				"version": 1
			}
		}
	}
}